S013000050504D5F4465636F6465722E737265630F
S214080000902A07206D070800690708006907080096
S214080010690708006907080069070800000000006B
S214080020000000000000000000000000690708004B
S214080030690708000000000069070800690708004B
S21408004069070800690708006907080069070800C3
S21408005069070800690708006907080069070800B3
S214080060690708006907080000000000190508006D
S2140800702D05080041050800550508000000000089
S21408008000000000690708006907080069070800FB
S2140800906907080069070800690708006907080073
S2140800A069070800000000006907080069070800DB
S2140800B06907080069070800690708006907080053
S2140800C069070800C90A08006907080069070800E0
S2140800D06907080069070800690708006907080033
S2140800E06907080069070800690708006907080023
S2140800F06907080010B5054C237833B9044B13B1CB
S2140801000448AFF300800123237010BD940907202C
S214080110000000001C3C0800084B10B51BB108493D
S2140801200848AFF300800848036803B910BD074BBA
S214080130002BFBD0BDE81040184700BF00000000A9
S214080140980907201C3C08001C3C0800000000001A
S21408015010B50E480E4B98473E2100200D4B984789
S2140801600D4CA0470028FCD00C4B98470C4A0D4B6A
S2140801709A620D4CA0470028FCD010200B4B9847DD
S2140801800B4B98470148024B984710BD00BD010528
S214080190A5000720D1050800250608003506080032
S2140801A0013F0D2000060E404506080069050800B8
S2140801B01908080090B92DE9F0410C469046002A27
S2140801C00FDD8F18084E094D306821462B68984772
S2140801D00134A742F8D14046BDE8F0814FF0FF3021
S2140801E070470020BDE8F081840A07207C0A0720B3
S2140801F00138022815D82DE9F0410E4614469AB162
S2140802000D46DFF838800C4FD8F8000015F8011BAB
S2140802103B68984700280ADBA81B013CF4D1BDE8D8
S214080220F0814FF0FF3070470020BDE8F0814FF0B6
S214080230FF30BDE8F08100BF800A0720840A072047
S21408024010B54FF40042124B5A600B20114CA047D1
S2140802500C20A0470D20A0470E20A0474FF0605165
S2140802603B200D4CA0474FF060515520A0474FF05B
S21408027060515620A04709496820A04708495C20D5
S214080280A047084A4FF440710748084B984710BDE6
S214080290501A0E4055060800550308007900002835
S2140802A00100002801000008000E0E40290408007E
S2140802B04264B1F1805F16D004D8C1B1B1F1006FC5
S2140802C00AD013E0B1F1405F11D0B1F1605F0ED0F3
S2140802D0B1F1205F0AD17047016F036F0B4023EA24
S2140802E00203036702E0036F134303674260704725
S2140802F0416412F0010F14BF4166016612F00A0F3E
S21408030014BF0162416212F0020F02D0C0F88010DA
S21408031004E012F0080F18BFC0F8841041610160AD
S214080320704700BF10B44164019C0CB1416600E000
S21408033001660BB1016500E041650AB1016300E0A2
S21408034041630161016010BC704700BFC06C704714
S214080350806C704770B582B00D46430903F50013EC
S21408036003F207735C0201F0F043B3F1205F30D06C
S21408037006D8B3F1006F0AD0B3F1805F18D049E011
S214080380B3F1405F30D0B3F1605F2DD042E000F0AB
S2140803901F000126864032464FF0006120461F4B5C
S2140803A0984715F0010F14BF66662666012032E0EE
S2140803B000F01F000126864032464FF08051204646
S2140803C0164B984715F0010F14BF6666266601207F
S2140803D021E000F01F0101262A4606FA01F1204610
S2140803E00F4B9847304616E005F0605200F01F01A4
S2140803F0012605EA06030093C5F38003B2F1605FA1
S21408040014BF0022012206FA01F12046054CA04737
S214080410304600E0002002B070BD00BFB102080000
S214080420F10208002503080070B582B005460E469E
S214080430144602F0F043B3F1205F26D006D8B3F195
S214080440006F0AD0B3F1805F13D034E0B3F1405F99
S2140804501FD0B3F1605F1CD02DE00A464FF0006154
S214080460164B984714F0010F14BF6E662E660120CF
S21408047022E00A464FF08051104B984714F0010FBF
S21408048014BF6E662E66012016E00D4B98470120B5
S21408049012E004F0605204F001030093C4F38003F2
S2140804A0B2F1605F14BF0022012231462846054C8F
S2140804B0A047012000E0002002B070BDB10208008D
S2140804C0F1020800250308002DE9F0410446884695
S2140804D00E4B9847054620460D4B9847054013D0C7
S2140804E00C4C04F160062368434508D1616829422C
S2140804F005D0E36840469847636825EA0305B44292
S21408050002D01034002DEED1BDE8F0814D0308006E
S21408051051030800B009072008B50B210148024B13
S214080520984708BD000E0E40C904080008B50C21FF
S2140805300148024B984708BD00100E40C904080041
S21408054008B50D210148024B984708BD00120E4019
S214080550C904080008B50E210148024B984708BD93
S21408056000140E40C9040800184A136B23F07003E1
S21408057018431063936E13F0080F03D009E0013B8D
S21408058003D11EE04FF4006310498A6E12F0080F7C
S214080590F5D00E4A136B23F0030343F002031363EC
S2140805A0906E10F0080004D000207047013B03D17D
S2140805B009E04FF4006305498A6E12F0080FF5D07B
S2140805C07047012070470120704700BF00060E40A4
S2140805D038B111490B6A114A1A40114B13430B6282
S2140805E070470D48026A090289B222F45C1323F0A8
S2140805F0030343F45C1343F001030B430362024610
S214080600936E13F0010FFBD0034A136A43F09B73F3
S21408061043F480331362704700060E40FCFFC8FEA2
S21408062002003701024B986E00F48030704700BF16
S21408063000060E404FF00052014B9A62704700BF0A
S21408064000060E40024B986E00F00200704700BF8E
S21408065000060E402C281ED81F280CD8114B9A6965
S21408066001238340934318D0012303FA00F00D4B6F
S21408067018610020704720380A4BD3F80821012358
S214080680834093430BD0012303FA00F0054BC3F8CD
S21408069000010020704701207047002070470020A6
S2140806A0704700BF00060E4010B4890143180224A4
S2140806B044504FF0FF319962196A5A6010BC70476F
S2140806C0890105234350704700EB811188697047FC
S2140806D000EB81114A62704700EB8111086A704787
S2140806E010B4AC2303600B684A68B3FBF2F31B092B
S2140806F05C1E4FF6FE7294420AD803628B6843600B
S21408070040F20223C0F8203150230360002000E0A6
S214080710012010BC704700BF436913F0020F1ABFD0
S214080720C161002001207047436913F0010F1DBF07
S21408073083690B7000200120704700BF436913F0DF
S214080740020F1DBFC1F30801C161002001207047D8
S214080750436913F0010F05D08369C3F308030B60E0
S2140807600020704701207047FEE700BF08B51E4B03
S2140807701E4A9A4203D01E4B1B4A9A4204D31D4B6C
S2140807801D4A9A420FD31AE017491C4B5B1A23F0EE
S21408079003030433154A134452F8040B41F8040BB8
S2140807A09A42F9D1EBE7164B164AD21A22F0030200
S2140807B01A44043B002143F8041B9342FBD1124B16
S2140807C023F0604222F07F0210498A6003F16043FA
S2140807D0B3F5801F03D28B6843F000538B600C4B35
S2140807E098470C4B9847FEE7000007201C3C08007B
S2140807F0940907208C0A07209409072093090720E4
S214080800980907208F0A07200000080000ED00E07E
S214080810410C08002D0B08003E4B1B6B03F003032E
S214080820032B5FD8DFE803F0020E2B2B3A4B5B69ED
S21408083013F0800F14BF4FF400424FF4FA42374BC0
S2140808401A604FE0334B1B6A13F0807F03D0344A9C
S214080850324B1A6046E0334A304B1A602D4B1B6AFF
S21408086003F07003102B02D0202B04D03AE02E4A57
S2140808702A4B1A6036E02A4A284B1A6032E0254B83
S2140808801B6A13F0807F03D0254A244B1A6012E0B7
S214080890244A224B1A601F4B1B6A03F07003102B66
S2140808A002D0202B04D006E01F4A1C4B1A6002E038
S2140808B01B4A1A4B1A60174B1B6B03F00303022BD9
S2140808C00DD1144A936A926A1448C3F30A4103681E
S2140808D001FB0333D2B2B3FBF2F3036002E0134A20
S2140808E00E4B1A600B4B1B6B03F07003702B07D173
S2140808F00A4A13680E49A1FB03135B081360704786
S214080900044B1B6B0549C3F302120B68D3400B60FC
S214080910704700BF00060E40101A0E402C01072034
S214080920001BB70000093D0000127A00001C4E0E9E
S214080930ABAAAAAA094B1B6813B9094A074B1A603F
S214080940064B1B681A180749914204DB1046034AEF
S2140809501060184670474FF0FF307047200A07208F
S214080960902A0720FC7F08204FF0FF30704700BF12
S2140809704FF400534B600020704700BF01207047BB
S21408098000207047F0B583B004460D460023019357
S2140809901F4B984207D11F461E4E29463846B04779
S2140809A00028FAD119E01C4B984209D11F461B4E65
S2140809B001A93846B0470028FAD1019B2B7019E0E8
S2140809C0174B984209D11E46144C01A93046A04739
S2140809D00028FAD1019B2B7018E0124B9C4209D1D3
S2140809E01E460E4C01A93046A0470028FAD1019BA6
S2140809F02B700BE00C4B9C4208D11E46074C01A9F5
S214080A003046A0470028FAD1019B2B7003B0F0BDF2
S214080A1000080E4029070800008009405107080012
S214080A2000C0094000000A4000400A4070B50C4665
S214080A301E4B984208D11E461D4D21463046A847F3
S214080A400028FAD1012070BD1A4B984208D11E46DC
S214080A50194D21463046A8470028FAD1012070BD16
S214080A60164B984208D11E46134D21463046A847D5
S214080A700028FAD1012070BD114B984208D11E46B5
S214080A800D4D21463046A8470028FAD1012070BDF2
S214080A900C4B984208D11E46074D21463046A847BB
S214080AA00028FAD1012070BD002070BD00080E4055
S214080AB019070800008009403D07080000C00940E3
S214080AC000000A4000400A4008B500211148124BB1
S214080AD0984710F0400F1CD000210E480F4B98473F
S214080AE0C0000F4BA3FB0023C01A03EB50031B09DF
S214080AF099B240F6B832914203D90022094B1A60DF
S214080B0008BD08490A689BB2074840F822300132F7
S214080B100A6008BD00800840D9060800C906080013
S214080B2087611886240A0720280A07202DE9F0433B
S214080B3085B02B4B98472B4B98472B4D2B4B1D605E
S214080B402B4A2C4B1A602C4A2C4B1A602C4B0193C0
S214080B504FF4E13302934FF4006303930820294CC3
S214080B60A04701A92846284B9847284E33680021F5
S214080B709868274DA847336800215868A847212059
S214080B80A047244C244A00212046244B9847244B4F
S214080B900222C3F88420C3F88421002583F8215351
S214080BA05A604022294620461E4B9847294620462A
S214080BB01D4B98471D481E4B9847DFF87C801C4DF8
S214080BC01C4FDFF87890A8F1040408F11C0654F8C6
S214080BD0041F3846A847A642F9D14846A847F2E770
S214080BE0510108004102080000080E40840A072048
S214080BF02D0A0800800A0720850908007C0A0720B5
S214080C0000BD010555060800E1060800580507203E
S214080C10550D08000080084002050600A9060800D1
S214080C2000E100E0D1060800C1060800703B080095
S214080C30910C08008C3B0800280A0720943B080003
S214080C4070B50F4E0F4D761BB61018BF002405D092
S214080C50013455F8043B9847A642F9D10A4E0B4D85
S214080C6002F0C6FF761BB61018BF002406D0013463
S214080C7055F8043B9847A642F9D170BD70BD00BF31
S214080C80FC3B0800FC3B0800043C0800FC3B080052
S214080C900FB410B5074B82B004AC54F8042B186890
S214080CA023468168019400F041F902B0BDE810407F
S214080CB004B070475805072070B4840746D0541E01
S214080CC0002A41D0CDB2034602E0621EE4B31446C1
S214080CD003F8015B9A07F8D1032C2ED9CDB245EA62
S214080CE005250F2C45EA054519D9264603F11002B5
S214080CF0103E0F2E42F8105C42F80C5C42F8085C76
S214080D0042F8045C02F11002F2D8A4F1100222F0B4
S214080D100F0204F00F041032032C13440DD91E469C
S214080D202246043A032A46F8045BFAD8221F22F021
S214080D3003020432134404F003042CB1C9B21C4461
S214080D4003F8011BA342FBD170BC70471446034648
S214080D50C2E700BF00290CBF022200224FF48063BE
S214080D6000F000B82DE9F043514D83B02D680446D5
S214080D700F4690461E4615B1AB6B002B79D0B8F1DE
S214080D80020F04D0B8F1010F7FD8002E7DDB214674
S214080D90284601F00DF9216B41B104F14003994250
S214080DA002D0284601F060FA00232363B4F90C3019
S214080DB00022A26162601A0654D423F44A6323F020
S214080DC00303B8F1020FA38139D001AB6A46214666
S214080DD0284601F0E7FCA3891843A08126B327B369
S214080DE0AB6B002B4DD0009BB4F90C009E421CBF89
S214080DF040F40060A081B8F1010F08BF40F0010080
S214080E0083B208BFA08103F0080080B2276027617C
S214080E10666118B313F001002FD000207642A66151
S214080E20A06003B0BDE8F083009E304601F02EFDBA
S214080E30074668B3A38943F08003A381D0E7002060
S214080E4004F1430243F0020300250121A381A560B3
S214080E5022602261616103B0BDE8F083A06003B040
S214080E60BDE8F0832169284601F0FEF9B4F90C3094
S214080E70A3E7284601F030F981E7A66003B0BDE88D
S214080E80F083284601F028F9ADE74FF0FF30E2E797
S214080E90DDF80090B14506D0484601F0F7FC074655
S214080EA008B14E46C6E7B4F90C304FF0FF30C7E736
S214080EB0580507204B6E2DE9F0479C0492462CD522
S214080EC0936812683BB30F46804602F1080919E991
S214080ED06000B60817D0043D002401E0A64210D0F2
S214080EE03A4655F8041F404601F05EF9431C04F1E3
S214080EF00104F3D10023CAF80830CAF80430BDE864
S214080F00F087DAF80830A3EB8603CAF8083009F148
S214080F100809002BDBD10020ECE701F08DFA00234E
S214080F20CAF80830CAF80430BDE8F0872DE9F04F53
S214080F30ABB01C46009190460493059018B1836B9D
S214080F40002B00F0DE800098B0F90C108AB29504E9
S214080F5007D4436E41F4005223F40053828143665B
S214080F6092B2110740F1B180009B1B69002B00F07C
S214080F70AC8002F01A020A2A00F0B5800DF1680A61
S214080F80D346002302930F930E93CDF834A098F817
S214080F9000304446FBB1252B02D11CE0252B03D09C
S214080FA014F8013F002BF9D1C8EB04059DB10E9B40
S214080FB00F9A01332A44072BCBF80080CBF804504D
S214080FC00F920E937BDD002A40F01F85D346029BC6
S214080FD00E922B4402932378002B00F03B844FF0AC
S214080FE0000300218DF82F3004F1010863780846C5
S214080FF00E460C464FF0FF32019208F10108A3F1A5
S2140810002002582A00F28B83DFE812F03D0389039A
S21408101089034503890389038903890389038903A7
S2140810207E006B028903860070028903CC015D028C
S2140810305D025D025D025D025D025D025D025D02AB
S2140810408903890389038903890389038903890333
S21408105089038903D10189038903890389038903DD
S214081060890389038903890389031A028903890383
S214081070890389038903E502890389030803890329
S21408108089038903890389038903890389038903F3
S21408109089032B0382038903890389035E0382037A
S2140810A0890389036303890370038D028B00E002BA
S2140810B0890393028903B202890389034A030BF161
S2140810C0080B029B2B44029385E70099059800F0CD
S2140810D057FE002840F04585009B9A8902F01A02C0
S2140810E00A2A7FF44BAF0099B1F90E30002BFFF6B1
S2140810F045AF23464246059800F00CFE2BB0BDE8E7
S214081100F08F00F0E9FF1EE7049A134614680433CC
S214081110002C049302DA644246F0040698F800307D
S2140811206BE74FF0000304988DF82F300346302104
S2140811308DF8301001997822002906948DF8312010
S214081140046803F104034FF0000546F00202C0F2FB
S2140811500C8526F0800654EA050246F0020604933B
S21408116040F0B584B348019B002B40F06284994652
S2140811705746002301930393019B039A9342B8BFF3
S21408118013461D46B9F1000F00D0013516F00203CC
S214081190079318BF023516F08403089340F0E882D8
S2140811A0069B5C1B002C40F3E382102C40F33C8526
S2140811B0DFF88492DDF838E0DC460F9AC346102341
S2140811C0A84670464D46DDF8149007E000F1020E7A
S2140811D008460CF1080C103C102C13DD411C10328C
S2140811E007290F92CCF80050CCF804300E91EDDDAC
S2140811F0002A40F0A582103C102C10464FF0010E35
S214081200D446EBDCA94670464546D846E346224413
S21408121007280F92CBF80090CBF804400E9000F306
S2140812206D839DF82F300BF1080B00F1010E002B93
S21408123040F0A782079B002B00F0BA8202320CA966
S2140812400223BEF1070F0F92CDF838E08BE80A00AC
S21408125040F37083002A40F00084089B4FF0010E8C
S214081260802B1046D34640F0A782069B5C1B002CBA
S21408127040F3A282102C40F3F884DFF8C091DE46D3
S2140812801023C346A8464D46DDF8149007E000F143
S214081290020C08460EF1080E103C102C13DD411CFB
S2140812A0103207290F92CEF80050CEF804300E916F
S2140812B0EDDD002A40F00C83103C102C4FF0010C9A
S2140812C01046D646EBDCA9464546D846F3462244A1
S2140812D0BCF1070F0F92CBF80090CBF80440CDF87E
S2140812E038C000F3C883019B03990BF1080B5C1AFE
S2140812F0002C0CF1010E604600F364820399BEF1DF
S214081300070F0A440F92CBF80070CBF80410CDF8FC
S21408131038E040F3C582002A40F0328370070E9208
S21408132038D5069B5C1B002C34DDD346102C40F3C6
S2140813309684DFF804910E994F461026DDF814902F
S21408134006E0881C19460BF1080B103C102C13DD20
S2140813504B1C1032072B0F92CBF80070CBF80460AA
S2140813600E93EEDD002A40F08582103C102C4FF0DC
S21408137001001146D346EBDCB946224407280F92F3
S214081380CBF80090CBF804400E9040F39282002AE7
S21408139040F00C84029B069AAA42ACBF9B185B19C5
S2140813A0029390E246F0800698F8003025E6069408
S2140813B0002940F0858446F01006B30640F1048301
S2140813C00499073121F00701D1E9002314461D4688
S2140813D008310491002A73F10003C0F27C83019B54
S2140813E09DF82F90002BC0F20B8354EA050326F0D5
S2140813F0800600F0DE80002D08BF0A2CC0F0DE80D4
S2140814005746204629460A22002302F021FA30329F
S21408141007F8012D2046294600230A2202F018FA6A
S21408142004460D4654EA0503EBD1C7EB0A030393BB
S214081430A2E600BFC43B0800E03B0800A03B08004B
S2140814400694002940F0388446F0100616F020036B
S21408145000F0A1824FF00002049B8DF82F2007337E
S21408146023F0070303F10802D3E90045019B049221
S214081470002B0ADB54EA050326F0800605D1019BFB
S214081480002B00F02784002400254FF0000957465B
S214081490E20842EA4572E90804F007030D461446D6
S2140814A0303354EA050207F8013DF1D1F407BCD5FC
S2140814B0302BBAD030227B1E07F8012CC3EB0A0269
S2140814C003921F4658E6A3F13002002418F8013BA1
S2140814D004EB840402EB4404A3F13002092AF5D98C
S2140814E08DE598F8003001212B2086E598F8003025
S2140814F008F101052A2B00F0CC83A3F13002092A53
S214081500A84698BF002500F2B58318F8013B05EBFE
S214081510850502EB4505A3F13002092AF5D945EA07
S214081520E57201926BE5069400298FD08DF82F009E
S2140815308CE74FF00003049A069417688DF82F304E
S214081540141D019B002F00F07F83002BC0F25383ED
S2140815501A460021384601F04DFC002800F08E831C
S214081560C31B0393002304949DF82F90019303E66E
S2140815700694002940F09D8316F0200934D116F011
S214081580100303D116F0400940F01F83049A002583
S21408159013461468019A8DF82F90002A03F1040365
S2140815A0C0F2278354EA050226F0800604937FF4E7
S2140815B022AF019B002B3FF4DBAD00242AAF30346A
S2140815C007F8414DC7EB0A030393D5E546F0200616
S2140815D098F8003011E50694002940F0758346F027
S2140815E0100616F02009CAD04FF00002049B8DF8AA
S2140815F02F20073323F0070303F10802D3E9004539
S214081600019B0492002BC0F2F98154EA050326F0E8
S21408161080064FF000097FF4EEAECAE7069400296C
S21408162040F05583B206B24841D5049A073222F0F4
S214081630070202F108010491D2E9004516F00109F3
S21408164000F07E8154EA050240F02B824FF000033A
S2140816508DF82F30019B002BC0F2F38226F080060F
S21408166081E5049A4FF00001136801258DF8403093
S2140816701346043306948DF82F100493039510AF81
S2140816800023019382E598F8003000287FF4B5AC73
S21408169001212020B1E446F0010698F80030ACE4B9
S2140816A00694002940F02A83B2069248BDD40499CD
S2140816B0F7060A4600F19D81750640F19A810432C4
S2140816C00C8804920025B9E746F0400698F80030E2
S2140816D093E498F800306C2B03BF98F8013046F076
S2140816E0200608F1010846F0100686E4002940F0B6
S2140816F00283B40640F12082049A13460433049306
S214081700029B1168DD171A462B46C1E900233EE402
S214081710069400293FF451AE8DF82F004DE6069446
S214081720002940F0E582002B00F094808DF84030C8
S2140817304FF0000301258DF82F30039510AF9FE773
S2140817400DAA009948460993FFF7B4FB002840F015
S21408175088800E98D4460F9A00F1010E099B3AE548
S2140817600DAA00990598FFF7A5FB002879D1D3465E
S2140817700E989DF82F300F9A00F1010E002B3FF4BB
S21408178059AD01320DF12F010123BEF1070F0F925B
S214081790CDF838E08BE80A0040F3C080002A40F015
S2140817A04D810799002940F0BF809E461046D346D3
S2140817B0089B802B3FF459AD019B03995C1A002CBB
S2140817C07FF79CAD102CDFF8309125DDDC46102322
S2140817D0C346A8464D46DDF8149007E000F1020E11
S2140817E008460CF1080C103C102C11DD411C103278
S2140817F007290F92CCF80050CCF804300E91EDDD96
S214081800D2B9103C102C4FF0010E1046D446EDDC31
S214081810A9464546D846E3462244BEF1070F0F922E
S214081820CBF80090CBF80440CDF838E02EDC0BF16E
S214081830080B0EF1010E61E50DAA009948460193C2
S214081840FFF738FB68B90E98D4460F9A00F1010ED8
S214081850019BC8E70F9B23B105980DAA0099FFF7CF
S21408186029FB009B9B895A0600F17B8102982BB0C6
S214081870BDE8F08F0DAA00994846FFF71BFB002825
S214081880EFD10E99D3460F9A481C5EE5002A40F021
S214081890FA80D346039A01231B920F921A970E9347
S2140818A00BF1080B710704D5069B5C1B002C3FF751
S2140818B03DAD029B0699A942ACBF5B185B19029323
S2140818C0002A40F0AD8000230E93D346FFF75FBB97
S2140818D00DAA009948460793FFF7ECFA0028C0D1EE
S2140818E00E98D6460F9A00F1010C079BD4E400BF69
S2140818F0B03B0800C43B0800A03B0800002A7FF461
S2140819002FAF9DF82F30002B00F0F38001231A46E6
S2140819109E46D3460DF12F011B931A9170460BF184
S214081920080B0EF1010E85E49E46D3460CA902224A
S2140819301A911B9270460BF1080B0EF1010E37E751
S214081940019B8DF82F90002BC0F21B8154EA0503EB
S21408195026F080063FF407AC5746230943EA05738A
S214081960290904F00F020D461C46835C07F8013D62
S21408197054EA0503F1D1C7EB0A030393FFF7FCBB50
S2140819800DAA00990598FFF795FA00287FF469AF25
S214081990D3460F9A86E716F0100200F0B580049931
S2140819A08DF82F300A460C680199043200294FF04A
S2140819B00005C0F2528154EA050126F0800604921A
S2140819C03FF45DAD994662E5049AF706134609D4D6
S2140819D0750607D5B2F900400433E5170493224686
S2140819E02B46F7E41C680433E517049322462B4677
S2140819F0F0E414680432049200251FE64FF000094C
S214081A0054EA05037FF4F7ACD8E50DAA00990598C3
S214081A10FFF750FA00287FF424AFD346FFF751BBF0
S214081A200DAA00990598FFF745FA00283FF44BAF32
S214081A3017E7002400254FF000098DE70DAA009946
S214081A400598FFF737FA00287FF40BAF0E98D346B1
S214081A500F9A00F1010EFFF7EDBB0DAA0099059845
S214081A60FFF728FA00287FF4FCAE0E98D3460F9AA4
S214081A7000F1010E9CE6002A40F0C8804FF0010EE7
S214081A801046D34698E60DAA00990598FFF712FA6D
S214081A9000287FF4E6AE0E9BD3460F9A03F1010E9C
S214081AA02CE48DF831304FF0000330228DF83020CA
S214081AB0019A8DF82F30002A46F00203C0F2BB8048
S214081AC026F0800646F002064FF0000944E74FF07D
S214081AD000098C4840E7019B64424FF02D0965EBEE
S214081AE04505002B8DF82F90FFF685AC26F080066E
S214081AF081E4079B002B63D00CAB02221A931B923F
S214081B004FF0010ED34615E716F040093BD004996E
S214081B108DF82F200B460C880199043300294FF0C6
S214081B200005C0F28C8054EA050126F0800604936E
S214081B303FF4A5AC9146AAE4F0060AD4710608D587
S214081B40049A136804320492BDF808201A80FFF736
S214081B501EBA049A136804320492029A1A60FFF7AF
S214081B6016BA4FF0FF30FFF7C9BA1646654854EA6A
S214081B70050204934FF000097FF4EEAE002400251A
S214081B80EAE6049BF3E7049A8DF82F901346146848
S214081B90019A0433002A4FF0000550DB54EA050288
S214081BA026F0800604937FF472AC68E40DAA0099C8
S214081BB00598FFF77FF900287FF453AE0F9A78E66A
S214081BC010464FF0010ED346F6E504998DF82F30EF
S214081BD00A460C880199043200294FF0000555DBA7
S214081BE054EA050126F08006049299467FF403AC71
S214081BF0DFE4049304E73846049401F05FFC00230E
S214081C0003909DF82F900193FFF7B6BA0DAA009996
S214081C100598FFF74FF900287FF423AE0E98D346B1
S214081C200F9A00F1010EC7E50E980F9A0130DFF8FB
S214081C30DC90FFF7ECBA1E464FF000098CE60493DA
S214081C4023E44FF0000999E7062B28BF06230393E1
S214081C50049423EAE3752C4F12E5049215E40E98D3
S214081C60DFF8A8900130FFF788BBF446DFF8A090AD
S214081C70FFF72DBB00220192FFF7C1B9019B049420
S214081C80039301909DF82F90FFF776BA0492994631
S214081C90B6E6049A13680432002B0193049298F867
S214081CA00130A846BFF6A9A94FF0FF320192FFF708
S214081CB0A4B98DF82F005FE48DF82F00FFF7C4BB9A
S214081CC08DF82F00FFF777BB8DF82F0087E48DF887
S214081CD02F00A7E49946F30705D52AAF302307F85F
S214081CE0413DFFF7A2BB019B57460393FFF744BA53
S214081CF08DF82F0017E58DF82F00FAE48DF82F00E1
S214081D00D2E400BFC43B0800D83B0800E03B08000C
S214081D10A03B0800F0B50C468989ADF26C4D656E9F
S214081D2021F00201666AADF80C10E169E789199599
S214081D3000250791099606951AAE4FF48065694600
S214081D400096049602950595ADF80E700646FFF7C0
S214081D50EDF8051E07DB3046694600F029F900282D
S214081D6018BF4FF0FF35BDF80C305B0603D5A389C6
S214081D7043F04003A38128460DF26C4DF0BD00BF2A
S214081D8038B5304B054618680C4610B1836B002BE7
S214081D9038D0B4F90C2093B218070CD52069A8B12E
S214081DA013F001021ED0636900225B42A361A260A1
S214081DB0F0B1002038BDD9063BD5580725D4206990
S214081DC042F00803A3819BB20028E9D103F42072ED
S214081DD0B2F5007FE4D02846214600F013FDA3891B
S214081DE02069DDE7990758BF6269A2600028E0D13C
S214081DF0B4F90C301A06DDD543F04003A3814FF042
S214081E00FF3038BD00F068F9C3E7216B51B104F123
S214081E104003994204D0284600F026FAB4F90C206C
S214081E20002323632069002322F0240284E80900A3
S214081E30C6E742F0400209232B604FF0FF30A2812C
S214081E4038BD00BF58050720024B13B1024800F002
S214081E5005B8704700000000ED2008000023014682
S214081E601A46184601F0FCBBB1F90C302DE9F041D2
S214081E709AB20D46110780463CD46A6843F400635C
S214081E80002AAB8173DDAC6A002C4BD09BB203F4FE
S214081E908052002192B2D8F80060C8F80010002AD4
S214081EA069D02A6D5F0705D569682B6B521A0BB186
S214081EB0EB6BD21A0023E9694046A047441C3CD085
S214081EC0B5F90C30296923F400630022AB81DB04E2
S214081ED085E8060049D4296BC8F8006011B305F1F7
S214081EE04003994202D0404600F0BEF9002028631D
S214081EF0BDE8F0812E69AEB190072C680CBF6B69FF
S214081F0000232E60A41BAB600AE0234632466F6AA5
S214081F10E9694046B8470028A4EB0004064404DDF7
S214081F20002CF2DC0020BDE8F081AB894FF0FF30D2
S214081F3043F04003AB81BDE8F081D8F800201D2AA5
S214081F40F3D81A4BD34003F0010383F00104002BA7
S214081F50EBD0B5F90C30296923F400632960D9045D
S214081F606C60AB81B7D5002AB5D12865B3E7EA6BB4
S214081F70002A88DCD6E70123E9694046A047431CC7
S214081F80024602D0AB89AC6A8CE7D8F80030002B42
S214081F90F8D01D2B01D0162B02D1C8F80060C1E777
S214081FA0AB8943F04003AB81BDE8F08101004020D7
S214081FB010B5044682B008B1836B53B1B1F90C0072
S214081FC008B902B010BD204602B0BDE81040FFF7C1
S214081FD04BBF019100F080F80199EFE7014900F046
S214081FE0AFBB00BF293708002DE9F04F0746354834
S214081FF07D68002407F53B7204230321F863C7F8BD
S214082000E412C7F8E822C7F8E04283B02C606C6098
S214082010AC606C66EC812C616C61AC61AB8121466E
S21408202005F15C000822FEF747FEDFF89CB0BE68A4
S214082030DFF898A0DFF89890DFF898800123092247
S214082040C5F820B0C5F824A0C5F82890C5F82C8097
S214082050ED612146F381B28106F15C00346074605C
S214082060B460746634617461B46108220193FEF743
S21408207023FEFD6812200222F661C6F820B0C6F8D4
S21408208024A0C6F82890C6F82C802146A881EA81A4
S2140820902C606C60AC606C662C616C61AC6105F1A0
S2140820A05C000822FEF708FE019BED61C5F820B02B
S2140820B0C5F824A0C5F82890C5F82C80BB6303B0E3
S2140820C0BDE8F08FDD1F08003534080059340800D5
S2140820D095340800B5340800836B03B17047FFF7E2
S2140820E083BF00BF704700BF704700BF38B5074DB5
S2140820F0074C2C1BA41005D0013C55F8043D984706
S214082100002CF9D1BDE8384001F07CBD143C08002D
S214082110103C08002DE9F04182B006460F461446EA
S21408212000F03AFB012832D004F15C033A4601A9D4
S214082130304601F047FAB0F1FF3F804620D070B332
S2140821409DF80410002508E023685A1C22601970C0
S2140821500135454523D201AB595DA368013B002BE9
S214082160A360F1DAA269934201DB0A29ECD1224680
S214082170304601F0D1F9431CEAD102B0BDE8F0813F
S214082180A38943F04003A38102B0BDE8F0817B1E1B
S214082190FE2BC9D8F9B280468DF80410D2E7384627
S2140821A002B0BDE8F08100BFB2F90C3013F4005F4E
S2140821B00AD110B4546E43F4005344F400545466E1
S2140821C0938110BCFFF7A6BFFFF7A4BFF8B50C466F
S2140821D0224F064600F02EFFBB685D6825F0030513
S2140821E0291B01F6EF7121F47F6121F00F01A1F59B
S2140821F08054B4F5805F07DB0021304601F008F90B
S214082200BB682B44984204D0304600F015FF0020E7
S214082210F8BD6142304601F0FBF801300DD0104B96
S214082220BA6819682D1B45F001053046091B55602C
S214082230196000F001FF0120F8BD0021304601F0CA
S214082240E7F8BA68831A0F2BDEDD064C04492468C3
S21408225043F00103001B53600860D5E7800507209C
S214082260540A07208C090720002945D02DE9F0419B
S2140822700D46804600F0DEFE55F8047C6A49A5F156
S214082280080427F00103E2188E685068B24220F06E
S214082290030062D0FE0750600BD455F8087C01F1A5
S2140822A0080EE41BA5683B4475456FD0E768EF60E9
S2140822B0BD6015186D68ED0742D543F001026260EF
S2140822C0E350B3F5007F18D2DB0848689D1001225A
S2140822D0013351F8337002FA05F501EBC3022843BF
S2140822E0083AE260A760486041F83340FC60404620
S2140822F0BDE8F04100F0A0BE70475A0A042A53D839
S2140823009A0902F139077F0002F1380501EB8700C8
S21408231051F827200838904243494DD0516821F09B
S21408232003018B4202D292689042F7D1D068E060EF
S214082330A2608460D4604046BDE8F04100F07CBEF0
S21408234095683A4F0344BD423FD0D06843F0010237
S214082350E86085606260E350B3E7FF07034407D48C
S21408236055F8085C641BE268A0682B44C26090605D
S2140823702F4A43F001001268606093428C60B6D31F
S2140823802C4B40461968FFF721FFB0E7111849683B
S214082390C90744D491680344D26843F00100CA6070
S2140823A091606060E350A2E7142A17D802F15C0730
S2140823B07F0002F15B05A9E7AA104B68012505FA1C
S2140823C002F213434B600246B1E743F001024C6148
S2140823D00C61E560A5606260E35088E7542A06D879
S2140823E01A0B02F16F077F0002F16E058EE7B2F551
S2140823F0AA7F06D8DA0B02F178077F0002F1770584
S21408240084E740F25450824206D89A0C02F17D07BF
S2140824107F0002F17C0579E7FE277E2576E743F004
S21408242001026260E35062E78005072088050720FE
S21408243088090720500A07209368002B00F0AB8015
S2140824402DE9F04F8B8985B00C4619070290164681
S21408245028D5226932B303F002081FFA88F03568D7
S21408246078B34FF00009C846DFF8D0A2B8F1000FDD
S21408247000F08B80D04543464A4628BF5346E1695C
S2140824800298676AB847002840F3A580B368814475
S2140824901B1AC0EB0808B360002BE7D1002005B074
S2140824A0BDE8F08F21460298FFF76AFC002840F046
S2140824B03C81A389356803F002081FFA88F00028D3
S2140824C0CFD113F0010940F090804F460196002FB7
S2140824D056D09A05D4F808805FD54745C246C0F05E
S2140824E0BF8013F4906F00F0BD8062692068216990
S2140824F002EB4208C1EB000A08EBD8780AF10100A3
S2140825004FEA680838444045424684BF80464246FB
S2140825105B0540F1F2801146029800F0BFF9834649
S214082520002800F005815246216900F0A9FCA3891D
S21408253023F4906343F08003A381CAEB08030BEBF4
S2140825400A00C4F81480BA46B846C4F810B020602A
S214082550A3605246494600F009FDA0682368C8EB08
S2140825600000A060384653442360019A814493686B
S2140825703F1A1B1A9360002B90D0A389002FA8D16E
S214082580D5F800906F680835A1E7D5F80090D5F81B
S214082590048008356AE70020704720682369984257
S2140825A003D86269974280F08380B84528BFB8464A
S2140825B04946424600F0DAFCA3682268C8EB0303E3
S2140825C04244A3602260002B48D121460298FFF7B8
S2140825D0EFFC002842D0B4F90C3043F040034FF02B
S2140825E0FF30A38105B0BDE8F08F8046824681465D
S2140825F00190B9F1000F29D0019B002B4BD0C8459C
S214082600C34628BFCB46206823695F46984262695E
S21408261003D9A36813449B455CDC934524DB134627
S214082620676A5246E1690298B847071ED3DDB8EBD9
S214082630070827D0B368BA44DB1BC7EB0909B360A1
S214082640002B3FF42BAFB9F1000FD5D10023D5F8F6
S21408265000A0D5F8049001930835CAE7404684E7F9
S214082660B846BA46206874E75A46514600F07EFCDB
S214082670A2682368CBEB02025B44B8EB0708A260AB
S2140826802360D7D121460298FFF792FC0028A2D1F2
S214082690CDF80480CEE74A460A21504600F0AAFB49
S2140826A000283DD001300123CAEB00080193A6E7B5
S2140826B06FF00043BB4228BF3B4693FBF2F3E16949
S2140826C002FB03F302984A46666AB04700283FF7BB
S2140826D04CAF80E71A465146039300F047FC226841
S2140826E0039B21461A4422600298FFF761FC039B6D
S2140826F000287FF470AF1F4699E7029800F09EFC0A
S214082700834600287FF419AF029D21692846FFF703
S214082710ABFDB4F90C300C2223F080032A605CE78A
S214082720012309F10108019369E74FF0FF30B6E687
S214082730029A0C231360B4F90C304EE700FCFF7FB6
S2140827402DE9F84310F538761ED0884607464FF030
S21408275000097568B468013D10D4A389013D012BB2
S21408276008D9B4F90E30013304D021463846C0479C
S21408277049EA00096B1C04F16804EED13668002E9D
S214082780E7D14846BDE8F883B1464846BDE8F88331
S214082790004870475C050720014B1868704700BF63
S2140827A07C05072070B50E46B1F90E1090B00029CA
S2140827B014461D4614DB01AA00F0F8FF00280FDBBC
S2140827C0029A4FF4806302F47042A2F50052B2FAFD
S2140827D082F24FF4006052092A60236010B070BD80
S2140827E0B289002002F0800292B228601AB1402313
S2140827F0236010B070BD10464FF48063236010B09D
S21408280070BD00BF8A890B46920706D501F14302C0
S21408281001211A601A6159617047F0B583B001AB9F
S2140828206A460C460546FFF7BDFF00990646284649
S21408283000F034F8B4F90C30D0B19DE80600124F19
S21408284043F08003EF63A3812060206161611AB9B9
S2140828503343A38103B0F0BD2846B4F90E1000F048
S214082860B9FFB4F90C300028F2D043F00103EFE7C3
S2140828709A05EFD404F1430243F002030121A38131
S214082880226022616161E5E7DD1F0800024B014610
S214082890186800F003B800BF580507202DE9F04F68
S2140828A001F10B05162D83B0064640F2A08035F0E0
S2140828B0070500F1C080A94200F2BD8000F0BAFB0F
S2140828C0B5F5FC7FC0F090826B0A00F0BB80042B45
S2140828D000F27781A80900F1390E4FEA4E01383028
S2140828E0BE4F07EB81014C680839A14207D1AEE01C
S2140828F0002A80F2AE80E468A14200F0A8806368EF
S21408290023F003035A1B0F2AF2DDB4493C6901F190
S214082910080E744500F0A881636823F003035A1B69
S2140829200F2A00F38E81002AC1F814E0C1F810E0DF
S21408293080F29380B3F5007F80F05C81DB084A68FC
S2140829404FEAA3094FF0010C013351F833800CFA13
S21408295009F901EBC30C49EA0202ACF1080CC4F809
S2140829600CC0C4F808804A6041F83340C8F80C40E8
S214082970831001249C4094427CD8144206D120F04F
S21408298003006400144200F10400FAD007EBC00903
S214082990CC468046DCF80C108C4507D166E1002A48
S2140829A080F27481C9688C4500F060814B6823F01A
S2140829B003035A1B0F2AF2DD0C46CB6854F808CFDF
S2140829C045F00108C1F804800D4442F00101CCF836
S2140829D00C303046C3F808C07D613D61C5F80CE090
S2140829E0C5F808E06960AA5000F026FB1FE0102929
S2140829F021D800F01FFB102506230220774F07EB8F
S214082A0083035C68A3F10802944200F03881636887
S214082A10E16823F0030323445A68A56842F00102DC
S214082A20E96030468D605A6000F006FB08342046A0
S214082A3003B0BDE8F08F002420460C23336003B0B3
S214082A40BDE8F08F80214FF0400E3F2048E77046E3
S214082A505BE723445A68E168DFE723445A68304650
S214082A6042F001025A60083400F0E6FA204603B045
S214082A70BDE8F08FBC68636823F00308A84504D354
S214082A80C5EB08030F2B00F38C80554BDFF86091DD
S214082A901A68D9F800302A44013304EB080A00F013
S214082AA0608102F580520F3222F47F6222F00F0214
S214082AB011463046019200F0ABFCB0F1FF3F83466A
S214082AC0019A00F05881824500F2FC80454BDA45B1
S214082AD019681144196000F05381D9F80000DFF82E
S214082AE010E101301BBFCAEB0B0A5144CEF800B008
S214082AF019601BF0070100F01781C1F10800C1F545
S214082B008051834408315A44C2F30B02C2EB0109D0
S214082B1049463046019300F07BFC431C019B00F0BD
S214082B203F81CBEB00024A4442F001021968BC42DE
S214082B304944C7F808B01960CBF80420DFF8A49019
S214082B4016D0B8F10F0F40F2FD806268A8F10C03AA
S214082B5023F0070302F00102E0184FF0050E1A43AF
S214082B600F2B6260C0F804E0C0F808E000F21C8191
S214082B701D4BBC681A68914288BF19601B4B1A68BF
S214082B809142626888BF196022F003029542A2EB60
S214082B90050301D80F2B04DC304600F04DFA00245C
S214082BA045E745F0010243F00103254462603046DC
S214082BB0BD6008346B6000F03FFA204603B0BDE8FD
S214082BC0F08F142B71D9542B00F2A480280B00F137
S214082BD06F0E4FEA4E016E3082E600BF8005072072
S214082BE0500A0720540A07204C0A0720480A0720DC
S214082BF08C0907205A0A042A5ED9142A00F2B380E0
S214082C0002F15C0149005B3207EB810C57F8211092
S214082C10ACF1080C8C45DFF8D88100F088804A684B
S214082C2022F00302934202D289688C45F7D1D1F884
S214082C300CC07A68C4F80CC0A160CCF80840CC6018
S214082C4096E645F0010742F00103254467603046E2
S214082C504D610D61C5F80CE0C5F808E06B60AA5038
S214082C60083400F0E9F9E2E64A6881E608F1010866
S214082C7018F0030F0CF1080C7FF48CAE30E0DC681B
S214082C80A34208BF02303FF440AEC0E60C460B44F1
S214082C905A68C96854F8085F42F001025A6030461C
S214082CA0E9608D6000F0C8F9C1E603F15C0E03F137
S214082CB05B004FEA4E0113E69A0902F13901490012
S214082CC03832A1E7BC424A4B3FF400AF9C686268C2
S214082CD022F003025AE759F80839994540F08280ED
S214082CE010F0030F00F1FF30F5D17B6823EA0403E8
S214082CF07B6064009C423FF6BDAE002C3FF4BAAE43
S214082D001C4240467FF442AE64001C4200F10400B8
S214082D10FAD03BE6B3F5AA7F18D8E80B00F1780E90
S214082D204FEA4E017730DBE54FF48051EBE60121A0
S214082D30D8F80430921001FA02F21A43C8F80420B0
S214082D40614677E70123CBF8043025E740F2545272
S214082D50934220D8A80C00F17D0E4FEA4E017C3035
S214082D60BEE51032A4E6542A26D81A0B02F16F01E3
S214082D7049006E3248E7BC68626822F0030205E73D
S214082D80CAF30B0000287FF4A8AE4244BB6842F0A2
S214082D9001025A60ECE6FE214FF07F0E7E209FE58A
S214082DA001224FF00009C1E604F108013046FFF79A
S214082DB05BFAD9F80010DBE6B2F5AA7F05D8DA0B7D
S214082DC002F17801490077321EE740F254518A42F0
S214082DD005D89A0C02F17D0149007C3214E7FE21E1
S214082DE07E2211E77B6884E7E808431C5B0005E65B
S214082DF080050720830770B4CDB23DD0531E02B3BA
S214082E000278AA421ED0421C04E0D3B10478013BE3
S214082E10AC4217D012F0030F104602F10102F4D1AB
S214082E20032B11D853B30278AA420BD00344421C92
S214082E3002E00178A94205D09342104602F1010249
S214082E40F7D1002070BC704704460E0206F47F4691
S214082E502E4346EA0646226820467240A2F1013111
S214082E6021EA020212F0803F04F10404DBD1043B9D
S214082E70032B2046EFD8D5E71346D1E71846E1E7F7
S214082E80844641EA000313F0030349D1403A23D3AA
S214082E900B6803604B6843608B688360CB68C360CD
S214082EA00B6903614B6943618B698361CB69C361B5
S214082EB00B6A03624B6A43628B6A8362CB6AC3629D
S214082EC00B6B03634B6B43638B6B8363CB6BC36385
S214082ED040304031403ADBD230320BD30B680360C7
S214082EE04B6843608B688360CB68C36010301031D2
S214082EF0103AF3D20C3205D351F8043B40F8043BA1
S214082F00043AF9D2043208D0D2071CBF11F8013BA4
S214082F1000F8013B01D30B8803806046704700BF6A
S214082F20082A13D38B07B1D010F00303AED0C3F131
S214082F300403D21ADB071CBF11F8013B00F8013B5B
S214082F40A4D331F8023B20F8023B9FE7043AD9D3D2
S214082F50013A11F8013B00F8013BF9D20B780370EF
S214082F604B7843708B788370604670478842F0B51C
S214082F700DD98B1898420AD28118002A51D09A1A6D
S214082F8013F8014D934201F8014DF9D1F0BD0F2A0F
S214082F9048D941EA00039B0746D1154600F11004BC
S214082FA001F1100353F8106C103D44F8106C53F8F8
S214082FB00C6C0F2D44F80C6C53F8086C04F11004D4
S214082FC044F8186C53F8046C03F1100344F8146CB6
S214082FD0E8D8A2F1100323F00F0302F00F0E103307
S214082FE0BEF1030F1944034421D90E4674461D1F2B
S214082FF056F8047B043C032C45F8047FF8D8AEF159
S214083000040424F0030404342344214402F0030295
S21408301062B1013B0A4411F8014B8A4203F8014F9A
S214083020F9D1F0BD0346F3E70346F2E7F0BD724672
S214083030EEE700BF704700BF704700BF2DE9F04FAE
S214083040174683B0002900F08F800D46814607F1A9
S2140830500B04FFF7EFFF55F804EC162C2EF00306CA
S214083060A5F108083CD810221446A7423DD8964237
S21408307042DAC64B08EB060099688842416800F0B9
S214083080D78021F0010303445B68DB074CD51EF0AC
S214083090010F00F09D8039464846FFF7FFFB0746BC
S2140830A000283AD055F8043CA0F1080223F00103A2
S2140830B043449A4200F03E81321F242A00F22B81B4
S2140830C0132A00F2FF8003462A46116819605168E1
S2140830D0596092689A6029464846FFF7C5F81CE08A
S2140830E024F00704002C2246BFDA0C230020C9F877
S2140830F0003003B0BDE8F08F2F46331B0F2BD8F8EF
S21408310004201DD802F00102324308EB0601C8F875
S21408311004204B6843F001034B604846FFF78CFFDA
S214083120384603B0BDE8F08F21F0030131449142E0
S21408313020DBC36882682F46D3600E469A60DCE7B9
S21408314002F0010208EB0401144343F00102C8F838
S21408315004400B444A605A68083142F001025A603B
S2140831604846FFF781F8D8E7114603B0BDE8F04FA8
S214083170FFF794BB1EF0010F8DD155F8083CC3EB42
S214083180080ADAF8043023F0030C01EB0C0E964517
S21408319026DB5746C3688168321FCB60996057F8AC
S2140831A0081FDAF80C30242ACB60996000F2C98030
S2140831B0132A40F292802B681B2ACAF808306B68DC
S2140831C0CAF80C3000F2CD8008350AF1100385E005
S2140831D055F8083CC3EB080ADAF8043023F0030C69
S2140831E006EB0C039342FFF656AF5746DAF80C1078
S2140831F057F8080F321F242AC160886000F2AA8098
S214083200132A40F2A58029681B2ACAF8081069689C
S214083210CAF80C1000F2BC8008350AF110022968BA
S2140832201E4611606968D0465160AB68936064E7D3
S21408323021F0030B04F11000B344834557DA1EF05F
S214083240010F7FF428AF55F8081CC1EB080ADAF816
S214083250041021F0030CE3445845C1DC5746DAF85D
S2140832600C1057F8080F321F242AC160886000F235
S214083270B180132A40F2A28029681B2ACAF80810CF
S2140832806968CAF80C1000F2AC8008350AF110021A
S2140832902968116069685160A9689160C4EB0B02DF
S2140832A00AEB040142F0010299604A60DAF8043039
S2140832B0484603F001031C43CAF80440FFF7BCFE67
S2140832C038462EE72B681B2A03606B68436026D8AF
S2140832D000F1080305F10802F7E63B462A68764639
S2140832E01A606A68D0465A60AA689A6005E7C4EB0E
S2140832F00B0B08EB04014BF0010299604A6055F885
S214083300043C484603F001031C4345F8044CFFF709
S21408331093FE284605E72946FFF728FEDBE6AB6856
S214083320242A8360EB68C36027D000F1100305F1F8
S2140833301002CAE650F8043C2F4623F003031E4446
S214083340DBE6294638467646D046FFF70FFED4E633
S2140833503A4664E7294638461E46D046FFF706FE34
S214083360CBE6AB68242ACAF81030EB68CAF81430E3
S2140833701AD010350AF11803B0E72A6900F11803C5
S2140833800261696905F1180241619EE68005072019
S214083390A968242ACAF81010E968CAF814100FD0C9
S2140833A010350AF118023AE72A690AF12003CAF822
S2140833B018206A691835CAF81C208FE73A4667E766
S2140833C029690AF12002CAF8181069691835CAF876
S2140833D01C1024E7294638460193FFF7C7FD019BD2
S2140833E05CE7A968242ACAF81010E968CAF8141015
S2140833F003D010350AF118024AE729690AF12002B3
S214083400CAF8181069691835CAF81C1040E700BFD2
S21408341038B5074C0023054608462360FDF78AFAA8
S214083420431C00D038BD2368002BFBD02B6038BD6A
S214083430880A072010B50C46B1F90E1000F0F2F90C
S214083440002803DB236D0344236510BDA38923F4FA
S2140834508053A38110BD00BF2DE9F0410C46B1F999
S2140834600C101F46CB051646054607D5B4F90E10B0
S2140834700223002200F0C0F9B4F90C1021F48051A0
S214083480A1813B463246B4F90E102846BDE8F04105
S21408349000F0D0B810B50C46B1F90E1000F0ACF933
S2140834A0A389421C0EBF23F4805343F4805320653F
S2140834B0A38110BDB1F90E1000F024B920F0030165
S2140834C010F00300C0F1000051F8043B00F1040CB2
S2140834D04FEACC0C6FF000021CBF22FA0CF2134322
S2140834E04FF0010C4CEA0C2C4CEA0C4CA3EB0C02EB
S2140834F022EA030212EACC1204BF51F8043B043055
S214083500F4D0C2F1000102EA0102B2FA82F2C2F174
S2140835101F0200EBD2007047F8B50E461446074661
S21408352010B1836B002B4AD0B4F90C20A36991B272
S2140835300807A36038D52369002B35D08904F5B26F
S21408354015D522686169D31A8B421CDA0133A16843
S214083550501C0139A1602060167062699A421AD020
S214083560A389DB0701D50A2D15D02846F8BD616E5C
S21408357042F4005221F40051A28122686166616912
S214083580D31A8B42E2DB21463846FEF711FD40B9D6
S21408359022680123DBE721463846FEF709FD0028A6
S2140835A0E3D04FF0FF30F8BD21463846FEF7E8FB7B
S2140835B00028F6D1B4F90C20236991B2BEE7FEF7CD
S2140835C08BFDB1E72DE9F041054686B01E460C4650
S2140835D0A1B1104B1746D3F80080FFF7D9F800962C
S2140835E003463A4621462846C047431C03D10022D4
S2140835F08A2332602B6006B0BDE8F081054B1F6851
S214083600FFF7C6F800960346224603A92846B84799
S214083610EBE700BF9009072021B1FF2A04D80A70FB
S21408362001207047084670478A2303604FF0FF3032
S214083630704700BF70B50D46084C114606461A4638
S214083640284600232360FCF7D3FD431C00D070BD3A
S2140836502368002BFBD0336070BD00BF880A0720A4
S2140836602DE9F047254C064625688846D5F8484192
S21408367092469946C4B360681F2817DC411C76B189
S21408368004EB8003C3F888A0D4F88851012282404E
S2140836901543022EC4F88851C3F808911ED0831C1F
S2140836A06160002044F82380BDE8F087144B03B31C
S2140836B04FF4C870FFF7EAF80446D0B1D5F8483199
S2140836C0002784E888003846C5F848410121C4F830
S2140836D08871C4F88C71002EE1D0D1E7D4F88C310B
S2140836E01A43C4F88C21DAE705F5A674C5F84841EC
S2140836F0C1E74FF0FF30BDE8F08700BF9C3B0800ED
S2140837008D28080038B5074C002305460846236070
S214083710FDF72AF9431C00D038BD2368002BFBD0E0
S2140837202B6038BD880A072000293DD070B50546AD
S2140837300C4608B1836B7BB3B4F90C300BB9002088
S21408374070BD21462846FEF78FFBE36A064633B16E
S214083750E169284698470028B8BF4FF0FF36A38986
S2140837601B061CD4216B41B104F14003994202D0D8
S2140837702846FEF779FD00232363616C21B12846AD
S214083780FEF772FD00236364FEF7ACFC0023A381FA
S214083790FEF7AAFC304670BDFEF79EFCCCE7216912
S2140837A02846FEF761FDDDE70020704738B50B4672
S2140837B0074C05461146184600232360FDF7D8F83F
S2140837C0431C00D038BD2368002BFBD02B6038BDC7
S2140837D0880A072038B5074C0023054608462360A4
S2140837E0FDF7CCF8431C00D038BD2368002BFBD06F
S2140837F02B6038BD880A072070B50D46084C114660
S21408380006461A46284600232360FDF7B9F8431CE7
S21408381000D070BD2368002BFBD0336070BD00BF9E
S214083820880A072070B50D46084C114606461A4603
S214083830284600232360FCF7BDFC431C00D070BD5F
S2140838402368002BFBD0336070BD00BF880A0720B2
S21408385053B94AB9002908BF00281CBF4FF0FF31EA
S2140838604FF0FF3000F082B9ADF1080C6DE904CED8
S21408387000F006F8DDF804E0DDE9022304B070473E
S2140838802DE9F04F8C460C460546099E002B4FD175
S2140838908A4217466BD9B2FA82FEBEF1000F0BD0E9
S2140838A0CEF1200520FA05F501FA0EF345EA030CD9
S2140838B002FA0EF700FA0EF5390CBCFBF1F0BAB2B4
S2140838C001FB10C300FB02F84FEA154C4CEA034410
S2140838D0A04509D9E41900F1FF3380F02881A045F6
S2140838E040F2258102383C44C8EB0404B4FBF1F3EB
S2140838F001FB134C03FB02F2ACB244EA0C418A42C9
S21408390009D9C91903F1FF3480F00F818A4240F2C1
S2140839100C81023B39448A1A43EA00400021002EF3
S21408392063D022FA0EF2002386E80C00BDE8F08F7A
S2140839308B4207D9002E56D0002186E8110008468B
S214083940BDE8F08FB3FA83F1002940F09380A342D4
S21408395002D3824200F2FE80851A64EB03039C467B
S2140839600120002E41D086E82010BDE8F08F12B95D
S2140839700127B7FBF2F7B7FA87FEBEF1000F36D17C
S214083980E41B4FEA17481FFA87F90121B4FBF8F33E
S21408399008FB134409FB03F24FEA154C4CEA0444AF
S2140839A0A24207D9E41903F1FF3002D2A24200F27C
S2140839B0D3800346A41AB4FBF8F008FB104809FBAA
S2140839C000F9ACB244EA0842914507D9D21900F189
S2140839D0FF3402D2914500F2BA802046C9EB0202B3
S2140839E040EA03409BE731463046BDE8F08F07FAC9
S2140839F00EF7CEF1200C24FA0CF34FEA1748B3FB67
S214083A00F8FA1FFA87F908FB1A3520FA0CFC04FAAC
S214083A100EF40AFB09FB4CEA040C4FEA1C4242EA85
S214083A2005439B4500FA0EF50AD9DB190AF1FF3261
S214083A3080F08B809B4540F28880AAF1020A3B44BE
S214083A40CBEB0303B3FBF8F008FB103300FB09F4D9
S214083A501FFA8CFC4CEA03439C4207D9DB1900F199
S214083A60FF326ED29C426CD902383B441C1B40EA9B
S214083A700A418BE7C1F1200E8B4022FA0EFC4CEA75
S214083A80030C24FA0EF74FEA1C49B7FBF9FA1FFA9B
S214083A908CF309FB1A7720FA0EF88C400AFB03F51C
S214083AA048EA04044FEA144848EA0747BD4202FABF
S214083AB001F200FA01FB09D917EB0C070AF1FF30EF
S214083AC041D2BD423FD9AAF1020A67447F1BB7FB21
S214083AD0F9F509FB157705FB03F3A4B244EA074793
S214083AE0BB4208D917EB0C0705F1FF3027D2BB42BB
S214083AF025D9023D674445EA0A40A0FB0289FF1A19
S214083B004F4545464C4614D329D066B3BBEB050350
S214083B1067EB040707FA0EFECB40CF404EEA0303D6
S214083B2086E888000021BDE8F08F2346F3E61846AD
S214083B30DAE6B8EB020569EB0C040138E5E705465A
S214083B40D9E7104692E78246C0E7924678E70238F9
S214083B503A4443E7084604E7023B3C442AE7C345A1
S214083B60E7D33C46D1E73146BDE8F08F704700BF43
S214083B705445535445535445535445535445535448
S214083B8045535445535445535400000025643A3A67
S214083B90000000000D0A0000430000003001072066
S214083BA03030303030303030303030303030303008
S214083BB03031323334353637383941424344454656
S214083BC00000000030313233343536373839616218
S214083BD06364656600000000286E756C6C2900003A
S214083BE020202020202020202020202020202020C8
S214083BF0F8B500BFF8BC08BC9E467047491E0800CA
S214083C0019010800F8B500BFF8BC08BC9E46704706
S208083C10F5000800A6
S20C083C146CFCFF7F01000000B4
S214083C1C4FF48063204A136002F5007213601F4B42
S214083C2C1B6A13F0807F07D11D4A1C4B1A621A4672
S214083C3C936E13F0010FFBD01A4A184B1A621A46E9
S214083C4C936E13F4803FFBD0144A136B23F00303D4
S214083C5C43F001031363936E13F0080FFBD0124A5C
S214083C6C0E4B9A621A46936E13F0020FFBD0112273
S214083C7C0A4B1A631A46936E13F0080FFBD01222DF
S214083C8C064B1A631A46936E13F0080FFBD0074AB6
S214083C9C074B1A60704700BF000A0E4000060E401D
S214083CAC0908370009083701013F0D2000BD01053A
S214083CBC2C0107201B4B984206D800231A4A13607F
S214083CCC02F5007213607047184B984207D84FF4E9
S214083CDC8073154A136002F5007213607047144B14
S214083CEC984207D84FF400730F4A136002F5007217
S214083CFC136070470F4B984207D84FF440730A4A24
S214083D0C136002F50072136070470B4B984294BF11
S214083D1C4FF480634FF4A063034A136002F50072F5
S214083D2C13607047BFEA2101000A0E407FF0FA02C2
S214083D3CFF8FD003FFB3C4047F4A5D0500093D001E
S214083D4C000000001C04072084040720EC0407204D
S214083D5C000000000000000000000000000000004A
S214083D6C000000000000000000000000000000003A
S214083D7C00000000983B080000000000000000004F
S214083D8C000000000000000000000000000000001A
S214083D9C000000000000000000000000000000000A
S214083DAC00000000000000000000000000000000FA
S214083DBC00000000000000000000000000000000EA
S214083DCC00000000000000000000000000000000DA
S214083DDC00000000000000000000000000000000CA
S214083DEC00000000000000000100000000000000B9
S214083DFC0E33CDAB34126DE6ECDE05000B0000007E
S214083E0C0000000000000000000000000000000099
S214083E1C0000000000000000000000000000000089
S214083E2C0000000000000000000000000000000079
S214083E3C0000000000000000000000000000000069
S21408416C00000000000000003001072041534349BE
S21408417C49000000000000000000000000000000DD
S21408418C0000000000000000000000000100000015
S21408419C00000000000000008005072080050720AE
S2140841AC8805072088050720900507209005072016
S2140841BC9805072098050720A0050720A0050720C6
S2140841CCA8050720A8050720B0050720B005072076
S2140841DCB8050720B8050720C0050720C005072026
S2140841ECC8050720C8050720D0050720D0050720D6
S2140841FCD8050720D8050720E0050720E005072086
S21408420CE8050720E8050720F0050720F005072035
S21408421CF8050720F80507200006072000060720E3
S21408422C0806072008060720100607201006072091
S21408423C1806072018060720200607202006072041
S21408424C28060720280607203006072030060720F1
S21408425C38060720380607204006072040060720A1
S21408426C4806072048060720500607205006072051
S21408427C5806072058060720600607206006072001
S21408428C68060720680607207006072070060720B1
S21408429C7806072078060720800607208006072061
S2140842AC8806072088060720900607209006072011
S2140842BC9806072098060720A0060720A0060720C1
S2140842CCA8060720A8060720B0060720B006072071
S2140842DCB8060720B8060720C0060720C006072021
S2140842ECC8060720C8060720D0060720D0060720D1
S2140842FCD8060720D8060720E0060720E006072081
S21408430CE8060720E8060720F0060720F006072030
S21408431CF8060720F80607200007072000070720DE
S21408432C080707200807072010070720100707208C
S21408433C180707201807072020070720200707203C
S21408434C28070720280707203007072030070720EC
S21408435C380707203807072040070720400707209C
S21408436C480707204807072050070720500707204C
S21408437C58070720580707206007072060070720FC
S21408438C68070720680707207007072070070720AC
S21408439C780707207807072080070720800707205C
S2140843AC880707208807072090070720900707200C
S2140843BC9807072098070720A0070720A0070720BC
S2140843CCA8070720A8070720B0070720B00707206C
S2140843DCB8070720B8070720C0070720C00707201C
S2140843ECC8070720C8070720D0070720D0070720CC
S2140843FCD8070720D8070720E0070720E00707207C
S21408440CE8070720E8070720F0070720F00707202B
S21408441CF8070720F80707200008072000080720D9
S21408442C0808072008080720100807201008072087
S21408443C1808072018080720200807202008072037
S21408444C28080720280807203008072030080720E7
S21408445C3808072038080720400807204008072097
S21408446C4808072048080720500807205008072047
S21408447C58080720580807206008072060080720F7
S21408448C68080720680807207008072070080720A7
S21408449C7808072078080720800807208008072057
S2140844AC8808072088080720900807209008072007
S2140844BC9808072098080720A0080720A0080720B7
S2140844CCA8080720A8080720B0080720B008072067
S2140844DCB8080720B8080720C0080720C008072017
S2140844ECC8080720C8080720D0080720D0080720C7
S2140844FCD8080720D8080720E0080720E008072077
S21408450CE8080720E8080720F0080720F008072026
S21408451CF8080720F80807200009072000090720D4
S21408452C0809072008090720100907201009072082
S21408453C1809072018090720200907202009072032
S21408454C28090720280907203009072030090720E2
S21408455C3809072038090720400907204009072092
S21408456C4809072048090720500907205009072042
S21408457C58090720580907206009072060090720F2
S21408458C68090720680907207009072070090720A2
S21408459C780907207809072000000200FFFFFFFFB4
S2080845AC19360800A7
S80408076D7F
