S027000054435F54435F434150545552455F57415645464F524D5F4558414D504C45322E737265639A
S214080000502A0720650708006107080061070800EE
S2140800106107080061070800610708000000000083
S2140800200000000000000000000000006107080053
S2140800306107080000000000610708006107080063
S21408004061070800610708006107080061070800E3
S21408005061070800610708006107080061070800D3
S214080060610708006107080000000000190508007D
S2140800702D05080041050800550508000000000089
S2140800800000000061070800610708006107080013
S2140800906107080061070800610708006107080093
S2140800A061070800000000006107080061070800F3
S2140800B06107080061070800610708006107080073
S2140800C06107080061070800610708006107080063
S2140800D06107080061070800610708006107080053
S2140800E06107080061070800610708006107080043
S2140800F06107080010B5054C237833B9044B13B1D3
S2140801000448AFF300800123237010BD7C09072044
S214080110000000007C1C0800084B10B51BB10849FD
S2140801200848AFF300800848036803B910BD074BBA
S214080130002BFBD0BDE81040184700BF00000000A9
S214080140800907207C1C08007C1C080000000000B2
S21408015010B50E480E4B98473E2100200D4B984789
S2140801600D4CA0470028FCD00C4B98470C4A0D4B6A
S2140801709A620D4CA0470028FCD010200B4B9847DD
S2140801800B4B98470148024B984710BD00BD010528
S214080190B1000720D1050800250608003506080026
S2140801A0013F0D2000060E404506080069050800B8
S2140801B01108080090B92DE9F0410C469046002A2F
S2140801C00FDD8F18084E094D306821462B68984772
S2140801D00134A742F8D14046BDE8F0814FF0FF3021
S2140801E070470020BDE8F081480A0720400A07202B
S2140801F00138022815D82DE9F0410E4614469AB162
S2140802000D46DFF838800C4FD8F8000015F8011BAB
S2140802103B68984700280ADBA81B013CF4D1BDE8D8
S214080220F0814FF0FF3070470020BDE8F0814FF0B6
S214080230FF30BDE8F08100BF440A0720480A0720BF
S21408024010B54FF40042124B5A600B20114CA047D1
S2140802500C20A0470D20A0470E20A0474FF0605165
S2140802603B200D4CA0474FF060515520A0474FF05B
S21408027060515620A04709496820A04708495C20D5
S214080280A047084A4FF440710748084B984710BDE6
S214080290501A0E4055060800550308007900002835
S2140802A00100002801000008000E0E40290408007E
S2140802B04264B1F1805F16D004D8C1B1B1F1006FC5
S2140802C00AD013E0B1F1405F11D0B1F1605F0ED0F3
S2140802D0B1F1205F0AD17047016F036F0B4023EA24
S2140802E00203036702E0036F134303674260704725
S2140802F0416412F0010F14BF4166016612F00A0F3E
S21408030014BF0162416212F0020F02D0C0F88010DA
S21408031004E012F0080F18BFC0F8841041610160AD
S214080320704700BF10B44164019C0CB1416600E000
S21408033001660BB1016500E041650AB1016300E0A2
S21408034041630161016010BC704700BFC06C704714
S214080350806C704770B582B00D46430903F50013EC
S21408036003F207735C0201F0F043B3F1205F30D06C
S21408037006D8B3F1006F0AD0B3F1805F18D049E011
S214080380B3F1405F30D0B3F1605F2DD042E000F0AB
S2140803901F000126864032464FF0006120461F4B5C
S2140803A0984715F0010F14BF66662666012032E0EE
S2140803B000F01F000126864032464FF08051204646
S2140803C0164B984715F0010F14BF6666266601207F
S2140803D021E000F01F0101262A4606FA01F1204610
S2140803E00F4B9847304616E005F0605200F01F01A4
S2140803F0012605EA06030093C5F38003B2F1605FA1
S21408040014BF0022012206FA01F12046054CA04737
S214080410304600E0002002B070BD00BFB102080000
S214080420F10208002503080070B582B005460E469E
S214080430144602F0F043B3F1205F26D006D8B3F195
S214080440006F0AD0B3F1805F13D034E0B3F1405F99
S2140804501FD0B3F1605F1CD02DE00A464FF0006154
S214080460164B984714F0010F14BF6E662E660120CF
S21408047022E00A464FF08051104B984714F0010FBF
S21408048014BF6E662E66012016E00D4B98470120B5
S21408049012E004F0605204F001030093C4F38003F2
S2140804A0B2F1605F14BF0022012231462846054C8F
S2140804B0A047012000E0002002B070BDB10208008D
S2140804C0F1020800250308002DE9F0410446884695
S2140804D00E4B9847054620460D4B9847054013D0C7
S2140804E00C4C04F160062368434508D1616829422C
S2140804F005D0E36840469847636825EA0305B44292
S21408050002D01034002DEED1BDE8F0814D0308006E
S214080510510308009809072008B50B210148024B2B
S214080520984708BD000E0E40C904080008B50C21FF
S2140805300148024B984708BD00100E40C904080041
S21408054008B50D210148024B984708BD00120E4019
S214080550C904080008B50E210148024B984708BD93
S21408056000140E40C9040800184A136B23F07003E1
S21408057018431063936E13F0080F03D009E0013B8D
S21408058003D11EE04FF4006310498A6E12F0080F7C
S214080590F5D00E4A136B23F0030343F002031363EC
S2140805A0906E10F0080004D000207047013B03D17D
S2140805B009E04FF4006305498A6E12F0080FF5D07B
S2140805C07047012070470120704700BF00060E40A4
S2140805D038B111490B6A114A1A40114B13430B6282
S2140805E070470D48026A090289B222F45C1323F0A8
S2140805F0030343F45C1343F001030B430362024610
S214080600936E13F0010FFBD0034A136A43F09B73F3
S21408061043F480331362704700060E40FCFFC8FEA2
S21408062002003701024B986E00F48030704700BF16
S21408063000060E404FF00052014B9A62704700BF0A
S21408064000060E40024B986E00F00200704700BF8E
S21408065000060E402C281ED81F280CD8114B9A6965
S21408066001238340934318D0012303FA00F00D4B6F
S21408067018610020704720380A4BD3F80821012358
S214080680834093430BD0012303FA00F0054BC3F8CD
S21408069000010020704701207047002070470020A6
S2140806A0704700BF00060E4010B4890143180224A4
S2140806B044504FF0FF319962196A5A6010BC70476F
S2140806C0890105234350704700EB81114A61704742
S2140806D000EB8111CA61704710B4AC2303600B6845
S2140806E04A68B3FBF2F31B095C1E4FF6FE7294428F
S2140806F00AD803628B68436040F20223C0F82031B0
S21408070050230360002000E0012010BC704700BFA3
S214080710436913F0020F1ABFC16100200120704719
S214080720436913F0010F1DBF83690B700020012079
S214080730704700BF436913F0020F1DBFC1F30801DD
S214080740C161002001207047436913F0010F05D0EE
S2140807508369C3F308030B600020704701207047C5
S214080760FEE700BF08B51E4B1E4A9A4203D01E4B32
S2140807701B4A9A4204D31D4B1D4A9A420FD31AE0CD
S21408078017491C4B5B1A23F003030433154A13441A
S21408079052F8040B41F8040B9A42F9D1EBE7164BD2
S2140807A0164AD21A22F003021A44043B002143F8E0
S2140807B0041B9342FBD1124B23F0604222F07F02C7
S2140807C010498A6003F16043B3F5801F03D28B6833
S2140807D043F000538B600C4B98470C4B9847FEE74A
S2140807E0000007207C1C08007C090720500A072008
S2140807F07C0907207B09072080090720530A072061
S2140808000000080000ED00E0090C0800BD0A08001A
S2140808103E4B1B6B03F00303032B5FD8DFE803F0A4
S214080820020E2B2B3A4B5B6913F0800F14BF4FF464
S21408083000424FF4FA42374B1A604FE0334B1B6ABC
S21408084013F0807F03D0344A324B1A6046E0334AAE
S214080850304B1A602D4B1B6A03F07003102B02D026
S214080860202B04D03AE02E4A2A4B1A6036E02A4A51
S214080870284B1A6032E0254B1B6A13F0807F03D0A2
S214080880254A244B1A6012E0244A224B1A601F4B52
S2140808901B6A03F07003102B02D0202B04D006E04E
S2140808A01F4A1C4B1A6002E01B4A1A4B1A60174B69
S2140808B01B6B03F00303022B0DD1144A936A926A4A
S2140808C01448C3F30A41036801FB0333D2B2B3FBEF
S2140808D0F2F3036002E0134A0E4B1A600B4B1B6BD5
S2140808E003F07003702B07D10A4A13680E49A1FB60
S2140808F003135B0813607047044B1B6B0549C3F36F
S21408090002120B68D3400B60704700BF00060E400B
S214080910101A0E4038010720001BB70000093D00DA
S21408092000127A00001C4E0EABAAAAAA094B1B6836
S21408093013B9094A074B1A60064B1B681A18074969
S214080940914204DB1046034A1060184670474FF081
S214080950FF307047080A0720502A0720FC7F082027
S2140809604FF0FF30704700BF4FF400534B60002035
S214080970704700BF00207047F0B583B004460D46A8
S214080980002301931F4B984207D11F461E4E294647
S2140809903846B0470028FAD119E01C4B984209D1CE
S2140809A01F461B4E01A93846B0470028FAD1019BBE
S2140809B02B7019E0174B984209D11E46144C01A912
S2140809C03046A0470028FAD1019B2B7018E0124B3E
S2140809D09C4209D11E460E4C01A93046A047002865
S2140809E0FAD1019B2B700BE00C4B9C4208D11E469B
S2140809F0074C01A93046A0470028FAD1019B2B7066
S214080A0003B0F0BD00080E4021070800008009402A
S214080A104907080000C0094000000A4000400A4094
S214080A2070B50C461E4B984208D11E461D4D2146F1
S214080A303046A8470028FAD1012070BD1A4B9842C4
S214080A4008D11E46194D21463046A8470028FAD137
S214080A50012070BD164B984208D11E46134D2146FC
S214080A603046A8470028FAD1012070BD114B98429D
S214080A7008D11E460D4D21463046A8470028FAD113
S214080A80012070BD0C4B984208D11E46074D2146E2
S214080A903046A8470028FAD1012070BD002070BD56
S214080AA000080E40110708000080094035070800B6
S214080AB000C0094000000A4000400A402DE9F04105
S214080AC084B0384B9847384B9847384D384B1D609C
S214080AD0384A394B1A60394A394B1A60394B0193F0
S214080AE04FF4E13302934FF4006303930820364C27
S214080AF0A04701A92846354B9847354E336800214C
S214080B009868344DA847336800215868A847324B80
S214080B1004221A665A655A62C3F88020196F21F0B3
S214080B20040119675A601C20A0472C4C4FF41C225D
S214080B30012120462A4B98472A4A012120462A4B5B
S214080B4098472A4A01212046294B984701212046E2
S214080B50284B9847284F264E2546284CA7FB043294
S214080B60520901212846B0474EF66020244B984784
S214080B70A4F53E34A4F54574002CEFD1194CDFF8E3
S214080B808480A7FB0432520901212846B0474EF656
S214080B9060201B4B984704F53E3404F545744445DD
S214080BA0EFD1DAE7510108004102080000080E40BC
S214080BB0480A0720210A0800440A0720790908007D
S214080BC0400A072000BD010555060800D90608009A
S214080BD068050720F50C0800000E0E4000000840C7
S214080BE0A906080014FB0200D10608008A7D010049
S214080BF0C9060800C10608001F85EB51BC18270166
S214080C0001000720D0132A0170B50F4E0F4D761B32
S214080C10B61018BF002405D0013455F8043B984791
S214080C20A642F9D10A4E0B4D01F016F8761BB610FF
S214080C3018BF002406D0013455F8043B9847A6424E
S214080C40F9D170BD70BD00BF641C0800641C0800A4
S214080C506C1C0800641C080070B4840746D0541E38
S214080C60002A41D0CDB2034602E0621EE4B3144621
S214080C7003F8015B9A07F8D1032C2ED9CDB245EAC2
S214080C8005250F2C45EA054519D9264603F1100215
S214080C90103E0F2E42F8105C42F80C5C42F8085CD6
S214080CA042F8045C02F11002F2D8A4F1100222F015
S214080CB00F0204F00F041032032C13440DD91E46FD
S214080CC02246043A032A46F8045BFAD8221F22F082
S214080CD003020432134404F003042CB1C9B21C44C2
S214080CE003F8011BA342FBD170BC704714460346A9
S214080CF0C2E700BF00290CBF022200224FF480631F
S214080D0000F000B82DE9F043514D83B02D68044635
S214080D100F4690461E4615B1AB6B002B79D0B8F13E
S214080D20020F04D0B8F1010F7FD8002E7DDB2146D4
S214080D30284600F043F9216B41B104F1400399427B
S214080D4002D0284600F03AFA00232363B4F90C30A0
S214080D500022A26162601A0654D423F44A6323F080
S214080D600303B8F1020FA38139D001AB6A462146C6
S214080D70284600F033FBA3891843A08126B327B37F
S214080D80AB6B002B4DD0009BB4F90C009E421CBFE9
S214080D9040F40060A081B8F1010F08BF40F00100E0
S214080DA083B208BFA08103F0080080B227602761DD
S214080DB0666118B313F001002FD000207642A661B2
S214080DC0A06003B0BDE8F083009E304600F036FB16
S214080DD0074668B3A38943F08003A381D0E70020C1
S214080DE004F1430243F0020300250121A381A56014
S214080DF022602261616103B0BDE8F083A06003B0A1
S214080E00BDE8F0832169284600F0D8F9B4F90C301B
S214080E10A3E7284600F066F981E7A66003B0BDE8B8
S214080E20F083284600F05EF9ADE74FF0FF30E2E7C2
S214080E30DDF80090B14506D0484600F0FFFA0746B0
S214080E4008B14E46C6E7B4F90C304FF0FF30C7E796
S214080E5068050720024B13B1024800F005B8704732
S214080E6000000000F9100800002301461A4618463C
S214080E7000F008BEB1F90C302DE9F0419AB20D46E3
S214080E80110780463CD46A6843F40063002AAB81A5
S214080E9073DDAC6A002C4BD09BB203F48052002161
S214080EA092B2D8F80060C8F80010002A69D02A6DF7
S214080EB05F0705D569682B6B521A0BB1EB6BD21A14
S214080EC00023E9694046A047441C3CD0B5F90C30DD
S214080ED0296923F400630022AB81DB0485E8060059
S214080EE049D4296BC8F8006011B305F1400399424C
S214080EF002D0404600F062F900202863BDE8F08181
S214080F002E69AEB190072C680CBF6B6900232E6063
S214080F10A41BAB600AE0234632466F6AE96940467E
S214080F20B8470028A4EB0004064404DD002CF2DCD5
S214080F300020BDE8F081AB894FF0FF3043F0400356
S214080F40AB81BDE8F081D8F800201D2AF3D81A4BEB
S214080F50D34003F0010383F00104002BEBD0B5F96E
S214080F600C30296923F400632960D9046C60AB81CE
S214080F70B7D5002AB5D12865B3E7EA6B002A88DC1E
S214080F80D6E70123E9694046A047431C024602D03B
S214080F90AB89AC6A8CE7D8F80030002BF8D01D2B4C
S214080FA001D0162B02D1C8F80060C1E7AB8943F020
S214080FB04003AB81BDE8F0810100402010B504462F
S214080FC082B008B1836B53B1B1F90C0008B902B00E
S214080FD010BD204602B0BDE81040FFF74BBF019198
S214080FE000F080F80199EFE7014900F0CFB900BF9B
S214080FF04D1B08002DE9F04F074635487D6800244C
S21408100007F53B7204230321F863C7F8E412C7F810
S214081010E822C7F8E04283B02C606C60AC606C666F
S214081020EC812C616C61AC61AB81214605F15C00FA
S2140810300822FFF711FEDFF89CB0BE68DFF898A01C
S214081040DFF89890DFF8988001230922C5F820B0C9
S214081050C5F824A0C5F82890C5F82C80ED6121466F
S214081060F381B28106F15C0034607460B460746623
S21408107034617461B46108220193FFF7EDFDFD68E1
S21408108012200222F661C6F820B0C6F824A0C6F8D8
S2140810902890C6F82C802146A881EA812C606C60CE
S2140810A0AC606C662C616C61AC6105F15C00082272
S2140810B0FFF7D2FD019BED61C5F820B0C5F824A066
S2140810C0C5F82890C5F82C80BB6303B0BDE8F08F40
S2140810D0E90F0800D1190800F5190800311A0800A8
S2140810E0511A0800836B03B17047FFF783BF00BF30
S2140810F0704700BF704700BF38B5074D074C2C1B1C
S214081100A41005D0013C55F8043D9847002CF9D1A9
S214081110BDE8384000F0AABD7C1C0800781C080012
S214081120F8B50C46224F064600F03CFCBB685D68E6
S21408113025F00305291B01F6EF7121F47F6121F0E4
S2140811400F01A1F58054B4F5805F07DB0021304617
S21408115000F02CFCBB682B44984204D0304600F0C4
S21408116023FC0020F8BD6142304600F01FFC013029
S2140811700DD0104BBA6819682D1B45F0010530468E
S214081180091B5560196000F00FFC0120F8BD00210E
S214081190304600F00BFCBA68831A0F2BDEDD064CCF
S2140811A00449246843F00103001B53600860D5E730
S2140811B06C050720180A072078090720002945D05B
S2140811C02DE9F0410D46804600F0ECFB55F8047C0E
S2140811D06A49A5F1080427F00103E2188E685068EA
S2140811E0B24220F0030062D0FE0750600BD455F8D8
S2140811F0087C01F1080EE41BA5683B4475456FD0D2
S214081200E768EF60BD6015186D68ED0742D543F0D6
S21408121001026260E350B3F5007F18D2DB08486825
S2140812209D100122013351F8337002FA05F501EBDF
S214081230C3022843083AE260A760486041F8334092
S214081240FC604046BDE8F04100F0AEBB70475A0A65
S214081250042A53D89A0902F139077F0002F13805A3
S21408126001EB870051F827200838904243494DD0B3
S214081270516821F003018B4202D292689042F7D15E
S214081280D068E060A2608460D4604046BDE8F04163
S21408129000F08ABB95683A4F0344BD423FD0D068F9
S2140812A043F00102E86085606260E350B3E7FF0739
S2140812B0034407D455F8085C641BE268A0682B440E
S2140812C0C26090602F4A43F0010012686060934243
S2140812D08C60B6D32C4B40461968FFF721FFB0E761
S2140812E011184968C90744D491680344D26843F082
S2140812F00100CA6091606060E350A2E7142A17D81C
S21408130002F15C077F0002F15B05A9E7AA104B68AB
S214081310012505FA02F213434B600246B1E743F093
S21408132001024C610C61E560A5606260E35088E7E5
S214081330542A06D81A0B02F16F077F0002F16E05D1
S2140813408EE7B2F5AA7F06D8DA0B02F178077F0097
S21408135002F1770584E740F25450824206D89A0C88
S21408136002F17D077F0002F17C0579E7FE277E25DE
S21408137076E743F001026260E35062E76C050720F7
S2140813807405072074090720140A07202DE9F84376
S21408139010F538761ED0884607464FF0000975685F
S2140813A0B468013D10D4A389013D012B08D9B4F9CE
S2140813B00E30013304D021463846C04749EA0009B2
S2140813C06B1C04F16804EED13668002EE7D1484657
S2140813D0BDE8F883B1464846BDE8F88370B50E46C2
S2140813E0B1F90E1090B0002914461D4614DB01AA68
S2140813F000F0EEFB00280FDB029A4FF4806302F43D
S2140814007042A2F50052B2FA82F24FF40060520916
S2140814102A60236010B070BDB289002002F08002F6
S21408142092B228601AB14023236010B070BD1046EF
S2140814304FF48063236010B070BD00BF024B0146B6
S214081440186800F003B800BF680507202DE9F04FBC
S21408145001F10B05162D83B0064640F2A08035F044
S214081460070500F1C080A94200F2BD8000F09AFA94
S214081470B5F5FC7FC0F090826B0A00F0BB80042BA9
S21408148000F27781A80900F1390E4FEA4E0138308C
S214081490BE4F07EB81014C680839A14207D1AEE080
S2140814A0002A80F2AE80E468A14200F0A880636853
S2140814B023F003035A1B0F2AF2DDB4493C6901F1F5
S2140814C0080E744500F0A881636823F003035A1BCE
S2140814D00F2A00F38E81002AC1F814E0C1F810E044
S2140814E080F29380B3F5007F80F05C81DB084A6861
S2140814F04FEAA3094FF0010C013351F833800CFA78
S21408150009F901EBC30C49EA0202ACF1080CC4F86D
S2140815100CC0C4F808804A6041F83340C8F80C404C
S214081520831001249C4094427CD8144206D120F0B3
S21408153003006400144200F10400FAD007EBC00967
S214081540CC468046DCF80C108C4507D166E1002AAC
S21408155080F27481C9688C4500F060814B6823F07E
S21408156003035A1B0F2AF2DD0C46CB6854F808CF43
S21408157045F00108C1F804800D4442F00101CCF89A
S2140815800C303046C3F808C07D613D61C5F80CE0F4
S214081590C5F808E06960AA5000F006FA1FE01029AE
S2140815A021D800F0FFF9102506230220774F07EB15
S2140815B083035C68A3F10802944200F038816368EC
S2140815C0E16823F0030323445A68A56842F0010241
S2140815D0E96030468D605A6000F0E6F90834204627
S2140815E003B0BDE8F08F002420460C23336003B018
S2140815F0BDE8F08F80214FF0400E3F2048E7704648
S2140816005BE723445A68E168DFE723445A683046B4
S21408161042F001025A60083400F0C6F9204603B0CA
S214081620BDE8F08FBC68636823F00308A84504D3B8
S214081630C5EB08030F2B00F38C80554BDFF8609141
S2140816401A68D9F800302A44013304EB080A00F077
S214081650608102F580520F3222F47F6222F00F0278
S21408166011463046019200F0A1F9B0F1FF3F8346DB
S214081670019A00F05881824500F2FC80454BDA4515
S21408168019681144196000F05381D9F80000DFF892
S21408169010E101301BBFCAEB0B0A5144CEF800B06C
S2140816A019601BF0070100F01781C1F10800C1F5A9
S2140816B08051834408315A44C2F30B02C2EB010935
S2140816C049463046019300F071F9431C019B00F02F
S2140816D03F81CBEB00024A4442F001021968BC4243
S2140816E04944C7F808B01960CBF80420DFF8A4907E
S2140816F016D0B8F10F0F40F2FD806268A8F10C030F
S21408170023F0070302F00102E0184FF0050E1A4313
S2140817100F2B6260C0F804E0C0F808E000F21C81F5
S2140817201D4BBC681A68914288BF19601B4B1A6823
S2140817309142626888BF196022F003029542A2EBC4
S214081740050301D80F2B04DC304600F02DF90024E1
S21408175045E745F0010243F0010325446260304640
S214081760BD6008346B6000F01FF9204603B0BDE882
S214081770F08F142B71D9542B00F2A480280B00F19B
S2140817806F0E4FEA4E016E3082E600BF6C050720EA
S214081790140A0720180A0720100A07200C0A072030
S2140817A0780907205A0A042A5ED9142A00F2B38058
S2140817B002F15C0149005B3207EB810C57F82110F7
S2140817C0ACF1080C8C45DFF8D88100F088804A68B0
S2140817D022F00302934202D289688C45F7D1D1F8E9
S2140817E00CC07A68C4F80CC0A160CCF80840CC607D
S2140817F096E645F0010742F0010325446760304647
S2140818004D610D61C5F80CE0C5F808E06B60AA509C
S214081810083400F0C9F8E2E64A6881E608F10108EB
S21408182018F0030F0CF1080C7FF48CAE30E0DC687F
S214081830A34208BF02303FF440AEC0E60C460B4455
S2140818405A68C96854F8085F42F001025A60304680
S214081850E9608D6000F0A8F8C1E603F15C0E03F1BC
S2140818605B004FEA4E0113E69A0902F13901490076
S2140818703832A1E7BC424A4B3FF400AF9C68626826
S21408188022F003025AE759F80839994540F0828051
S21408189010F0030F00F1FF30F5D17B6823EA04034C
S2140818A07B6064009C423FF6BDAE002C3FF4BAAEA7
S2140818B01C4240467FF442AE64001C4200F104001D
S2140818C0FAD03BE6B3F5AA7F18D8E80B00F1780EF5
S2140818D04FEA4E017730DBE54FF48051EBE6012105
S2140818E0D8F80430921001FA02F21A43C8F8042015
S2140818F0614677E70123CBF8043025E740F25452D7
S214081900934220D8A80C00F17D0E4FEA4E017C3099
S214081910BEE51032A4E6542A26D81A0B02F16F0147
S21408192049006E3248E7BC68626822F0030205E7A1
S214081930CAF30B0000287FF4A8AE4244BB6842F006
S21408194001025A60ECE6FE214FF07F0E7E209FE5EE
S21408195001224FF00009C1E604F108013046FFF7FE
S2140819602DFCD9F80010DBE6B2F5AA7F05D8DA0B0D
S21408197002F17801490077321EE740F254518A4254
S21408198005D89A0C02F17D0149007C3214E7FE2145
S2140819907E2211E77B6884E7E808431C5B0005E6BF
S2140819A06C050720704700BF704700BF38B5074C66
S2140819B00023054608462360FEF7B8FF431C00D000
S2140819C038BD2368002BFBD02B6038BD4C0A072097
S2140819D010B50C46B1F90E1000F024F9002803DB08
S2140819E0236D0344236510BDA38923F48053A38184
S2140819F010BD00BF2DE9F0410C46B1F90C101F468A
S214081A00CB051646054607D5B4F90E100223002264
S214081A1000F0F2F8B4F90C1021F48051A1813B468D
S214081A203246B4F90E102846BDE8F04100F014B866
S214081A3010B50C46B1F90E1000F0DEF8A389421C6A
S214081A400EBF23F4805343F480532065A38110BD52
S214081A50B1F90E1000F068B870B50D46084C11467E
S214081A6006461A46284600232360FEF7C1FB431C99
S214081A7000D070BD2368002BFBD0336070BD00BF5C
S214081A804C0A07202DE9F047254C06462568884667
S214081A90D5F8484192469946C4B360681F2817DCB3
S214081AA0411C76B104EB8003C3F888A0D4F88851AB
S214081AB0012282401543022EC4F88851C3F80891C3
S214081AC01ED0831C6160002044F82380BDE8F087A0
S214081AD0144B03B34FF4C870FFF7B0FC0446D0B1FC
S214081AE0D5F84831002784E888003846C5F84841C4
S214081AF00121C4F88871C4F88C71002EE1D0D1E7B2
S214081B00D4F88C311A43C4F88C21DAE705F5A674A4
S214081B10C5F84841C1E74FF0FF30BDE8F08700BF81
S214081B20541C08003D14080038B5074C0023054629
S214081B3008462360FEF714FF431C00D038BD236810
S214081B40002BFBD02B6038BD4C0A072000293DD05F
S214081B5070B505460C4608B1836B7BB3B4F90C30F8
S214081B600BB9002070BD21462846FFF783F9E36AC3
S214081B70064633B1E169284698470028B8BF4FF0B3
S214081B80FF36A3891B061CD4216B41B104F1400320
S214081B90994202D02846FFF711FB00232363616CA5
S214081BA021B12846FFF70AFB00236364FFF7A0FA73
S214081BB00023A381FFF79EFA304670BDFFF792FA1E
S214081BC0CCE721692846FFF7F9FADDE700207047D9
S214081BD038B50B46074C05461146184600232360C1
S214081BE0FEF7C2FE431C00D038BD2368002BFBD08E
S214081BF02B6038BD4C0A072070B50D46084C1146B8
S214081C0006461A46284600232360FEF7B3FE431C02
S214081C1000D070BD2368002BFBD0336070BD00BFBA
S214081C204C0A072070B50D46084C114606461A465B
S214081C30284600232360FEF7BDFA431C00D070BD7B
S214081C402368002BFBD0336070BD00BF4C0A07200A
S214081C504300000040010720F8B500BFF8BC08BCE8
S214081C609E467047550E080019010800F8B500BFD3
S210081C70F8BC08BC9E467047F50008004B
S214081C7CBFF35F8F0138FBD1704700BF4FF480630A
S214081C8C204A136002F5007213601F4B1B6A13F090
S214081C9C807F07D11D4A1C4B1A621A46936E13F0A6
S214081CAC010FFBD01A4A184B1A621A46936E13F495
S214081CBC803FFBD0144A136B23F0030343F0010355
S214081CCC1363936E13F0080FFBD0124A0E4B9A62EE
S214081CDC1A46936E13F0020FFBD011220A4B1A63A6
S214081CEC1A46936E13F0080FFBD01222064B1A6393
S214081CFC1A46936E13F0080FFBD0074A074B1A6068
S214081D0C704700BF000A0E4000060E400908370050
S214081D1C09083701013F0D2000BD010538010720D1
S214081D2C1B4B984206D800231A4A136002F5007219
S214081D3C13607047184B984207D84FF48073154AAF
S214081D4C136002F5007213607047144B984207D85C
S214081D5C4FF400730F4A136002F500721360704755
S214081D6C0F4B984207D84FF440730A4A136002F593
S214081D7C0072136070470B4B984294BF4FF4806305
S214081D8C4FF4A063034A136002F5007213607047A1
S214081D9CBFEA2101000A0E407FF0FA02FF8FD0033B
S214081DACFFB3C4047F4A5D0500093D00000000002F
S214081DBC000000002C04072094040720FC040720CD
S214081DCC00000000000000000000000000000000FA
S214081DDC00000000000000000000000000000000EA
S214081DEC00000000501C0800000000000000000066
S214081DFC00000000000000000000000000000000CA
S214081E0C00000000000000000000000000000000B9
S214081E1C00000000000000000000000000000000A9
S214081E2C0000000000000000000000000000000099
S214081E3C0000000000000000000000000000000089
S214081E4C0000000000000000000000000000000079
S214081E5C0000000000000000010000000000000068
S214081E6C0E33CDAB34126DE6ECDE05000B0000002D
S214081E7C0000000000000000000000000000000049
S214081E8C0000000000000000000000000000000039
S214081E9C0000000000000000000000000000000029
S214081EAC0000000000000000000000000000000019
S2140821DC000000000000000040010720000000007E
S2140821EC000000006C0507206C0507207405072006
S2140821FC740507207C0507207C0507208405072026
S21408220C840507208C0507208C05072094050720D5
S21408221C940507209C0507209C050720A405072085
S21408222CA4050720AC050720AC050720B405072035
S21408223CB4050720BC050720BC050720C4050720E5
S21408224CC4050720CC050720CC050720D405072095
S21408225CD4050720DC050720DC050720E405072045
S21408226CE4050720EC050720EC050720F4050720F5
S21408227CF4050720FC050720FC05072004060720A4
S21408228C040607200C0607200C0607201406072051
S21408229C140607201C0607201C0607202406072001
S2140822AC240607202C0607202C06072034060720B1
S2140822BC340607203C0607203C0607204406072061
S2140822CC440607204C0607204C0607205406072011
S2140822DC540607205C0607205C06072064060720C1
S2140822EC640607206C0607206C0607207406072071
S2140822FC740607207C0607207C0607208406072021
S21408230C840607208C0607208C06072094060720D0
S21408231C940607209C0607209C060720A406072080
S21408232CA4060720AC060720AC060720B406072030
S21408233CB4060720BC060720BC060720C4060720E0
S21408234CC4060720CC060720CC060720D406072090
S21408235CD4060720DC060720DC060720E406072040
S21408236CE4060720EC060720EC060720F4060720F0
S21408237CF4060720FC060720FC060720040707209F
S21408238C040707200C0707200C070720140707204C
S21408239C140707201C0707201C07072024070720FC
S2140823AC240707202C0707202C07072034070720AC
S2140823BC340707203C0707203C070720440707205C
S2140823CC440707204C0707204C070720540707200C
S2140823DC540707205C0707205C07072064070720BC
S2140823EC640707206C0707206C070720740707206C
S2140823FC740707207C0707207C070720840707201C
S21408240C840707208C0707208C07072094070720CB
S21408241C940707209C0707209C070720A40707207B
S21408242CA4070720AC070720AC070720B40707202B
S21408243CB4070720BC070720BC070720C4070720DB
S21408244CC4070720CC070720CC070720D40707208B
S21408245CD4070720DC070720DC070720E40707203B
S21408246CE4070720EC070720EC070720F4070720EB
S21408247CF4070720FC070720FC070720040807209A
S21408248C040807200C0807200C0807201408072047
S21408249C140807201C0807201C08072024080720F7
S2140824AC240807202C0807202C08072034080720A7
S2140824BC340807203C0807203C0807204408072057
S2140824CC440807204C0807204C0807205408072007
S2140824DC540807205C0807205C08072064080720B7
S2140824EC640807206C0807206C0807207408072067
S2140824FC740807207C0807207C0807208408072017
S21408250C840807208C0807208C08072094080720C6
S21408251C940807209C0807209C080720A408072076
S21408252CA4080720AC080720AC080720B408072026
S21408253CB4080720BC080720BC080720C4080720D6
S21408254CC4080720CC080720CC080720D408072086
S21408255CD4080720DC080720DC080720E408072036
S21408256CE4080720EC080720EC080720F4080720E6
S21408257CF4080720FC080720FC0807200409072095
S21408258C040907200C0907200C0907201409072042
S21408259C140907201C0907201C09072024090720F2
S2140825AC240907202C0907202C09072034090720A2
S2140825BC340907203C0907203C0907204409072052
S2140825CC440907204C0907204C0907205409072002
S2140825DC540907205C0907205C09072064090720B2
S2100825EC6409072000000200FFFFFFFF44
S80408076587
