S023000055534152545F55534152545F53455249414C5F4558414D504C45322E73726563C8
S214080000582A0720F5080800F1080800F108080033
S214080010F1080800F1080800F108080000000000D0
S214080020000000000000000000000000F1080800C2
S214080030F108080000000000F1080800F1080800B0
S214080040F1080800F1080800F1080800F10808009F
S214080050F1080800F1080800F1080800F10808008F
S214080060F1080800F108080000000000290508004B
S2140800703D05080051050800650508000000000059
S21408008000000000F1080800F1080800F108080060
S214080090F1080800F1080800F1080800F10808004F
S2140800A0F108080000000000F1080800F108080040
S2140800B0F1080800F1080800450C0800F1080800D7
S2140800C0F1080800F1080800F1080800F10808001F
S2140800D0F1080800F1080800F1080800F10808000F
S2140800E0F1080800F1080800F1080800F1080800FF
S2140800F0F108080010B5054C237833B9044B13B142
S2140801000448AFF300800123237010BD6C09072054
S214080110000000002C1D0800084B10B51BB108484D
S2140801200849AFF300800848036803B910BD074BB9
S214080130002BFBD0BDE81040184700BF00000000A9
S2140801402C1D0800700907202C1D08000000000060
S21408015010B50E480E4B984700203E210D4B984789
S2140801600D4CA0470028FCD00C4B98470C4A0D4B6A
S2140801709A620D4CA0470028FCD010200B4B9847DD
S2140801800B4B98470148024B984710BD00BD010528
S214080190A5000720E1050800350608004506080002
S2140801A0013F0D2000060E40550608007905080098
S2140801B0A5090800A8B92DE9F0410C469046002A82
S2140801C00ADD8F18084E094D306821462B68984777
S2140801D00134BC42F8D101E04FF000084046BDE8C3
S2140801E0F0814FF0FF307047400A0720380A072092
S2140801F00138022818D82DE9F0410E46144682B177
S2140802000D46DFF838800C4FD8F8000015F8011BAB
S2140802103B68984700280ADBA81B013CF4D1BDE8D8
S214080220F0810020BDE8F0814FF0FF3070474FF0B6
S214080230FF30BDE8F08100BF3C0A0720400A0720CF
S21408024010B54FF40042164B5A600B20154CA047C9
S2140802500C20A0470D20A0470E20A0473B204FF0BB
S2140802606051114CA04755204FF06051A0475620CA
S2140802704FF06051A04768200C49A0475C200C4905
S214080280A0470C484FF440710B4A0C4B98470A207D
S2140802904FF00061A0470B204FF00061A04710BD4B
S2140802A0501A0E4065060800650308007900002805
S2140802B001000028000E0E4001000008390408005E
S2140802C04264B1F1805F16D004D8C1B1B1F1006FB5
S2140802D00AD013E0B1F1405F11D0B1F1605F0ED0E3
S2140802E0B1F1205F0AD17047036F016F0B4023EA14
S2140802F00203036702E0036F134303674260704715
S214080300416412F0010F14BF4166016612F00A0F2D
S21408031014BF0162416212F0020F02D0C0F88010CA
S21408032004E012F0080F18BFC0F88410416101609D
S214080330704700BF10B44164019C0CB1416600E0F0
S21408034001660BB1016500E041650AB1016300E092
S2140803504163016101605DF8044B7047C06C7047EB
S214080360806C704770B582B00D46430903F50013DC
S21408037003F207735C0201F0F043B3F1205F30D05C
S21408038006D8B3F1006F0AD0B3F1805F18D049E001
S214080390B3F1405F30D0B3F1605F2DD042E000F09B
S2140803A01F000126864020464FF0006132461F4B4C
S2140803B0984715F0010F14BF66662666012032E0DE
S2140803C000F01F000126864020464FF08051324636
S2140803D0164B984715F0010F14BF6666266601206F
S2140803E021E000F01F030126204606FA03F12A46FC
S2140803F00F4B9847304616E000F01F03012605F01D
S214080400605205EA06010091204606FA03F1B2F1A9
S214080410605F14BF00220122C5F38003054CA04785
S214080420304600E0002002B070BD00BFC1020800E0
S214080430010308003503080070B582B006460D466D
S214080440144602F0F043B3F1205F26D006D8B3F185
S214080450006F0AD0B3F1805F13D034E0B3F1405F89
S2140804601FD0B3F1605F1CD02DE04FF000612A4624
S214080470164B984714F0010F14BF756635660120B1
S21408048022E04FF080512A46104B984714F0010F8F
S21408049014BF75663566012016E00D4B9847012097
S2140804A012E004F0605204F0010300933046294637
S2140804B0B2F1605F14BF00220122C4F38003054C2A
S2140804C0A047012000E0002002B070BDC10208006D
S2140804D001030800350308002DE9F0410446884664
S2140804E00E4B9847054620460D4B9847054013D0B7
S2140804F00C4C04F160062368434508D1616829421C
S21408050005D0E36840469847636825EA0305B44281
S21408051002D01034002DEED1BDE8F0815D0308004E
S214080520610308008809072008B502480B21024B1A
S214080530984708BD000E0E40D904080008B50248C2
S2140805400C21024B984708BD00100E40D90408003D
S21408055008B502480D21024B984708BD00120E4008
S214080560D904080008B502480E21024B984708BD72
S21408057000140E40D9040800184A136B23F07003C1
S21408058018431063936E13F0080F03D009E0013B7D
S21408059003D11EE04FF4006310498A6E12F0080F6C
S2140805A0F5D00E4A136B23F0030343F002031363DC
S2140805B0906E10F0080004D000207047013B03D16D
S2140805C009E04FF4006305498A6E12F0080FF5D06B
S2140805D07047012070470120704700BF00060E4094
S2140805E038B111490B6A114A1A40114B13430B6272
S2140805F070470D4A136A23F45C1323F0030343F48D
S2140806005C1343F00103090289B20B431362936E2D
S21408061013F0010FFBD0044A136A43F09B7343F4AC
S21408062080331362704700BF00060E40FCFFC8FE0A
S21408063002003701024B986E00F48030704700BF06
S21408064000060E404FF00052014B9A62704700BFFA
S21408065000060E40024B986E00F00200704700BF7E
S21408066000060E402C281ED81F280CD8114B9A6955
S214080670012383401A40934217D0012383400D4A32
S2140806801361002070470B4BD3F80821203801234C
S21408069083401A4093420AD001238340054AC2F891
S2140806A00031002070470120704700207047002066
S2140806B0704700BF00060E4010B489014318022494
S2140806C044504FF0FF319962196A5A605DF8044B3E
S2140806D0704700BF890105234350704700EB81111E
S2140806E0CA61704700EB81114A62704700EB8111BE
S2140806F0086A7047F0B486B002240194082402946D
S21408070020240394802404940A9CE40B05944C0C3F
S214080710B0EB510F1BD8A0421FD201AE012556F8E8
S214080720044FB1FBF4F4270C844212D3874215D940
S2140807300135052DF3D1002013E006A901EB85014C
S21408074051F8141C116033B11D60012009E0002027
S21408075007E0002005E0012003E00025002AECD190
S214080760F1E706B0F0BC704710B4AC2303600B6822
S2140807704A68B3FBF2F31B095C1E4FF6FE729442FE
S2140807800AD803628B68436040F20223C0F820311F
S21408079050230360002000E001205DF8044B7047FA
S2140807A0436913F0020F1ABFC16100200120704789
S2140807B0436913F0010F1DBF83690B7000200120E9
S2140807C0704700BF10B40B0193420FD91CE002F02B
S2140807D00702416841F40021416043EA024202628E
S2140807E000201EE001201CE001201AE0D20002EBE7
S2140807F05302B2FBF3F2D3085C1E4FF6FE718C422E
S214080800F0D802F00702E8E7C900D20002EB51026E
S214080810B2FBF1F2D3085C1E4FF6FE718C42D6D9B5
S214080820E2E75DF8044B7047084BC0F8E430002355
S21408083043604362836288230360242303604FF483
S214080840807303604FF400230360704700415355DC
S21408085070B505460C4616460F4B984700220F4BB8
S2140808601A609CB12846216832460D4B98470246C6
S21408087070B9A1686368194323691943E3680B4391
S21408088006490B6069680B436B6002E0012200E0D2
S2140808900122104670BD00BF29080800F809072085
S2140808A0C507080040230360704700BFC160704753
S2140808B0436913F0020F1DBFC1F30801C161002090
S2140808C001207047436913F0020FFBD0C1F30801FB
S2140808D0C1610020704700BF436913F0010F05D0BF
S2140808E08369C3F308030B60002070470120704734
S2140808F0FEE700BF08B51F4B1F4A9A4203D01F4B9E
S2140809001C4A9A4204D31E4B1E4A9A4210D31BE036
S21408091018490A1D1C4B9B1A23F003030433164A76
S214080920134452F8040B41F8040B9A42F9D1EAE74B
S214080930164B174AD21A22F003021A44043B002127
S21408094043F8041B9342FBD1124B23F0604222F07B
S2140809507F0211498A6003F16043B3F5801F03D212
S2140809608B6843F000538B600C4B98470C4B9847AA
S214080970FEE700BF000007202C1D08006C090720B2
S214080980580A07206C0907206F09072070090720F6
S2140809905B0A07200000080000ED00E0F90D0800DB
S2140809A0AD0C08003E4B1B6B03F00303032B5FD80C
S2140809B0DFE803F0020E2B2B3A4B5B6913F0800F2F
S2140809C014BF4FF400424FF4FA42374B1A604FE018
S2140809D0334B1B6A13F0807F03D0344A324B1A60BD
S2140809E046E0334A304B1A602D4B1B6A03F07003FF
S2140809F0102B02D0202B04D03AE02E4A2A4B1A603D
S214080A0036E02A4A284B1A6032E0254B1B6A13F058
S214080A10807F03D0254A244B1A6012E0244A224BD2
S214080A201A601F4B1B6A03F07003102B02D0202B92
S214080A3004D006E01F4A1C4B1A6002E01B4A1A4BF9
S214080A401A60174B1B6B03F00303022B0DD1144AD5
S214080A50936A926A1448C3F30A41036801FB033396
S214080A60D2B2B3FBF2F3036002E0134A0E4B1A60ED
S214080A700B4B1B6B03F07003702B07D10A4A1368E5
S214080A800E49A1FB03135B0813607047044B1A6BEF
S214080A900549C2F302120B68D3400B60704700BFCB
S214080AA000060E40101A0E402C010720001BB70047
S214080AB000093D0000127A00001C4E0EABAAAAAA36
S214080AC0094B1B6813B9094A074B1A60064B1B6883
S214080AD01A180749914204DB1046034A1060184664
S214080AE070474FF0FF307047FC090720582A072048
S214080AF0FC7F08204FF0FF30704700BF002070478B
S214080B00F0B583B004460D46002301931F4B984268
S214080B1007D11F461E4E38462946B0470028FAD148
S214080B2019E01C4B984209D11F461B4E384601A9AE
S214080B30B0470028FAD1019B2B7019E0174B984252
S214080B4009D11E46144C304601A9A0470028FAD100
S214080B50019B2B7018E0124B9C4209D11E460E4C86
S214080B60304601A9A0470028FAD1019B2B700BE05C
S214080B700C4B9C4208D11E46074C304601A9A0479C
S214080B800028FAD1019B2B7003B0F0BD00080E4078
S214080B90B107080000800940D908080000C00940CD
S214080BA000000A4000400A4070B50C461E4B9842AA
S214080BB008D11E461D4D30462146A8470028FAD1C2
S214080BC0012070BD1A4B984208D11E46194D304672
S214080BD02146A8470028FAD1012070BD164B984236
S214080BE008D11E46134D30462146A8470028FAD19C
S214080BF0012070BD114B984208D11E460D4D304657
S214080C002146A8470028FAD1012070BD0C4B98420F
S214080C1008D11E46074D30462146A8470028FAD177
S214080C20012070BD002070BD00080E40A107080016
S214080C3000800940B108080000C0094000000A40CA
S214080C4000400A40F8B514480021144B984710F0A5
S214080C50100F20D0124B18221A7000225A70FF204C
S214080C60910041F001019970D87001320233062ACA
S214080C70F6D10C4F384618210B4EB047084D2C4677
S214080C80384614F8011FB0470D35384614F8011FCA
S214080C90B047AC42F9D1F8BD00400840ED06080060
S214080CA0440A072000800940C508080080B58AB0B5
S214080CB0364B9847364B98470820364EB047364C42
S214080CC0364B1C60364A374B1A60374A374B1A6021
S214080CD0374F04974FF4E13305934FF400630693B8
S214080CE00820B047204604A9324B9847324D2B6857
S214080CF098680021314CA0472B6858680021A04707
S214080D0004AC2F4D0FCD0FC495E8030084E803000C
S214080D101120B0472B4C204604A93A462A4B984740
S214080D2020464FF0FF31294B98472046284B9847D6
S214080D30284D2F601E20B04729680091322003AA4C
S214080D4004AB254CA047254C20460021049A42F4C3
S214080D508042234B98472B68039AB3FBF2F3214A49
S214080D60A2FB03322046002112091F4B98474FF07A
S214080D7080421E4B1A602046002110221C4B9847C2
S214080D80204600211B4B9847FEE700BF510108008C
S214080D90410208006506080000080E40400A0720C1
S214080DA0A90B08003C0A0720010B0800380A072090
S214080DB000BD01056907080058050720E50E08006C
S214080DC0E81C08000080094051080800AD08080023
S214080DD0A5080800000A0720F50608000040084095
S214080DE0B90608001F85EB51DD06080000E100E0A3
S214080DF0E5060800D506080070B50F4E0F4D761BA1
S214080E00B61018BF002405D0013455F8043B98479F
S214080E10A642F9D10A4E0B4D00F076FF761BB610A7
S214080E2018BF002406D0013455F8043B9847A6425C
S214080E30F9D170BD70BD00BF141D0800141D080050
S214080E401C1D0800141D080070B4840746D0541EE4
S214080E50002A41D0CDB2034602E0621EE4B314462F
S214080E6003F8015B9A07F8D1032C2ED9CDB245EAD0
S214080E7005250F2C45EA054519D9264603F1100223
S214080E80103E0F2E42F8105C42F80C5C42F8085CE4
S214080E9042F8045C02F11002F2D8A4F1100222F023
S214080EA00F0204F00F041032032C13440DD91E460B
S214080EB02246043A032A46F8045BFAD8221F22F090
S214080EC003020432134404F003042CB1C9B21C44D0
S214080ED003F8011BA342FBD170BC704714460346B7
S214080EE0C2E700BF00290CBF022200224FF480632D
S214080EF000F000B82DE9F0413A4D04462E689046B9
S214080F000D461F4616B1B36B002B3CD0B8F1020F46
S214080F102FD8002F2DDB2146304600F01BF9A1897B
S214080F2000236360A3610B0627D421F0830189B2EE
S214080F30B8F1020FA1812AD0002D36D0B8F1010FE2
S214080F4011D089B201F00800274B80B2F363256000
S214080F502561676178B111F0030F18BF00270020DC
S214080F60A760BDE8F08141F001017B42A181A36141
S214080F70E7E74FF0FF30BDE8F0812169304600F022
S214080F80EBF9A189D1E7304600F078F9BEE70020F2
S214080F9004F1430341F0020100250122A181A56066
S214080FA0236023616261BDE8F081002F08BF4FF41B
S214080FB08067384600F0D0FA054628B1A18941F086
S214080FC0800189B2A181B9E74FF4806000F0C4FAC5
S214080FD0054618B9A1894FF0FF30D9E74FF4806766
S214080FE0ECE700BF5805072081110800024B13B133
S214080FF0024800F005B8704700000000911208008B
S214081000014600200246034600F0A0BD8B892DE964
S214081010F0419AB20D46110780463CD46A6843F4FC
S2140810200063002AAB8165DDAE6A002E4BD09BB20A
S21408103003F48052002192B2D8F80040C8F8001095
S214081040002A5BD02A6D5F0705D569682B6B521A94
S2140810500BB1EB6BD21A4046E9690023B047461C31
S21408106056D0AB892A6923F400639BB200212A6014
S214081070DA04AB8169603BD4296BC8F8004011B329
S21408108005F14003994202D0404600F065F9002079
S2140810902863BDE8F0812E69AEB191072C680CBFB5
S2140810A06B6900232E60A41BAB600AE03246234619
S2140810B06F6A4046E969B8470028A4EB000406446E
S2140810C004DD002CF2DC0020BDE8F081AB894FF08F
S2140810D0FF3043F04003AB81BDE8F081AB892A6955
S2140810E023F400639BB2AB81DB0469602A60C3D536
S2140810F02865C1E7EA6B002A96DCE4E70123404648
S214081100E969B047431C024619D0AB89AE6A9AE72C
S214081110D8F800100029E1D01D2907D0162905D0D7
S214081120AB8943F04003AB81BDE8F081AB89296900
S21408113023F400630022AB8185E806009CE7D8F814
S2140811400030002BE1D01D2B01D0162BBED1C8F8DD
S2140811500040B8E710B5044682B008B1836B53B1B7
S214081160B1F90C0008B902B010BD204602B0BDE8BF
S2140811701040FFF74BBF019100F080F80199EFE7A8
S214081180014900F0C1B900BF151C08002DE9F04F51
S214081190074635487D68002407F53B72042303217B
S2140811A0F863C7F8E412C7F8E822C7F8E04283B045
S2140811B02C606C60AC606C66EC812C616C61AC6118
S2140811C0AB81214605F15C000822FFF73DFEDFF8FB
S2140811D09CB0BE68DFF898A0DFF89890DFF8988093
S2140811E001230922C5F820B0C5F824A0C5F8289020
S2140811F0C5F82C80ED612146F381B28106F15C00CA
S21408120034607460B460746634617461B4610822D2
S2140812100193FFF719FEFD6812200222F661C6F850
S21408122020B0C6F824A0C6F82890C6F82C80214618
S214081230A881EA812C606C60AC606C662C616C617D
S214081240AC6105F15C000822FFF7FEFD019BED612D
S214081250C5F820B0C5F824A0C5F82890C5F82C8095
S214081260BB6303B0BDE8F08F81110800A11A08001F
S214081270C51A0800FD1A08001D1B0800836B03B179
S2140812807047FFF783BF00BF704700BF704700BFB7
S21408129038B5084B084DED1AAC1018BFED1805D038
S2140812A0013C55F8043D9847002CF9D1BDE8384074
S2140812B000F034BD281D08002C1D0800F8B50C46A3
S2140812C0224F064600F0D6FBBB685D6825F003058E
S2140812D0291B01F6EF7121F47F6121F00F01A1F5BA
S2140812E08054B4F5805F07DB3046002100F0C6FB6B
S2140812F0BB682B44984204D0304600F0BDFB002063
S214081300F8BD3046614200F0B9FB01300DD0104BF5
S214081310BA6819682D1B45F001053046091B55604B
S214081320196000F0A9FB0120F8BD3046002100F046
S214081330A5FBBA68831A0F2BDEDD064C0449246821
S21408134043F00103001B53600860D5E75C050720DF
S214081350100A07206809072000294ED02DE9F04119
S2140813600C46804600F086FB54F8047C6249A4F1DB
S214081370080527F00102AB188E6858689E4220F0D0
S21408138003005AD0FE0758600BD454F8087C01F1C5
S214081390080EED1BAC683A44744567D0EF68E76002
S2140813A0BC601C186468E4070CD4544F9C6802445C
S2140813B0BC427CD0D86842F00103E06084606B6071
S2140813C0AA5003E042F001036B60AA50B2F5007F12
S2140813D014D2D20801EBC20301244868921004FA1A
S2140813E002F29C681043AC60EB6048609D60E56064
S2140813F04046BDE8F04100F03FBB7047530A042B57
S21408140047D8930903F13804600001EB800083682D
S2140814103949834243D0596821F00301914202D9E1
S2140814209B689842F7D1DA68EA60AB6040469560F8
S214081430DD60BDE8F04100F01FBBFF07024407D49B
S21408144054F8084C2D1BEB68A8682244C3609860C3
S2140814502B4B42F001001B6868609A428D60C7D328
S214081460284B40461968FFF729FFC1E7191849684D
S214081470C90709D4D96802449B6842F00100D960BC
S2140814808B606860AA50B3E742F001036B60AA500D
S214081490AEE7142B14D803F15B046000B5E74A687E
S2140814A0A4100120A04002434A601A46BCE742F056
S2140814B001034D610D61EC60AC606B60AA5097E764
S2140814C0542B04D8130B03F16E0460009DE7B3F5A4
S2140814D0AA7F04D8D30B03F17704600095E740F29F
S2140814E05450834204D8930C03F17C0460008CE7C4
S2140814F0FC207E2489E700BF5C05072064050720DA
S214081500640907200C0A07202DE9F84310F53876F9
S2140815101ED0884607464FF000097568B468013D36
S21408152010D4A389013D012B08D9B4F90E30013334
S21408153004D038462146C04749EA00096B1C04F126
S2140815406804EED13668002EE7D14846BDE8F88331
S214081550B1464846BDE8F883024B0146186800F0D5
S21408156003B800BF580507202DE9F04F01F10B0519
S214081570162D83B0064627D935F0070500F1B68044
S214081580A94200F2B38000F075FAB5F5FC7F22D2C6
S214081590BC4FE80807EBC003DC689C4200F0BC813F
S2140815A06368E16823F0030323445A68A56842F099
S2140815B00102E96030468D605A6000F05DFA083432
S2140815C0204603B0BDE8F08F102900F28F8000F0A7
S2140815D051FA1025DCE7680A00F08F80042800F22C
S2140815E04781A80938304100A64F07EB8101CC682F
S2140815F0A14206D10CE0002A80F28280E468A1426B
S21408160006D0636823F003035A1B0F2AF3DD01385C
S21408161001309C493C6901F1080E744500F071815F
S214081620636823F003035A1B0F2A00F35781002A26
S214081630C1F814E0C1F810E066DAB3F5007F80F070
S2140816402D81DB0801EBC3084FEAA30C4A68012387
S21408165003FA0CF3D8F808C01343C4F808C0C4F853
S2140816600C804B60C8F80840CCF80C408210012467
S21408167094409C4255D8234206D120F003006400CB
S214081680234200F10400FAD007EBC008C44681469E
S214081690DCF80C309C4507D135E1002980F24581FD
S2140816A0DB689C4500F02F815A6822F00302511B24
S2140816B00F29F2DD1C46DA6854F808CF45F0010910
S2140816C041F001081D44C3F804903046CCF80C20BD
S2140816D0C2F808C07D613D61C5F80CE0C5F808E0B1
S2140816E0C5F80480695000F0C7F969E70024204669
S2140816F00C23336003B0BDE8F08F7E213F2073E7EC
S21408170023445A68E16851E723445A68304642F051
S21408171001025A60083400F0AFF9204603B0BDE86D
S214081720F08FBC68636823F00308454504D8C5EB0A
S21408173008030F2B00F38C80534BDFF85CA11A6864
S214081740DAF800302A44013304EB080B00F0518124
S21408175002F580520F3222F47F6222F00F02114601
S2140817603046019200F08AF9B0F1FF3F8146019AAF
S21408177000F04881834500F2EF80444BCB4519685A
S2140817801144196000F04381DAF80000DFF808E138
S21408179001301BBFCBEB090B5944CEF800901960FB
S2140817A019F0070100F00881C1F10800C1F5805161
S2140817B0814408314A44C2F30B02C2EB010A51467F
S2140817C03046019300F05AF9431C019B00F02D8126
S2140817D0C9EB0002524442F001021968BC42514467
S2140817E0C7F808901960C9F80420DFF8A0A016D03A
S2140817F0B8F10F0F40F2EF806268A8F10C0323F0EF
S214081800070302F00102E0184FF0050E1A430F2BEB
S2140818106260C0F804E0C0F808E000F20A811C4BD9
S214081820BC681A68914288BF19601A4B1A689142B8
S214081830626888BF196022F003029542A2EB05038E
S21408184001D80F2B04DC304600F016F90024B7E662
S21408185045F0010243F00103254462603046BD604E
S21408186008346B6000F008F9204603B0BDE8F08F36
S214081870142869D9542800F29880280B6E30410045
S214081880B2E600BF5C0507200C0A0720100A0720EE
S214081890080A0720040A0720680907205A0A042AA3
S2140818A055D9142A00F2A7805B324FEA420C07EBA0
S2140818B08C0CDCF80810DFF8B88161457FD04A68E0
S2140818C022F00302934202D289688C45F7D1CA688F
S2140818D07B68E260A1609460CC60C7E645F00107CB
S2140818E042F001032544676030464D610D61C5F836
S2140818F00CE0C5F808E06B60AA50083400F0BCF8A5
S2140819005EE64B68B2E609F1010919F0030F0CF11F
S214081910080C7FF4BDAE2CE004F108036469A3420A
S21408192008BF02303FF475AE3AE61C461A445168C2
S214081930DB6854F8085F41F0010151603046EB60FF
S2140819409D6000F099F83BE65B3041004CE69A094A
S21408195038324FEA420CAAE7BC42454B3FF40DAF7B
S2140819609C68626822F0030267E7D8F8008098450A
S2140819707CD110F0030FA8F1080300F1FF30F4D172
S2140819807B6823EA04037B6064009C423FF6C9AE8A
S214081990002C3FF4C6AE234248467FF475AE64007A
S2140819A0234200F10400FAD06EE6B0F5AA7F18D8F4
S2140819B0E80B7730410017E64FF48051FAE6D8F87E
S2140819C0043092104FF0010C0CFA02F21343C8F8D8
S2140819D004300A467DE70123C9F804304C46002245
S2140819E02BE740F2545398421CD8A80C7C30410090
S2140819F0FAE51032B3E6542A23D81A0B6E324FEAA9
S214081A00420C54E7BC68626822F0030215E7CBF381
S214081A100B0000287FF4B8AE4244BB6842F00102CF
S214081A205A60FCE6FC217E20DEE501224FF0000A23
S214081A30D3E604F108013046FFF78EFCDAF800100A
S214081A40EDE6B2F5AA7F04D8DA0B77324FEA420CF5
S214081A502DE740F254518A4204D89A0C7C324FEA59
S214081A60420C24E74FF0FC0C7E2220E77B688BE7CD
S214081A705C050720704700BF704700BF38B5074CA5
S214081A800023054608462360FFF71AF8431C00D0D3
S214081A9038BD2368002BFBD02B6038BD540A0720BE
S214081AA010B50C46B1F90E1000F00AF9002803DB51
S214081AB0236D0344236510BDA38923F48053A381B3
S214081AC010BD00BF2DE9F0410C4689891D46CB059F
S214081AD01646074606D5B4F90E100022022300F073
S214081AE0DBF8A18921F48051A1813846B4F90E109B
S214081AF032462B46BDE8F04100F014B810B50C4647
S214081B00B1F90E1000F0C8F8A389421C0EBF23F4E2
S214081B10805343F480532065A38110BDB1F90E109D
S214081B2000F066B870B5084C06460025084611460B
S214081B301A462560FEF75CFB431C00D070BD236880
S214081B40002BFBD0336070BD540A07202DE9F04700
S214081B50254C064625688846D5F848419246994653
S214081B60C4B360681F2817DC411C76B104EB8003F9
S214081B70C3F888A0D4F88851012282401543022E63
S214081B80C4F88851C3F808911ED0831C61600020F1
S214081B9044F82380BDE8F087144B03B34FF4C870AD
S214081BA0FFF7DAFC0446D0B1D5F84831002784E8B8
S214081BB088003846C5F848410121C4F88871C4F839
S214081BC08C71002EE1D0D1E7D4F88C311A43C4F8D2
S214081BD08C21DAE705F5A674C5F84841C1E74FF049
S214081BE0FF30BDE8F08700BF041D0800591508003F
S214081BF038B5074C0023054608462360FEF77AFFEB
S214081C00431C00D038BD2368002BFBD02B6038BDA2
S214081C10540A072000293DD070B505460C4608B181
S214081C20836B7BB3B4F90C300BB9002070BD284623
S214081C302146FFF7EBF9E36A064633B12846E16921
S214081C4098470028B8BF4FF0FF36A3891B061CD458
S214081C50216B41B104F14003994202D02846FFF7B0
S214081C607BFB00232363616C21B12846FFF774FBD6
S214081C7000236364FFF708FB0023A381FFF706FB36
S214081C80304670BDFFF7FAFACCE728462169FFF719
S214081C9063FBDDE70020704770B5084C0646002554
S214081CA0084611461A462560FEF728FF431C00D052
S214081CB070BD2368002BFBD0336070BD540A072024
S214081CC070B5084C06460025084611461A46256093
S214081CD0FEF770FA431C00D070BD2368002BFBD0BB
S214081CE0336070BD540A072000C20100C00000001F
S214081CF000080000000000000000000000000000CF
S214081D004300000030010720F8B500BFF8BC08BC47
S214081D109E467047ED0F080019010800F8B500BF89
S210081D20F8BC08BC9E467047F50008009A
S214081D2C4FF48063204A136002F5007213601F4B51
S214081D3C1B6A13F0807F07D11D4A1C4B1A621A4681
S214081D4C936E13F0010FFBD01A4A184B1A621A46F8
S214081D5C936E13F4803FFBD0144A136B23F00303E3
S214081D6C43F001031363936E13F0080FFBD0124A6B
S214081D7C0E4B9A621A46936E13F0020FFBD0112282
S214081D8C0A4B1A631A46936E13F0080FFBD01222EE
S214081D9C064B1A631A46936E13F0080FFBD0074AC5
S214081DAC074B1A60704700BF000A0E4000060E402C
S214081DBC0908370009083701013F0D2000BD010549
S214081DCC2C0107201B4B984206D800231A4A13608E
S214081DDC02F5007213607047184B984207D84FF4F8
S214081DEC8073154A136002F5007213607047144B23
S214081DFC984207D84FF400730F4A136002F5007226
S214081E0C136070470F4B984207D84FF440730A4A32
S214081E1C136002F50072136070470B4B984294BF20
S214081E2C4FF480634FF4A063034A136002F5007204
S214081E3C13607047BFEA2101000A0E407FF0FA02D1
S214081E4CFF8FD003FFB3C4047F4A5D0500093D002D
S214081E5C000000001C04072084040720EC0407205C
S214081E6C0000000000000000000000000000000059
S214081E7C0000000000000000000000000000000049
S214081E8C00000000001D0800000000000000000014
S214081E9C0000000000000000000000000000000029
S214081EAC0000000000000000000000000000000019
S214081EBC0000000000000000000000000000000009
S214081ECC00000000000000000000000000000000F9
S214081EDC00000000000000000000000000000000E9
S214081EEC00000000000000000000000000000000D9
S214081EFC00000000000000000100000000000000C8
S214081F0C0E33CDAB34126DE6ECDE05000B0000008C
S214081F1C00000000000000000000000000000000A8
S214081F2C0000000000000000000000000000000098
S214081F3C0000000000000000000000000000000088
S214081F4C0000000000000000000000000000000078
S21408227C00000000000000003001072000000000ED
S21408228C000000005C0507205C0507206405072095
S21408229C640507206C0507206C05072074050720C5
S2140822AC740507207C0507207C0507208405072075
S2140822BC840507208C0507208C0507209405072025
S2140822CC940507209C0507209C050720A4050720D5
S2140822DCA4050720AC050720AC050720B405072085
S2140822ECB4050720BC050720BC050720C405072035
S2140822FCC4050720CC050720CC050720D4050720E5
S21408230CD4050720DC050720DC050720E405072094
S21408231CE4050720EC050720EC050720F405072044
S21408232CF4050720FC050720FC05072004060720F3
S21408233C040607200C0607200C06072014060720A0
S21408234C140607201C0607201C0607202406072050
S21408235C240607202C0607202C0607203406072000
S21408236C340607203C0607203C06072044060720B0
S21408237C440607204C0607204C0607205406072060
S21408238C540607205C0607205C0607206406072010
S21408239C640607206C0607206C06072074060720C0
S2140823AC740607207C0607207C0607208406072070
S2140823BC840607208C0607208C0607209406072020
S2140823CC940607209C0607209C060720A4060720D0
S2140823DCA4060720AC060720AC060720B406072080
S2140823ECB4060720BC060720BC060720C406072030
S2140823FCC4060720CC060720CC060720D4060720E0
S21408240CD4060720DC060720DC060720E40607208F
S21408241CE4060720EC060720EC060720F40607203F
S21408242CF4060720FC060720FC06072004070720EE
S21408243C040707200C0707200C070720140707209B
S21408244C140707201C0707201C070720240707204B
S21408245C240707202C0707202C07072034070720FB
S21408246C340707203C0707203C07072044070720AB
S21408247C440707204C0707204C070720540707205B
S21408248C540707205C0707205C070720640707200B
S21408249C640707206C0707206C07072074070720BB
S2140824AC740707207C0707207C070720840707206B
S2140824BC840707208C0707208C070720940707201B
S2140824CC940707209C0707209C070720A4070720CB
S2140824DCA4070720AC070720AC070720B40707207B
S2140824ECB4070720BC070720BC070720C40707202B
S2140824FCC4070720CC070720CC070720D4070720DB
S21408250CD4070720DC070720DC070720E40707208A
S21408251CE4070720EC070720EC070720F40707203A
S21408252CF4070720FC070720FC07072004080720E9
S21408253C040807200C0807200C0807201408072096
S21408254C140807201C0807201C0807202408072046
S21408255C240807202C0807202C08072034080720F6
S21408256C340807203C0807203C08072044080720A6
S21408257C440807204C0807204C0807205408072056
S21408258C540807205C0807205C0807206408072006
S21408259C640807206C0807206C08072074080720B6
S2140825AC740807207C0807207C0807208408072066
S2140825BC840807208C0807208C0807209408072016
S2140825CC940807209C0807209C080720A4080720C6
S2140825DCA4080720AC080720AC080720B408072076
S2140825ECB4080720BC080720BC080720C408072026
S2140825FCC4080720CC080720CC080720D4080720D6
S21408260CD4080720DC080720DC080720E408072085
S21408261CE4080720EC080720EC080720F408072035
S21408262CF4080720FC080720FC08072004090720E4
S21408263C040907200C0907200C0907201409072091
S21408264C140907201C0907201C0907202409072041
S21408265C240907202C0907202C09072034090720F1
S21408266C340907203C0907203C09072044090720A1
S21408267C440907204C0907204C0907205409072051
S21008268C5409072000000200FFFFFFFFB3
S8040808F5F6
