:0200000280007C
:10000000702A07204507080041070800410708003B
:1000100041070800410708004107080000000000F0
:100020000000000000000000000000004107080080
:1000300041070800000000004107080041070800D0
:100040004107080041070800410708004107080070
:100050004107080041070800410708004107080060
:1000600041070800410708000000000029050800BA
:100070003D05080051050800650508000000000066
:100080000000000041070800410708004107080080
:100090004107080041070800410708004107080020
:1000A0004107080000000000410708004107080060
:1000B0004107080041070800410708004107080000
:1000C00041070800410708004107080041070800F0
:1000D00041070800410708004107080041070800E0
:1000E00041070800410708004107080041070800D0
:1000F0004107080010B5054C237833B9044B13B100
:100100000448AFF300800123237010BD9C09072031
:100110000000000008610800084B10B51BB108483A
:100120000849AFF300800848036803B910BD074BC6
:10013000002BFBD0BDE81040184700BF00000000B6
:1001400008610800A00907200861080000000000FD
:1001500010B50E480E4B984700203E210D4B984796
:100160000D4CA0470028FCD00C4B98470C4A0D4B77
:100170009A620D4CA0470028FCD010200B4B9847EA
:100180000B4B98470148024B984710BD00BD010535
:10019000A5000720E105080035060800450608000F
:1001A000013F0D2000060E405506080079050800A5
:1001B000F5070800A8B92DE9F0410C469046002A41
:1001C0000ADD8F18084E094D306821462B68984784
:1001D0000134BC42F8D101E04FF000084046BDE8D0
:1001E000F0814FF0FF307047680A0720600A07204F
:1001F0000138022818D82DE9F0410E46144682B184
:100200000D46DFF838800C4FD8F8000015F8011BB8
:100210003B68984700280ADBA81B013CF4D1BDE8E5
:10022000F0810020BDE8F0814FF0FF3070474FF0C3
:10023000FF30BDE8F08100BF640A0720680A07208C
:1002400010B54FF40042164B5A600B20154CA047D6
:100250000C20A0470D20A0470E20A0473B204FF0C8
:100260006051114CA04755204FF06051A0475620D7
:100270004FF06051A04768200C49A0475C200C4912
:10028000A0470C484FF440710B4A0C4B984755203F
:100290004FF08051A04756204FF08051A04710BD2D
:1002A000501A0E4065060800650308007900002812
:1002B00001000028000E0E4001000008390408006B
:1002C0004264B1F1805F16D004D8C1B1B1F1006FC2
:1002D0000AD013E0B1F1405F11D0B1F1605F0ED0F0
:1002E000B1F1205F0AD17047036F016F0B4023EA21
:1002F0000203036702E0036F134303674260704722
:10030000416412F0010F14BF4166016612F00A0F3A
:1003100014BF0162416212F0020F02D0C0F88010D7
:1003200004E012F0080F18BFC0F8841041610160AA
:10033000704700BF10B44164019C0CB1416600E0FD
:1003400001660BB1016500E041650AB1016300E09F
:100350004163016101605DF8044B7047C06C7047F8
:10036000806C704770B582B00D46430903F50013E9
:1003700003F207735C0201F0F043B3F1205F30D069
:1003800006D8B3F1006F0AD0B3F1805F18D049E00E
:10039000B3F1405F30D0B3F1605F2DD042E000F0A8
:1003A0001F000126864020464FF0006132461F4B59
:1003B000984715F0010F14BF66662666012032E0EB
:1003C00000F01F000126864020464FF08051324643
:1003D000164B984715F0010F14BF6666266601207C
:1003E00021E000F01F030126204606FA03F12A4609
:1003F0000F4B9847304616E000F01F03012605F02A
:10040000605205EA06010091204606FA03F1B2F1B6
:10041000605F14BF00220122C5F38003054CA04792
:10042000304600E0002002B070BD00BFC1020800ED
:10043000010308003503080070B582B006460D467A
:10044000144602F0F043B3F1205F26D006D8B3F192
:10045000006F0AD0B3F1805F13D034E0B3F1405F96
:100460001FD0B3F1605F1CD02DE04FF000612A4631
:10047000164B984714F0010F14BF756635660120BE
:1004800022E04FF080512A46104B984714F0010F9C
:1004900014BF75663566012016E00D4B98470120A4
:1004A00012E004F0605204F0010300933046294644
:1004B000B2F1605F14BF00220122C4F38003054C37
:1004C000A047012000E0002002B070BDC10208007A
:1004D00001030800350308002DE9F0410446884671
:1004E0000E4B9847054620460D4B9847054013D0C4
:1004F0000C4C04F160062368434508D16168294229
:1005000005D0E36840469847636825EA0305B4428E
:1005100002D01034002DEED1BDE8F0815D0308005B
:1005200061030800B809072008B502480B21024BF7
:10053000984708BD000E0E40D904080008B50248CF
:100540000C21024B984708BD00100E40D90408004A
:1005500008B502480D21024B984708BD00120E4015
:10056000D904080008B502480E21024B984708BD7F
:1005700000140E40D9040800184A136B23F07003CE
:1005800018431063936E13F0080F03D009E0013B8A
:1005900003D11EE04FF4006310498A6E12F0080F79
:1005A000F5D00E4A136B23F0030343F002031363E9
:1005B000906E10F0080004D000207047013B03D17A
:1005C00009E04FF4006305498A6E12F0080FF5D078
:1005D0007047012070470120704700BF00060E40A1
:1005E00038B111490B6A114A1A40114B13430B627F
:1005F00070470D4A136A23F45C1323F0030343F49A
:100600005C1343F00103090289B20B431362936E3A
:1006100013F0010FFBD0044A136A43F09B7343F4B9
:1006200080331362704700BF00060E40FCFFC8FE17
:1006300002003701024B986E00F48030704700BF13
:1006400000060E404FF00052014B9A62704700BF07
:1006500000060E40024B986E00F00200704700BF8B
:1006600000060E402C281ED81F280CD8114B9A6962
:10067000012383401A40934217D0012383400D4A3F
:100680001361002070470B4BD3F808212038012359
:1006900083401A4093420AD001238340054AC2F89E
:1006A0000031002070470120704700207047002073
:1006B000704700BF00060E4010B4AC2303600B6807
:1006C0004A68B3FBF2F31B095C1E4FF6FE729442BC
:1006D0000AD803628B68436040F20223C0F82031DD
:1006E00050230360002000E001205DF8044B7047B8
:1006F000436913F0020F1ABFC16100200120704747
:10070000436913F0010F1DBF83690B7000200120A6
:10071000704700BF436913F0020F1DBFC1F308010A
:10072000C161002001207047436913F0010F05D01B
:100730008369C3F308030B600020704701207047F2
:10074000FEE700BF08B51F4B1F4A9A4203D01F4B5C
:100750001C4A9A4204D31E4B1E4A9A4210D31BE0F5
:1007600018490A1D1C4B9B1A23F003030433164A35
:10077000134452F8040B41F8040B9A42F9D1EAE70A
:10078000164B174AD21A22F003021A44043B0021E6
:1007900043F8041B9342FBD1124B23F0604222F03A
:1007A0007F0211498A6003F16043B3F5801F03D2D1
:1007B0008B6843F000538B600C4B98470C4B984769
:1007C000FEE700BF00000720086108009C09072021
:1007D000700A07209C0907209F090720A00907200D
:1007E000730A07200000080000ED00E0E52F080074
:1007F000510D08003E4B1B6B03F00303032B5FD826
:10080000DFE803F0020E2B2B3A4B5B6913F0800FED
:1008100014BF4FF400424FF4FA42374B1A604FE0D6
:10082000334B1B6A13F0807F03D0344A324B1A607B
:1008300046E0334A304B1A602D4B1B6A03F07003BD
:10084000102B02D0202B04D03AE02E4A2A4B1A60FB
:1008500036E02A4A284B1A6032E0254B1B6A13F017
:10086000807F03D0254A244B1A6012E0244A224B91
:100870001A601F4B1B6A03F07003102B02D0202B51
:1008800004D006E01F4A1C4B1A6002E01B4A1A4BB8
:100890001A60174B1B6B03F00303022B0DD1144A94
:1008A000936A926A1448C3F30A41036801FB033355
:1008B000D2B2B3FBF2F3036002E0134A0E4B1A60AC
:1008C0000B4B1B6B03F07003702B07D10A4A1368A4
:1008D0000E49A1FB03135B0813607047044B1A6BAE
:1008E0000549C2F302120B68D3400B60704700BF8A
:1008F00000060E40101A0E402C010720001BB70006
:1009000000093D0000127A00001C4E0EABAAAAAAF4
:10091000094B1B6813B9094A074B1A60064B1B6841
:100920001A180749914204DB1046034A1060184622
:1009300070474FF0FF307047280A0720702A0720C1
:10094000FC7F08204FF0FF30704700BF4FF400538A
:100950004B600020704700BF0120704700207047A7
:10096000F0B583B004460D46002301931F4B984217
:1009700007D11F461E4E38462946B0470028FAD1F7
:1009800019E01C4B984209D11F461B4E384601A95D
:10099000B0470028FAD1019B2B7019E0174B984201
:1009A00009D11E46144C304601A9A0470028FAD1AF
:1009B000019B2B7018E0124B9C4209D11E460E4C35
:1009C000304601A9A0470028FAD1019B2B700BE00B
:1009D0000C4B9C4208D11E46074C304601A9A0474B
:1009E0000028FAD1019B2B7003B0F0BD00080E4027
:1009F00001070800008009402907080000C00940DD
:100A000000000A4000400A4070B50C461E4B984258
:100A100008D11E461D4D30462146A8470028FAD170
:100A2000012070BD1A4B984208D11E46194D304620
:100A30002146A8470028FAD1012070BD164B9842E4
:100A400008D11E46134D30462146A8470028FAD14A
:100A5000012070BD114B984208D11E460D4D304605
:100A60002146A8470028FAD1012070BD0C4B9842BE
:100A700008D11E46074D30462146A8470028FAD126
:100A8000012070BD002070BD00080E40F106080076
:100A9000008009401507080000C0094000000A4016
:100AA00000400A40000000002DE9F04F85B00190A1
:100AB00093469A4610461946934B984720B9934B54
:100AC0001868019B186015E1584651468E4B9847AF
:100AD000012804D18E4B1868019B18600AE1584622
:100AE0005146002200238B4CA04720B18A4B1B8823
:100AF000019A1380FEE05846514600220023874C9D
:100B0000A047003018BF01200546002800F0E7800C
:100B10000AF100439A4658461946814B9847814B43
:100B2000984704460D2809DC08280ADC14F1080F50
:100B3000ACBF0023012302932DB909E001230293E6
:100B400001E001230293019A551C2D23137004E048
:100B5000019D02E0019D01230293029BFBB1002C49
:100B600009DA2046704B98470022704B704CA04722
:100B70006C4B9847044620466B4B984702460B4601
:100B800000206C496C4EB04702460B465846514611
:100B90006A4EB04783468A46A146002409E02046B3
:100BA000614B98470022614B5C4EB047002818BF4C
:100BB0000024CDF80C903DE020465B4B9847024660
:100BC0000B4600205B495C4EB047804689460022B8
:100BD00000235B4EB04708B3404649464A4B98470E
:100BE00001281BD05846514642464B46534EB0470B
:100BF000544B98474B4B984706464B4B98474246B9
:100C00004B46514FB84702460B4658465146484F4F
:100C1000B84783468A4630362E7001354CB958465F
:100C2000514600220023464EB04710B12E232B70B0
:100C30000135013C5846514631A3D3E90023404ECB
:100C4000B0470028B8D1002CB6DADDF80C90029A33
:100C5000002A41D065222A70B9F1000F03DDA91CDA
:100C60002B226A7007E0A91C2D226A70C9F10009C5
:100C7000B9F1000F2EDD0C46344D85FB09324FEAE9
:100C8000E973C3EBA20303EB8302A9EB420909F169
:100C9000300904F8019B9946601A002BEDDC0546EB
:100CA000211A461E002E16DD0C460844002710F8B7
:100CB000012C23785A40227010F8013C534000F870
:100CC000013D2278534004F8013B0137013EB74211
:100CD000EDDB00E000250D4400232B700AE05846B0
:100CE00051460F4B98470F4B984704460D283FF746
:100CF00031AF1BE7019805B0BDE8F08FAFF300807E
:100D00009B2BA1869B84063D490F0800F05F0800DD
:100D1000F45F0800252F080034600800392F080010
:100D2000A10F0800892F0800892908000000F03F62
:100D3000ED26080000002440A1100800A92C08009E
:100D4000752F0800310E0800552A08006766666690
:100D50002DE9F04196B0234B9847234B9847082044
:100D6000224DA847224C234B1C60234A234B1A6078
:100D7000234A244B1A60244B00934FF4E133019330
:100D80004FF4006302930820A847204669461F4B92
:100D900098471F4D2B68986800211E4CA0472B6870
:100DA00058680021A0471C481C4B984708AC1C4DB4
:100DB0000FCD0FC40FCD0FC40FCD0FC495E80300A6
:100DC00084E8030006AC0DF15008164F164E174D7F
:100DD0006846F4E90223B84701463046A84744452F
:100DE000F6D1FEE75101080041020800650608003F
:100DF00000080E40680A0720090A0800640A072054
:100E000061090800600A072000BD0105B906080055
:100E10006005072069310800F85F080059310800B3
:100E2000B85F0800A90A08001860080035300800FB
:100E30002DE9F047C1F30A58A8F2FF36132E0B46EE
:100E400004460D460246894607461DDC002E40DB5F
:100E5000DFF8F08048FA06F808EA010E5EEA0202BE
:100E600017D035A3D3E9002301F042FC0022002370
:100E700002F080F820B1002D40DB29EA08050027A8
:100E800038462946BDE8F087332E06DDB6F5806F7B
:100E90002FD020461946BDE8F087A8F213424FF044
:100EA000FF3A2AFA02FA1AEA000FF2D022A3D3E993
:100EB000002301F01DFC0022002302F05BF8002853
:100EC000DED0002D1FDB4D4627EA0A0738462946AB
:100ED000D8E719A3D3E9002301F00AFC002200237C
:100EE00002F048F80028CBD0002D1ADB00273D4641
:100EF000C6E702460B4601F0FBFBCCE74FF480133C
:100F000033419944B9E7142E08D0C8F5866808F132
:100F10000308012303FA08F31F19D4D309F10109C7
:100F2000D1E725F00042064B224318BF1D4600279B
:100F3000A6E700BFAFF300809C7500883CE4377ED5
:100F40000000F0BFFFFF0F0010B431F0004408D0E4
:100F5000114BA1F580129A4208D804205DF8044B89
:100F6000704718B902205DF8044B704701F1FF414A
:100F7000094B01F5E0019942EFD9B4F5801F01D288
:100F80000320EBE7054B9C4201D00020E6E7B0FAD6
:100F900080F04009E2E700BFFFFFDF7F0000F07F45
:100FA0002DE9F0438BB006460F4600F0F1F9DFF86B
:100FB000E880044698F900300D4601330BD03046E6
:100FC0003946FFF7C1FF30B13046394600220023D1
:100FD00001F0BCFF20B9204629460BB0BDE8F083E4
:100FE0002A4A98F800400023CDE90267CDE904675A
:100FF000019208939CB9264D4FF060443046394623
:1010000000220023CDE9064501F08CFF002835D1F0
:1010100001230093684601F067F8A8B910E0DFF8F3
:101020007C904FF000083046394600220023CDE97D
:10103000068901F077FF98B90123022C0093E9D1CA
:1010400001F0CAFF21230360124801F04FF8CDE9F7
:101050000601089BABB9DDE906010BB0BDE8F083E2
:1010600002239C42009304D0684601F03DF800281A
:10107000EFD101F0B1FF22230360EAE702230093DE
:10108000F2E701F0A9FF089B0360E4E73060080085
:10109000FFFFEFC7AC600800300107200000F0FF41
:1010A0002DE9F04F8BB01F4680468946164600F06A
:1010B000FBF9DFF8D8A204469AF900300D46013357
:1010C00004D030463946FFF73FFF20B92046294675
:1010D0000BB0BDE8F08F40464946FFF735FF834629
:1010E00060BB304639460022002301F01BFF002878
:1010F000ECD09AF900309E4C01229E4900208DE8E8
:1011000014005A1CCDF820B0CDE90289CDE904675E
:10111000CDE906010DD0022B0BD0684600F0E4FFAC
:10112000002800F09380089B1BB101F055FF089B3D
:101130000360DDE906010BB0BDE8F08F404649468B
:101140000022002301F0EEFEF8B1304639460022BD
:10115000002301F0E7FE834600284ED084489AF928
:1011600000300121002200240025CDE90289CDE9CB
:101170000467CDE90645019000910892002BCCD080
:101180007C4B0022CDE90623D3E72046294600F018
:10119000A5FF834600285ED0204629460022002372
:1011A00001F0C0FE002891D04046494600F096FF6D
:1011B00000288BD03046394600F090FF002885D0BB
:1011C0009AF900306A480421002200240025022BED
:1011D000CDE90289CDE90467CDE90645019000918A
:1011E000089200F08880684600F07EFF002800F03A
:1011F0008280089B002B9CD097E73046394600F050
:101200006DFF00283FF462AF3046394600220023CC
:1012100001F092FE00283FF459AF55499AF800308A
:101220000122CDF820B0CDE90289CDE90467019112
:101230000092002B3CD050490020022BCDE9060142
:1012400030D101F0C9FE21230360D2E701F0C4FED2
:101250002123036067E74046494600F03FFF00282E
:101260009AD03046394600F039FF002894D0204605
:101270002946FFF769FE00BB3D4A9AF8004001236A
:101280000890CDE90289CDE90467019200937CB111
:101290000020002102460B4601F006FD022CCDE99C
:1012A0000601CED0684600F01FFF0028A1D1C8E794
:1012B00000220023CDE90623F4E72D499AF90030F6
:1012C0000322CDF820B0CDE90289CDE90467019170
:1012D0000092ABB9294D4FF0604440464946002288
:1012E0000023CDE9064501F027FE50BB9AF90030F6
:1012F000022B7FF478AF01F06FFE2223036078E7C2
:101300001F4D00244046494600220023CDE90645F2
:1013100001F012FE0028E9D000221A4B304639466F
:1013200001F098FB04460D4600F0E6FE22462B46EF
:1013300001F0F8FD0028D9D10F4B0022CDE906239A
:10134000D4E700220F4B3046394601F083FB0446B8
:101350000D4600F0D1FE22462B4601F0E3FD0028A9
:10136000C4D1094B4FF06042CDE90623BEE700BF70
:10137000386008000000F03F0000F0FFFFFFEF477B
:101380000000F07F0000E03FFFFFEFC730010720C3
:10139000B1F5801F2DE9F84304460D460B461ADAD5
:1013A000024621F00046324358D000295EDB00227D
:1013B000394B01F04FFB0B460D46384904468B4232
:1013C0006FF035020BDD2046294622462B4601F000
:1013D0008FF9BDE8F883314900228B42F3DC181500
:1013E000A0F2FF3010444FEAD0794844C3F3130809
:1013F00001F0CAFAC9F57F73033348EA035506467C
:101400000F462046294600F07FFF1DA3D3E90023A5
:10141000804689463046394601F01CFB1AA3D3E9C1
:10142000002304460D463046394601F013FB18A34D
:10143000D3E9002306460F464046494601F00AFB21
:1014400002460B463046394601F052F902460B4639
:101450002046294601F04CF9BDE8F883002200231C
:1014600000200F4901F020FCBDE8F88302460B463E
:1014700001F03CF90022002301F016FCBDE8F883DE
:1014800000609F501344D33F362BF111F3FE593DBA
:101490000EE526157BCBDB3F00005043FFFFEF7FBF
:1014A000000050C3000000002DE9F04F144623F067
:1014B0000047024657EA04000E468FB01D469C4680
:1014C000214634D06E4B26F0004A9A459346B146E9
:1014D00026DC24D09F4223DC694B9F4200F08F80A2
:1014E000B9F1000FC0F28F804FF0000879BB644B58
:1014F0009F4200F0A580634B9F4267D0BCF1804FB4
:1015000000F0E283604B9C4521D1B9F1000F1EDB56
:10151000104631460FB0BDE8F04F00F015BD62B186
:101520000AF1404000F5801050EA0B0007D1034655
:10153000544918460FB0BDE8F08F5745CCDD5348ED
:101540000FB0BDE8F04F00F0D1BD4FF000081046DD
:101550003146CDF808C0009200F0BCFD009ADDF8DD
:1015600008C0BBF1000F20D04FEAD97909F1FF394B
:1015700058EA09037AD0464B9F4240F38F8003F12B
:1015800004739F4240F31084424B9A4540F3928388
:10159000BCF1000F40F3928337A1D1E900010B4663
:1015A000024601F057FA0346C3E7BAF1000F04D030
:1015B000344B29F0404E9E45D6D1BCF1000FC0F20D
:1015C000B683B9F1000F08DB0346B2E7BCF1000FA8
:1015D000C0F2528413463146ABE70AF1404A0AF59D
:1015E000801A58EA0A0340F05E8402460B4601F076
:1015F0007DF80B46024601F057FB034699E70029A8
:101600003FF46EAF8CE7244B9F422CDCA3F1547364
:101610009F427FF769AF40F213403B15834240F38E
:101620004B84C3F58663033321FA03F000FA03F316
:101630008B427FF459AF00F00100C0F1020855E77A
:101640000AF1404303F5801353EA0B0300F039839A
:10165000104B9A4540F36483BCF1000FC0F22E8317
:101660002346294665E74FF002083FE7104631461A
:101670003346BCE7AFF300809C7500883CE4377EBE
:101680000000F07F0000F03F0000E03FAC60080089
:101690000000E041FFFFEF3FFFFF3F43BAF5801F2F
:1016A0004FF0000205DACA4B01F0D4F98A466FF018
:1016B00034024FEA2A53C74ECAF3130AA3F2FF3388
:1016C0004AF07F571344B2450C9347F4401740F358
:1016D000D083C14B9A4540F307840026B4460C9B47
:1016E000A7F5801701330C933946BC4B4FEACC0C5D
:1016F0006344D3E900AB52465B46CDF834C0CDE934
:10170000060100F0F3FF52465B46CDE90801DDE932
:10171000060100F0EDFF02460B460020B04901F043
:10172000C3FA02460B46DDE90801CDE90A2301F0C0
:1017300091F902460B46CDE90223CDE904237B1043
:1017400043F0005303F500239919002000230646B7
:101750000F460293DDE902231046194632463B4606
:10176000CDE9000101F076F902460B46DDE90801FA
:1017700000F0BCFF5246CDE908015B4630463946D1
:1017800000F0B4FF02460B46DDE9060100F0AEFFB3
:1017900002460B46DDE9000101F05CF902460B460A
:1017A000DDE9080100F0A2FFDDE90A2301F052F9AA
:1017B000DDE90423CDE906011046194601F04AF996
:1017C00002460B4606460F4601F044F96EA3D3E9E4
:1017D000002382468B463046394601F03BF96CA324
:1017E000D3E9002300F084FF32463B4601F032F992
:1017F00069A3D3E9002300F07BFF32463B4601F0AA
:1018000029F967A3D3E9002300F072FF32463B4673
:1018100001F020F964A3D3E9002300F069FF324608
:101820003B4601F017F962A3D3E9002300F060FF03
:1018300002460B465046594601F00CF9DDE90423F7
:1018400006460F46DDE9000100F052FFDDE9062300
:1018500001F000F932463B4600F04AFFDDE900673F
:1018600082468B4632463B463046394601F0F2F816
:1018700000225C4BCDE9080100F03AFF52465B467E
:1018800000F036FF02980F460646DDE900013246B9
:101890003B4601F0DFF832463B46CDE90001DDE989
:1018A000060101F0D7F80022CDE906014D4B304684
:1018B000394600F01BFFDDE9082300F017FF024660
:1018C0000B465046594600F011FFDDE9042301F0B4
:1018D000C1F802460B46DDE9060100F009FF824629
:1018E0008B46DDE9000152465B4600F001FF32A362
:1018F000D3E9002302980F46064601F0ABF830A367
:10190000D3E90023CDE904013046394601F0A2F8BD
:10191000DDE90023CDE906013046394600F0E6FE58
:1019200002460B465046594600F0E0FE26A3D3E996
:10193000002301F08FF802460B46DDE9060100F0B6
:10194000D7FEDDF834C0284BCDF818C06344D3E986
:10195000002300F0CDFECDE900010C9801F014F851
:1019600006460F46DDE90401204BDDF818C09C4413
:10197000DDE90023DCE900AB00F0BAFE52465B462D
:1019800036E000BFAFF30080EF4E454A287ECA3FE5
:1019900065DBC9934A86CD3F01411DA96074D13FE3
:1019A0004D268F515555D53FFFAB6FDBB66DDB3FF5
:1019B000033333333333E33F000000E009C7EE3F26
:1019C000F5015B14E02F3EBEFD033ADC09C7EE3F94
:1019D000000040438E98030079B60B006060080059
:1019E0000000F03F00000840506008004060080020
:1019F000CDE906AB00F07CFE32463B4600F078FEB7
:101A0000029832463B4682468B4600F06FFEDDE987
:101A1000062300F06BFEDDE9042300F067FE0246BA
:101A20000B46DDE9000100F061FECDE9020108F19D
:101A3000FF3858EA09030CBFD54BD64B0022CDE93D
:101A400004230023CDE900450093DDE9006720462B
:101A500032463B46294600F049FE52465B4600F0BE
:101A6000F9FFDDE90223804689462046294600F039
:101A7000F1FF02460B464046494600F039FE044657
:101A80000D465246304639465B46CDE9024500F0E8
:101A9000E1FF06460F4620463B462946324600F007
:101AA00027FEBD4B824699428946884640F3138102
:101AB00001F13F4303F5E003034340F0E581A0A3B8
:101AC000D3E90023DDE9020100F012FE32460446AC
:101AD0000D463B465046494600F008FE02460B467E
:101AE0002046294601F046FA002840F0CD814C46B8
:101AF0002015A0F2FE304FF4801101414144C1F3A2
:101B00000A50A64CA0F2FF35C1F3130BC0F582605A
:101B100003302C414BF4801B21EA040300224BFAD2
:101B200000FB3946304600F0E1FD06460F46DDE990
:101B300002018BEAE87B0BEBD87B32463B464FEA4F
:101B40000B5A00F0D5FD80A3D3E9002300242046E2
:101B50000D4600F07FFF3246804689463B462046D0
:101B6000294600F0C3FD02460B46DDE9020100F004
:101B7000BDFD77A3D3E9002300F06CFF76A3D3E982
:101B8000002306460F462046294600F063FF024622
:101B90000B463046394600F0ABFD06460F4632464E
:101BA0003B464046494600F0A3FD42464B460446AC
:101BB0000D4600F09BFD02460B463046394600F0CC
:101BC00095FD2246804689462B462046294600F050
:101BD00041FF63A3D3E9002306460F4600F03AFF16
:101BE00061A3D3E9002300F081FD32463B4600F0BB
:101BF00031FF5FA3D3E9002300F07AFD32463B4674
:101C000000F028FF5CA3D3E9002300F06FFD32460B
:101C10003B4600F01FFF5AA3D3E9002300F068FD04
:101C200032463B4600F016FF02460B462046294648
:101C300000F05CFD06460F4632463B4620462946EC
:101C400000F008FF0022CDE900014FF0804330464C
:101C5000394600F04BFD02460B46DDE9000101F07C
:101C600023F8424606460F464B462046294600F0DA
:101C7000F1FE42464B4600F03BFD02460B46304625
:101C8000394600F033FD22462B4600F02FFD024678
:101C90000B4600203F4900F029FD8A44BAF5801F19
:101CA0000246C0F227815346DDE9040100F0D2FE6E
:101CB00003463EE4BCF1000FFFF66EAC002319466C
:101CC00037E40B46334934E433461046314600F0DE
:101CD000C1FE03462DE4324B21F000449C4240F308
:101CE000FA80304B0B4403430CD132463B4600F0A4
:101CF000FDFC02460B46DDE9020101F027F9002850
:101D00003FF4F6AE20A3D3E90023DDE9040100F09F
:101D1000A1FE1DA3D3E9002300F09CFE034608E4C6
:101D2000BCF1000FCADA234605F1004101E4024686
:101D30000B460020174900F0B7FF42E4AFF30080E4
:101D4000FE822B654715973C00000000432EE63FBE
:101D5000EF39FAFE422EE63F396CA80C615C20BEDA
:101D6000D0A4BE726937663EF16BD2C541BDBB3EA1
:101D70002CDE25AF6A56113F93BDBE166CC1663F7F
:101D80003E5555555555C53F59F3F8C21F6EA5012F
:101D90000000F0BF0000F03FFFFF8F40FFFF0F008B
:101DA000FFCB904000346F3F634B9A4582DD634B1D
:101DB0009A453FF7EDAB0022604B00F097FC54A32F
:101DC000D3E9002306460F4600F044FE52A3D3E9B0
:101DD0000023CDE900013046394600F03BFE324693
:101DE000CDE902013B463046394600F033FE002281
:101DF00082468B4630463946514B00F02BFE024658
:101E00000B4647A1D1E9000100F070FC32463B4689
:101E100000F020FE02460B4600204A4900F066FC16
:101E200002460B465046594600F014FE3EA3D3E945
:101E3000002300F00FFE02460B46DDE9020100F030
:101E400055FC06460F46DDE9000132463B4600F0F0
:101E50004FFCDDE90023002082468B4600F046FC63
:101E600002460B463046394600F040FCCDE90201FF
:101E7000DDE50026B44637E4334600202F4900F064
:101E800013FF0346FFF755BB29A3D3E90023DDE980
:101E9000040100F0DFFD26A3D3E9002300F0DAFD02
:101EA0000346FFF746BBB8F1010F03467FF441AB91
:101EB00001F10041FFF73DBB00297FF446ABC3F5BC
:101EC0008263033347FA03F000FA03F3BB4217D0EF
:101ED0008846FFF710BB1B4B9C423FF709AEDDE97C
:101EE0000023924693462EE64FF480264FF0010CD5
:101EF000FFF7FABB5A4600F08FF902460B46D3E6CD
:101F000000F00100C0F10208FFF7F5BAAFF300805E
:101F1000000000604715F73F44DF5DF80BAE543E0C
:101F2000555555555555D53FFE822B654715F73FFD
:101F30009C7500883CE4377EFEFFEF3F0000F03FD9
:101F40000000D03F0000E03F2DE9F041604E0C461C
:101F5000B6460E40764505460B4600F098800029AF
:101F6000024676DD5FEA215E00F08180AEF2FF3E40
:101F7000C3F313031EF0010F43F480135ED1002757
:101F80003C46D10F01EB43034FEA6E0E5200162080
:101F90004FF4001165189D424FEAD2764FEA420293
:101FA00002DC5B1B6C180F44013806EB43034FEA5D
:101FB0005101EFD1844620264FF000410AE0A342B0
:101FC00020D0D50F013E4FEA510105EB43034FEA04
:101FD000420220D09C420CEB0105F0DA002D05EB0B
:101FE000010C09DBA0461B1B954288BF03F1FF33A0
:101FF0004446521B0844E4E7BCF1000FF2DB04F155
:102000000108F0E7954217D8002D05EB010C48DBDD
:1020100098460023ECE7134315D140087B1003F1E9
:102020007F5303F50013FA0703EB0E57394648BFF9
:1020300040F00040BDE8F0811C46C2E7D10F01EB43
:10204000430352009BE7411C31D000F001031844C8
:10205000E3E721F000460643ECD079BB8E46D30A75
:10206000AEF1150E5205002BF9D0DC0222D400216E
:102070005B00D80201F10101FAD5C1F10100C1F103
:10208000200422FA04F4234386448A406EE7024681
:102090000B4600F0DFFC2A46234600F029FBBDE892
:1020A000F081BCF1000FAADAA0460023A0E70137B7
:1020B0003046B3E7202401200021E2E702460B4628
:1020C00000F014FB02460B4600F0EEFDB2E700BF45
:1020D0000000F07F21F00041704700BF41F0004157
:1020E00001F58010C00F70470020704700200149A3
:1020F000704700BF0000F87FF0B5C1F30A5EAEF292
:10210000FF35132D83B002460B460C464FEAD176BD
:1021100007462EDC002D48DB3C49294101EA03003B
:1021200010432BD049080B4053EA02070CD04FF460
:102130008023132D24EA010143FA05F444EA010443
:102140000CBF4FF0004700273149234601EBC6067C
:10215000D6E900453A462046294600F0C9FACDE9BD
:102160000001DDE9000122462B4600F0BFFA03B072
:10217000F0BD332D06DDB5F5806F43D0104619460E
:1021800003B0F0BDAEF2134E4FF0FF3121FA0EF165
:102190000142F3D049080142D6D04FF0804320EAF3
:1021A000010143FA0EF70F43CEE721F0004101434E
:1021B000E4D0C3F3130141EA000CCCF1000141EA81
:1021C0000C0C13495C0C4FEA1C3C0CF4002C64040E
:1021D00001EBC6014CEA0403D1E90045204629463B
:1021E00000F086FACDE90001DDE9000122462B4628
:1021F00000F07CFA024621F0004141EAC673104625
:102200001946BDE700F074FABAE700BFFFFF0F0000
:102210007060080000000000F8B5C1F30A560446DB
:102220000D460B46174616BB21F00043034332D040
:102230000022314B00F00EFC304A044697420D4616
:102240000B4637DB40F2FE72C1F30A56363E3E447F
:10225000964215DD24A1D1E9000122462B4600F06B
:1022600039FA21A3D3E9002300F0F4FBF8BD40F2D2
:10227000FF72964224D040F2FE723E449642E9DC60
:10228000002E09DD23F0FF4323F4E00343EA065563
:1022900020462946F8BDF8BD16F1350F15DA4CF287
:1022A00050339F42D6DC12A1D1E9000122462B46D1
:1022B00000F010FA0EA3D3E9002300F0CBFBF8BD29
:1022C00002460B4600F014FAF8BD23F0FF4323F456
:1022D000E003363643EA0655204629460022084BDD
:1022E00000F0B8FBF8BD00BF9C7500883CE4377E69
:1022F00059F3F8C21F6EA50100005043B03CFFFF28
:102300000000903C000000002DE9F04FB1F5801F67
:1023100085B006460F460B465ADA024621F00044C5
:10232000224300F0F5800029C0F271810022DE4BCB
:1023300000F090FB0B460F46DC4906468B426FF0DF
:10234000350249DCC3F3130505F5152404F664745E
:1023500004F4801E8EF07F5181F440111B15A3F20E
:10236000FF3341EA05079C1830460022D04B39461E
:1023700004EB1E5400F0BAF9AB1CC3F31303022B99
:1023800082468B464FF000022FDC002300F0CAFD8E
:10239000002800F0C680002C00F04281204600F0AA
:1023A000F3FAADA3D3E9002306460F4600F052FB33
:1023B000ABA3D3E9002304460D463046394600F06E
:1023C00049FB02460B462046294600F091F909E0F8
:1023D000B64900228B42B5DD3046394632463B468F
:1023E00000F086F905B0BDE8F08F4FF0804300F0B3
:1023F0007FF902460B465046594600F055FC06460A
:102400000F462046CDE9006700F0BEFA3246CDE91E
:1024100002013B463046394600F01CFB02460B46A3
:102420008046894600F016FB8FA3D3E900230646B9
:102430000F4600F00FFB8EA3D3E9002300F058F9FC
:1024400032463B4600F006FB8BA3D3E9002300F0A5
:102450004FF932463B4600F0FDFA89A3D3E9002349
:1024600000F046F942464B4600F0F4FA86A3D3E961
:102470000023804689463046394600F0EBFA84A3B3
:10248000D3E9002300F034F932463B4600F0E2FA8B
:1024900081A3D3E9002300F02BF932463B4600F03C
:1024A000D9FA0B4602464946404600F021F9A5F507
:1024B000C223C5F5D725A3F27A4351351D43002D1C
:1024C00006460F4653DD00227A4B5046594600F02F
:1024D000C1FA52465B4600F0BDFA80468946002CA0
:1024E00060D132463B4600F003F9DDE9002300F0FD
:1024F000B1FA02460B464046494600F0F7F802465C
:102500000B465046594600F0F1F805B0BDE8F08F93
:10251000002200230020684900F0C6FB05B0BDE89A
:10252000F08F52465B465046594600F093FA5CA342
:10253000D3E9002306460F465046594600F08AFA72
:1025400002460B4600205B4900F0D0F802460B46DD
:102550003046394600F07EFA06460F46002C62D11E
:102560005046594632463B4600F0C0F83AE7002C48
:1025700000F0A48038A3D3E90023DDE902894046B6
:10258000494600F067FA32463B4604460D4650463F
:10259000594600F0ABF8DDE9002300F05BFA06468F
:1025A0000F464CE02CA3D3E90023DDE9020100F043
:1025B00051FA32463B4604460D464046494600F035
:1025C00097F8DDE9002300F045FA25A3D3E90023BD
:1025D00006460F46DDE9020100F03CFA02460B46D2
:1025E0003046394600F084F802460B4640464946DC
:1025F00000F07CF852465B4600F078F802460B4645
:102600002046294600F072F805B0BDE8F08F02467A
:102610000B4600F06BF80022002300F045FBE1E6DA
:1026200000200021DEE6204600F0AEF90AA3D3E93F
:1026300000238046894600F00DFA04460D4608A3A3
:10264000D3E900234046494600F004FA02460B460F
:1026500030463946CCE700BF0000E0FE422EE63FA0
:10266000763C7935EF39EA3D44523EDF12F1C23F04
:10267000DE03CB966446C73F599322942449D23F48
:10268000935555555555E53F9FC678D0099AC33F98
:10269000AF788E1DC571CC3F04FA97999999D93FAF
:1026A000555555555555D53F00005043FFFFEF7F19
:1026B0000000F03F0000E03F000050C302460B4620
:1026C0005046594600F012F8DDE9002300F0C2F947
:1026D00015E700BF03F0004321F0004243EA020186
:1026E000704700BF81F0004102E000BF83F000436B
:1026F00030B54FEA41044FEA430594EA050F08BF9D
:1027000090EA020F1FBF54EA000C55EA020C7FEA60
:10271000645C7FEA655C00F0E2804FEA5454D4EBDD
:102720005555B8BF6D420CDD2C4480EA020281EAA7
:10273000030382EA000083EA010180EA020281EADF
:102740000303362D88BF30BD11F0004F4FEA013131
:102750004FF4801C4CEA113102D0404261EB410140
:1027600013F0004F4FEA03334CEA133302D05242C6
:1027700063EB430394EA050F00F0A780A4F1010482
:10278000D5F1200E0DDB02FA0EFC22FA05F28018BC
:1027900041F1000103FA0EF2801843FA05F35941A2
:1027A0000EE0A5F120050EF1200E012A03FA0EFC21
:1027B00028BF4CF0020C43FA05F3C01851EBE3714B
:1027C00001F0004507D54FF0000EDCF1000C7EEB68
:1027D00000006EEB0101B1F5801F1BD3B1F5001FA6
:1027E0000CD349085FEA30004FEA3C0C04F10104C5
:1027F0004FEA445212F5800F80F09A80BCF1004FEE
:1028000008BF5FEA500C50F1000041EB045141EA6F
:10281000050130BD5FEA4C0C404141EB010111F470
:10282000801FA4F10104E9D191F0000F04BF01461B
:102830000020B1FA81F308BF2033A3F10B03B3F1F9
:1028400020020CDA0C3208DD02F1140CC2F10C0289
:1028500001FA0CF021FA02F10CE002F11402D8BFE7
:10286000C2F1200C01FA02F120FA0CFCDCBF41EAB3
:102870000C019040E41AA2BF01EB0451294330BD82
:102880006FEA04041F3C1CDA0C340EDC04F114045F
:10289000C4F1200220FA04F001FA02F340EA030036
:1028A00021FA04F345EA030130BDC4F10C04C4F17C
:1028B000200220FA02F001FA04F340EA030029465C
:1028C00030BD21FA04F0294630BD94F0000F83F4A6
:1028D000801306BF81F480110134013D4EE77FEA89
:1028E000645C18BF7FEA655C29D094EA050F08BFD5
:1028F00090EA020F05D054EA000C04BF19461046B6
:1029000030BD91EA030F1EBF0021002030BD5FEAF9
:10291000545C05D14000494128BF41F0004130BD21
:1029200014F580043CBF01F5801130BD01F0004575
:1029300045F0FE4141F470014FF0000030BD7FEAE8
:10294000645C1ABF194610467FEA655C1CBF0B46E3
:10295000024650EA013406BF52EA033591EA030FFA
:1029600041F4002130BD00BF90F0000F04BF0021F2
:10297000704730B54FF4806404F132044FF0000525
:102980004FF0000150E700BF90F0000F04BF00219E
:10299000704730B54FF4806404F1320410F0004504
:1029A00048BF40424FF000013EE700BF42004FEAFF
:1029B000E2014FEA31014FEA02701FBF12F07F437C
:1029C00093F07F4F81F06051704792F0000F14BF79
:1029D00093F07F4F704730B54FF4607401F00045BD
:1029E00021F0004120E700BF50EA010208BF704714
:1029F00030B54FF000050AE050EA010208BF704709
:102A000030B511F0004502D5404261EB41014FF471
:102A1000806404F132045FEA915C3FF4DCAE4FF075
:102A200003025FEADC0C18BF03325FEADC0C18BF5C
:102A3000033202EBDC02C2F1200300FA03FC20FAAD
:102A400002F001FA03FE40EA0E0021FA02F11444FA
:102A5000C1E600BF70B54FF0FF0C4CF4E06C1CEA0F
:102A600011541DBF1CEA135594EA0C0F95EA0C0F84
:102A700000F0DEF82C4481EA030621EA4C5123EAF7
:102A80004C5350EA013518BF52EA033541F4801126
:102A900043F4801338D0A0FB02CE4FF00005E1FBD9
:102AA00002E506F00042E0FB03E54FF00006E1FB23
:102AB00003569CF0000F18BF4EF0010EA4F1FF0466
:102AC000B6F5007F64F5407404D25FEA4E0E6D41A6
:102AD00046EB060642EAC62141EA55514FEAC520B7
:102AE00040EA5E504FEACE2EB4F1FD0C88BFBCF533
:102AF000E06F1ED8BEF1004F08BF5FEA500E50F1E4
:102B0000000041EB045170BD06F0004646EA0101A9
:102B100040EA020081EA0301B4EB5C04C2BFD4EBDB
:102B20000C0541EA045170BD41F480114FF0000ED4
:102B3000013C00F3AB8014F1360FDEBF002001F042
:102B4000004170BDC4F10004203C35DA0C341BDCBC
:102B500004F11404C4F1200500FA05F320FA04F08E
:102B600001FA05F240EA020001F0004221F00041C2
:102B700010EBD37021FA04F642EB06015EEA430E35
:102B800008BF20EAD37070BDC4F10C04C4F1200565
:102B900000FA04F320FA05F001FA04F240EA020018
:102BA00001F0004110EBD37041F100015EEA430EE9
:102BB00008BF20EAD37070BDC4F1200500FA05F209
:102BC0004EEA020E20FA04F301FA05F243EA020388
:102BD00021FA04F001F0004121FA04F220EA020097
:102BE00000EBD3705EEA430E08BF20EAD37070BDDD
:102BF00094F0000F0FD101F00046400041EB0101BD
:102C000011F4801F08BF013CF7D041EA060195F09E
:102C1000000F18BF704703F00046520043EB030358
:102C200013F4801F08BF013DF7D043EA0603704745
:102C300094EA0C0F0CEA135518BF95EA0C0F0CD050
:102C400050EA410618BF52EA4306D1D181EA030196
:102C500001F000414FF0000070BD50EA410606BF90
:102C60001046194652EA430619D094EA0C0F02D1D5
:102C700050EA013613D195EA0C0F05D152EA03361A
:102C80001CBF104619460AD181EA030101F0004138
:102C900041F0FE4141F470014FF0000070BD41F081
:102CA000FE4141F4780170BD70B54FF0FF0C4CF45B
:102CB000E06C1CEA11541DBF1CEA135594EA0C0F7A
:102CC00095EA0C0F00F0A7F8A4EB050481EA030EC7
:102CD00052EA03354FEA013100F088804FEA0333AE
:102CE0004FF0805545EA131343EA12634FEA02227C
:102CF00045EA111545EA10654FEA00260EF000413D
:102D00009D4208BF964244F1FD0404F5407402D28E
:102D10005B084FEA3202B61A65EB03055B084FEA1F
:102D200032024FF480104FF4002CB6EB020E75EB1C
:102D3000030E22BFB61A754640EA0C005B084FEA44
:102D40003202B6EB020E75EB030E22BFB61A7546C1
:102D500040EA5C005B084FEA3202B6EB020E75EB0C
:102D6000030E22BFB61A754640EA9C005B084FEA84
:102D70003202B6EB020E75EB030E22BFB61A754691
:102D800040EADC0055EA060E18D04FEA051545EA80
:102D900016754FEA06164FEAC30343EA52734FEA29
:102DA000C2025FEA1C1CC0D111F4801F0BD141EAA2
:102DB00000014FF000004FF0004CB6E711F4801F07
:102DC00004BF01430020B4F1FD0C88BFBCF5E06FE7
:102DD0003FF6AFAEB5EB030C04BFB6EB020C5FEAF7
:102DE000500C50F1000041EB045170BD0EF0004E4C
:102DF0004EEA113114EB5C04C2BFD4EB0C0541EA7E
:102E0000045170BD41F480114FF0000E013C90E67A
:102E100045EA060E8DE60CEA135594EA0C0F08BF3E
:102E200095EA0C0F3FF43BAF94EA0C0F0AD150EA3D
:102E300001347FF434AF95EA0C0F7FF425AF1046D0
:102E400019462CE795EA0C0F06D152EA03353FF4F8
:102E5000FDAE1046194622E750EA410618BF52EA75
:102E600043067FF4C5AE50EA41047FF40DAF52EA49
:102E700043057FF4EBAE12E74FF0FF3C06E000BFE6
:102E80004FF0010C02E000BF4FF0010C4DF804CDF3
:102E90004FEA410C7FEA6C5C4FEA430C18BF7FEAB3
:102EA0006C5C1BD001B050EA410C0CBF52EA430CE1
:102EB00091EA030F02BF90EA020F0020704710F161
:102EC000000F91EA030F58BF994208BF90422CBFF0
:102ED000D8176FEAE37040F0010070474FEA410CE9
:102EE0007FEA6C5C02D150EA013C07D14FEA430C07
:102EF0007FEA6C5CD6D152EA033CD3D05DF8040B78
:102F0000704700BF8446104662468C4619466346A9
:102F100000E000BF01B5FFF7B7FF002848BF10F180
:102F2000000F01BD4DF808EDFFF7F4FF0CBF0120C5
:102F300000205DF808FB00BF4DF808EDFFF7EAFF41
:102F400034BF012000205DF808FB00BF4DF808EDFC
:102F5000FFF7E0FF94BF012000205DF808FB00BFF1
:102F60004DF808EDFFF7CEFF94BF012000205DF87B
:102F700008FB00BF4DF808EDFFF7C4FF34BF012088
:102F800000205DF808FB00BF4FEA410212F5001275
:102F900015D211D56FF47873B3EB625212D94FEAA0
:102FA000C12343F0004343EA505311F0004F23FA8A
:102FB00002F018BF404270474FF00000704750EADF
:102FC000013005D111F0004008BF6FF0004070479C
:102FD0004FF00000704700BF014B1868704700BFFA
:102FE0006005072070B50F4E0F4D761BB61018BF49
:102FF000002405D0013455F8043B9847A642F9D186
:103000000A4E0B4D03F06AF8761BB61018BF002469
:1030100006D0013455F8043B9847A642F9D170BD5B
:1030200070BD00BFE8600800E8600800F0600800BC
:10303000E86008000FB410B5074B82B004AC54F838
:10304000042B186823468168019400F07BF902B0D4
:10305000BDE8104004B070476005072070B48407D5
:1030600046D0541E002A41D0CDB2034602E0621E73
:10307000E4B3144603F8015B9A07F8D1032C2ED968
:10308000CDB245EA05250F2C45EA054519D9264656
:1030900003F11002103E0F2E42F8105C42F80C5C57
:1030A00042F8085C42F8045C02F11002F2D8A4F184
:1030B000100222F00F0204F00F041032032C13440C
:1030C0000DD91E462246043A032A46F8045BFAD874
:1030D000221F22F003020432134404F003042CB133
:1030E000C9B21C4403F8011BA342FBD170BC70475A
:1030F00014460346C2E700BFF0B5044689B008464F
:103100000D4600F0B5F8A36802219A89DFF844E083
:1031100000F1010C012704AE029191040495059081
:10312000CDF80CC0CDF818E00797019606D4596E7B
:1031300042F4005221F400519A8159662046194602
:1031400001AA01F09FFA002814BF4FF0FF300A20B7
:1031500009B0F0BD88600800024B01461868FFF70F
:10316000CBBF00BF6005072000290CBF0222002250
:103170004FF4806300F000B82DE9F0413A4D044669
:103180002E6890460D461F4616B1B36B002B3CD0FF
:10319000B8F1020F2FD8002F2DDB2146304601F069
:1031A0002DF8A18900236360A3610B0627D421F0C9
:1031B000830189B2B8F1020FA1812AD0002D36D047
:1031C000B8F1010F11D089B201F00800274B80B28D
:1031D000F36325602561676178B111F0030F18BFB3
:1031E00000270020A760BDE8F08141F001017B428B
:1031F000A181A361E7E74FF0FF30BDE8F0812169CD
:10320000304601F067F9A189D1E7304601F08AF82C
:10321000BEE7002004F1430341F002010025012232
:10322000A181A560236023616261BDE8F081002F68
:1032300008BF4FF48067384601F056FC054628B1B8
:10324000A18941F0800189B2A181B9E74FF4806082
:1032500001F04AFC054618B9A1894FF0FF30D9E7C3
:103260004FF48067ECE700BF6005072029420800A3
:1032700020F0030110F00300C0F1000051F8043BFE
:1032800000F1040C4FEACC0C6FF000021CBF22FAD4
:103290000CF213434FF0010C4CEA0C2C4CEA0C4C92
:1032A000A3EB0C0222EA030212EACC1204BF51F88B
:1032B000043B0430F4D0C2F1000102EA0102B2FA88
:1032C00082F2C2F11F0200EBD20070474B6E2DE973
:1032D000F0479C040F4692462BD59368126833B38F
:1032E000804602F1080919E96000B60817D0043DCC
:1032F000002401E0A64210D0404655F8041F3A468B
:1033000001F088F8431C04F10104F3D10023CAF84A
:103310000830CAF80430BDE8F087DAF80830A3EBCB
:103320008603CAF8083009F10809002BDBD1002018
:10333000ECE701F0A7F90023CAF80830CAF8043016
:10334000BDE8F0872DE9F04FABB01C4600919346E5
:103350000493019018B1836B002B00F0E380009B75
:1033600099898AB2900408D418465B6E41F40052E1
:1033700023F400538281436692B2110740F1B28078
:10338000009B1B69002B00F0AD8002F01A020A2A94
:1033900000F0B4800DF1680A5446002309930293AB
:1033A0000F930E93CDF834A09BF80030002B00F063
:1033B000A384252B00F0A0845A4601E0252B03D0DE
:1033C00012F8013F002BF9D1CBEB0206154696B15E
:1033D0000E9B0F9A01333244072BC4F800B066608D
:1033E0000F920E9379DD002A40F0AD845446029B83
:1033F0000E92334402932B78002B00F05F834FF042
:10340000000300214FF0FF3C8DF82F30681C6B78D3
:1034100088460D46664600F1010BA3F12002582AAA
:1034200000F2AA82DFE812F09A02A802A802A20221
:10343000A802A802A802A802A802A80254026002D8
:10344000A8020D016C02A80229012F012F012F01F2
:103450002F012F012F012F012F012F01A802A802F8
:10346000A802A802A802A802A802A802A802A8020C
:103470003D01A802A802A802A802A802A802A80268
:10348000A802A802A8027401A802A802A802A80221
:10349000A8028B01A802A802A301A802A802A80200
:1034A000A802A802A802A802A802A802A802C701AE
:1034B000DA01A802A802A8022301DA01A802A802E0
:1034C0004B02A80288021301F4010702A8020D02B0
:1034D000A8028100A802A80232020834029B3344E9
:1034E000029388E70198009900F072FDA8B9009B4B
:1034F0009A8902F01A020A2A7FF44CAF009BB3F9B2
:103500000E30002BFFF646AF019800995A4623462D
:1035100000F020FD2BB0BDE8F08F4FF0FF302BB056
:10352000BDE8F08F00F0FEFE19E718F0200F0395BC
:10353000B44600F00C81049B073323F0070303F12A
:103540000802D3E90067049201234FF00002E1462C
:103550008DF82F200025BCF1000FA8BF28F08008AF
:1035600056EA070240F0C480BCF1000F00F08083EF
:10357000012B00F0C580022B00F086835146F20833
:1035800042EA4772F80806F007030746164630334A
:1035900056EA070201F8013DF1D118F0010F079139
:1035A00040F0FA83C1EB0A09E1454E46B8BF6646D2
:1035B00005B1013618F00203059318BF023618F062
:1035C0008403069340F0F981039B9D1B002D40F37B
:1035D000F481102D40F38A842046DDF838E06446FB
:1035E0000F9AC44F10237146844607E001F1020E82
:1035F00001460CF1080C103D102D13DD481C103253
:1036000007280F92CCF80070CCF804300E90EDDD56
:10361000002A40F0C281103D102D11464FF0010EDE
:10362000D446EBDC63467146A4461C462A4407296F
:103630000F92276065600E9100F346830834481CA2
:10364000BEE1584648F004089BF80030E3E618F065
:1036500020030395B44662D0049B073323F007038D
:1036600003F10802D3E90067049200236DE748F0F4
:1036700040089BF800305846CDE648F080089BF89B
:1036800000305846C7E6A3F1300200251BF8013B85
:1036900005EB850502EB4505A3F13002092AF5D9B2
:1036A000BBE648F0100818F0200F0395B4468DF8DB
:1036B0002F1000F09B800499073121F00701D1E918
:1036C000002316461F4608310491002A73F10003B7
:1036D000C0F2A483BCF1000FA8BF28F0800856EA0E
:1036E00007029DF82F50E1464FF001033FF43CAF35
:1036F000012B7FF440AF002F08BF0A2E80F03283E9
:103700002AAB303603F8416DC3EB0A0907934BE748
:1037100048F0100818F020030395B4469CD118F027
:10372000100240F0F78218F0400300F0F382049991
:1037300013460A4604320E880027049205E748F033
:10374000100818F0200F0395B4467FF4F4AE049AE5
:1037500018F0100F134640F0E48218F0400F00F00C
:10376000E08216880432002701230492EDE6624AC3
:1037700018F0200F0395B4468DF82F10099200F031
:103780008F80049A073222F0070202F108010491A7
:10379000D2E9006718F0010F00F08F8256EA0702A5
:1037A00000F08B8230228DF8313048F002088DF81D
:1037B00030200223C9E6049A012613684FF0000165
:1037C0008DF840301346B1460433049310AB039593
:1037D0008DF82F1007934FF0000CEBE618F0200F38
:1037E0000395B4468DF82F107FF465AF049A18F056
:1037F000100F134640F0A08218F0400F00F09C829A
:10380000B2F900600433F717049332463B465CE795
:10381000049978238DF83130384BB44630220E6845
:1038200004310993039548F00208049100278DF8AC
:103830003020022389E648F020089BF800305846E3
:10384000E9E54FF00001049A03951368B446079325
:103850008DF82F10151D002B00F04E83002EC0F2A6
:103860002983079E624630460021CDF810C001F042
:10387000C9FBDDF810C0002800F04E830495C6EBAC
:1038800000099DF82F504FF0000C8DE61B4A18F0F0
:10389000200F0395B44609928DF82F107FF471AF75
:1038A000049918F0100F0A4640F0418218F0400FBA
:1038B00000F03D8204320E88002704926AE79BF8EC
:1038C00000306C2B00F0E98248F010085846A2E561
:1038D000049A134615680433002DC0F2E68204935F
:1038E0009BF80030584696E59BF8003058462B214F
:1038F00091E500BFCC6008009C600800B060080043
:103900009BF800300BF101002A2B00F00F83A3F18C
:103910003002092A83464FF000063FF67EAD1BF8C1
:10392000013B06EB860602EB4606A3F13002092AAC
:10393000F5D946EAE67670E518F0200F8DF82F10DD
:1039400000F08382049A134604330493029B1168A7
:10395000DF171A463B46C1E9002325E558469BF888
:10396000003000297FF457AD202154E548F00108CC
:1039700058469BF800304EE503958DF82F10002B2C
:1039800000F09C808DF840304FF0000301268DF848
:103990002F3010ABB14607931DE7019800990DAA8F
:1039A0000893FFF793FC002840F08F800E99D446CF
:1039B0000F9A01F1010E089B1DE60E990F9A481C03
:1039C0009DF82F306BB101320DF12F030121072833
:1039D0000F920E902360616000F334810146083439
:1039E0000130059B63B102320CA9022307280F9214
:1039F0000E9084E80A0000F3348101460834013057
:103A0000069B802B00F0D480C9EB0C07002F2BDD28
:103A1000102FAB4D1FDDA6461023019C07E001F1DE
:103A2000020C01460EF1080E103F102F11DD481C4C
:103A3000103207280F92CEF80050CEF804300E90C6
:103A4000EDDD6ABB103F102F4FF0010C1146D6463A
:103A5000EDDC744660463A4407280F9284E8A000E3
:103A60000E903BDC0834013002EB0903079A07286B
:103A70000F9384E804020E903DDD002B40F03F815F
:103A800018F0040F0E9340F03081029B039A964287
:103A9000ACBF9B199B18029300230E93544683E4FA
:103AA000204600990DAA0593FFF710FC68B90E99FE
:103AB000D6460F9A01F1010C059BB5E70F9B23B188
:103AC000019800990DAAFFF701FC009B9B895B06FA
:103AD0003FF523AD02982BB0BDE8F08F002A40F0EF
:103AE00090814B46544607990122CDF86C90CDF851
:103AF0003C901A910E9204F1080218F0040F39D08C
:103B000003998D1B002D35DD102D40F300820E989A
:103B10006C4F1024DDF80480DDF8009006E000F121
:103B2000020E08460832103D102D10DD411C1033E6
:103B300007290F93176054600E91F0DD002B2AD1F6
:103B4000103D102D4FF0010E18465246EEDC2B446E
:103B5000BEF1070F0F9317605560CDF838E009DD0F
:103B6000002B92D0019800990DAAFFF7AFFB002817
:103B7000ABD10F9B029A03998E42ACBF9219521897
:103B80000292002B88D0019800990DAAFFF79EFBA6
:103B9000002881D099E7404649460DAAFFF796FBD9
:103BA000002892D10E9852460F9B00F1010EBAE701
:103BB000039B9F1B002F7FF727AF102F40F3B3818C
:103BC00020463F4D64461023844607E001F1020E73
:103BD00001460CF1080C103F102F11DD481C10326B
:103BE00007280F92CCF80050CCF804300E90EDDD91
:103BF000C2B9103F102F4FF0010E1146D446EDDC34
:103C00006346A4461C463A44BEF1070F0F9284E86F
:103C1000A000CDF838E000F3EE8008340EF101008A
:103C20007146F1E6019800990DAA0593FFF74EFB46
:103C300000287FF44AAF0E99D4460F9A01F1010E85
:103C4000059BC8E7002A40F0C580059B002B00F0CB
:103C500085800CAA02231A9208461B931A465446E2
:103C6000CBE6002A40F0A580012011465446C7E665
:103C700003BB18F0010F1DD02AAB302203F8412DF1
:103C8000C3EB0A0907938FE4D1460998330943EA45
:103C90000773390906F00F020F461E46835C09F8C8
:103CA000013D56EA0703F1D14B46CDF81C90C3EB1A
:103CB0000A0979E4CDF81CA076E4022345E400BFAC
:103CC0008C600800CC600800002A40F0D5809DF888
:103CD0002F30002B00F0AC8001230DF12F0118468E
:103CE0001B931A461A91544678E6039A951B002DA9
:103CF00052463FF709AFC8E65D46FFF77CBB019827
:103D000000990DAAFFF7E2FA00287FF4DEAE5246D2
:103D10000F9BF2E6049900270A4604320E680492CB
:103D200013E404321E680027012304920DE4166890
:103D30000432049200272DE51E680433F71704931C
:103D400032463B46C1E4019800990DAAFFF7BEFA3E
:103D500000287FF4BAAE5446FFF7C0BB084654466D
:103D600011464DE6D146CDF814C0304639460A22F8
:103D7000002301F047FE30323046394609F8012D64
:103D800000230A2201F03EFE06460F4656EA0703CC
:103D9000EBD1DDF814C087E7302B079B87D0013BC0
:103DA0001A4607933023C2EB0A0901F8013CFFF7DA
:103DB000FBBB019800990DAACDF814C0FFF786FA55
:103DC00000287FF482AE0E9954460F9A481CDDF805
:103DD00014C015E6019800990DAACDF820C0FFF790
:103DE00075FA00287FF471AE0E9954460F9A481C5C
:103DF000DDF820C0F5E5002A67D1012011465446C0
:103E000002E6019800990DAAFFF760FA00287FF4F6
:103E10005CAE0E9854460F9A013025E62D25764269
:103E200067EB47078DF82F50E1460123FFF793BB5F
:103E3000059B114601205446002B3FF4E5AD0CAA2A
:103E400002238AE80C001A46D7E518F0100F0BD1B0
:103E500018F0400F08D0049A136804320492BDF899
:103E600008201A80FFF7A0BA049A1368043204925B
:103E7000029A1A60FFF798BA019800990DAACDF836
:103E800020C0FFF723FA00287FF41FAE0E99544696
:103E90000F9A481CDDF820C092E548F020080BF18D
:103EA00001009BF80130FFF7B6BA6D420493584603
:103EB000FFF7C8BB07980495FFF7DAF99DF82F5074
:103EC00081464FF0000CFFF76FBB019800990DAAD7
:103ED000CDF814C0FFF7FAF900287FF4F6AD0E997B
:103EE00054460F9A481CDDF814C08DE50E990F9AC0
:103EF0000131154FFFF79ABB062E144B28BF4FF028
:103F0000060CE14604952CEAEC76079363E40E99DF
:103F10000D4F01F1010E1AE6E146049584469DF825
:103F20002F50FFF741BB8646094D6CE6049A9BF87B
:103F3000013016680432002E0492BFF66CAA4FF0CE
:103F4000FF36FFF768BA00BFCC600800C460080005
:103F50008C6008002DE9F04588464F6EADF26C4D3F
:103F60001997D8F81C70B1F80CE0B1F80EA00797BB
:103F7000D8F824701AAC4FF480652EF0020E00269B
:103F800069460094049402950595ADF80CE0ADF8EF
:103F90000EA0099706960546FFF7D4F9041E07DB25
:103FA0002846694600F02AF9B04218BF4FF0FF34A6
:103FB000BDF80C305B0605D5B8F80C3043F0400373
:103FC000A8F80C3020460DF26C4DBDE8F08500BF1E
:103FD00038B52F4B054618680C4610B1836B002B83
:103FE00036D0A28993B218070CD52069A8B113F076
:103FF00001021ED0636900225B42A361A260F0B19E
:10400000002038BDD9063AD5580724D4206942F09B
:104010000803A3819BB20028E9D103F42072B2F512
:10402000007FE4D02846214600F0EEFCA3892069F9
:10403000DDE7990758BF6269A2600028E0D1A38933
:104040001A06DED543F04003A3814FF0FF3038BDA0
:1040500000F068F9C5E7216B49B104F140039942CA
:1040600003D0284600F036FAA28900232363206992
:1040700022F02402002392B284E80900C7E742F04C
:10408000400209232B604FF0FF30A28138BD00BFF2
:1040900060050720024B13B1024800F005B87047D5
:1040A0000000000039430800014600200246034694
:1040B00001F0B4BB8B892DE9F0419AB20D4611078E
:1040C00080463CD46A6843F40063002AAB8165DD16
:1040D000AE6A002E4BD09BB203F48052002192B204
:1040E000D8F80040C8F80010002A5BD02A6D5F079E
:1040F00005D569682B6B521A0BB1EB6BD21A40468F
:10410000E9690023B047461C56D0AB892A6923F4DD
:1041100000639BB200212A60DA04AB8169603BD462
:10412000296BC8F8004011B305F14003994202D051
:10413000404600F0CFF900202863BDE8F0812E69E9
:10414000AEB191072C680CBF6B6900232E60A41BD5
:10415000AB600AE0324623466F6A4046E969B847D9
:104160000028A4EB0004064404DD002CF2DC00204F
:10417000BDE8F081AB894FF0FF3043F04003AB81E5
:10418000BDE8F081AB892A6923F400639BB2AB815F
:10419000DB0469602A60C3D52865C1E7EA6B002AA1
:1041A00096DCE4E701234046E969B047431C024638
:1041B00019D0AB89AE6A9AE7D8F800100029E1D08F
:1041C0001D2907D0162905D0AB8943F04003AB81E8
:1041D000BDE8F081AB89296923F400630022AB813B
:1041E00085E806009CE7D8F80030002BE1D01D2BB5
:1041F00001D0162BBED1C8F80040B8E710B5044670
:1042000082B008B1836B53B1B1F90C0008B902B0A8
:1042100010BD204602B0BDE81040FFF74BBF019132
:1042200000F080F80199EFE7014900F0BBBB00BF47
:10423000E55808002DE9F04F074635487D68002411
:1042400007F53B7204230321F863C7F8E412C7F8AB
:10425000E822C7F8E04283B02C606C60AC606C660A
:10426000EC812C616C61AC61AB81214605F15C0095
:104270000822FEF7F3FEDFF89CB0BE68DFF898A0D6
:10428000DFF89890DFF8988001230922C5F820B064
:10429000C5F824A0C5F82890C5F82C80ED6121460A
:1042A000F381B28106F15C0034607460B4607466BE
:1042B00034617461B46108220193FEF7CFFEFD689A
:1042C00012200222F661C6F820B0C6F824A0C6F873
:1042D0002890C6F82C802146A881EA812C606C6069
:1042E000AC606C662C616C61AC6105F15C0008220D
:1042F000FEF7B4FE019BED61C5F820B0C5F824A01F
:10430000C5F82890C5F82C80BB6303B0BDE8F08FDA
:1043100029420800595608007D560800B556080085
:10432000D5560800836B03B17047FFF783BF00BF0A
:10433000704700BF704700BF38B5084B084DED1AF5
:10434000AC1018BFED1805D0013C55F8043D984756
:10435000002CF9D1BDE8384001F0CABEFC6008006D
:10436000006108002DE9F04182B007460E46144670
:1043700000F044FB012840D0384601A9324604F140
:104380005C0301F0FFF9B0F1FF3F80462ED000281A
:104390003BD09DF80410002509E0236819702368BC
:1043A000013323600135A8452FD901AB595DA368BE
:1043B000013B002BA360F0DAA269934206DB23687D
:1043C00019702368197801330A29EAD13846224640
:1043D00001F084F9A0F1FF30B0FA80F04009002824
:1043E000E0D04FF0FF3002B0BDE8F081A38943F088
:1043F0004003A38102B0BDE8F081731EFE2BBBD841
:10440000F1B280468DF80410C5E7304602B0BDE831
:10441000F08100BF938913F4005F0BD110B4546E88
:1044200043F4005344F40054546693815DF8044B04
:10443000FFF798BFFFF796BFF8B50C46224F064628
:1044400000F004FFBB685D6825F00305291B01F639
:10445000EF7121F47F6121F00F01A1F58054B4F5D3
:10446000805F07DB3046002101F0E4F8BB682B4495
:10447000984204D0304600F0EBFE0020F8BD3046F4
:10448000614201F0D7F801300DD0104BBA681968BD
:104490002D1B45F001053046091B5560196000F0E1
:1044A000D7FE0120F8BD3046002101F0C3F8BA68FC
:1044B000831A0F2BDEDD064C0449246843F0010308
:1044C000001B53600860D5E788050720380A0720DD
:1044D0009409072000294ED02DE9F0410C46804672
:1044E00000F0B4FE54F8047C6249A4F1080527F0FA
:1044F0000102AB188E6858689E4220F003005AD023
:10450000FE0758600BD454F8087C01F1080EED1B2F
:10451000AC683A44744567D0EF68E760BC601C182B
:104520006468E4070CD4544F9C680244BC427CD0BD
:10453000D86842F00103E06084606B60AA5003E039
:1045400042F001036B60AA50B2F5007F14D2D2088A
:1045500001EBC20301244868921004FA02F29C683D
:104560001043AC60EB6048609D60E5604046BDE88C
:10457000F04100F06DBE7047530A042B47D89309F1
:1045800003F13804600001EB8000836839498342FD
:1045900043D0596821F00301914202D99B689842A7
:1045A000F7D1DA68EA60AB6040469560DD60BDE84F
:1045B000F04100F04DBEFF07024407D454F8084C08
:1045C0002D1BEB68A8682244C36098602B4B42F017
:1045D00001001B6868609A428D60C7D3284B404633
:1045E0001968FFF729FFC1E719184968C90709D4F5
:1045F000D96802449B6842F00100D9608B60686012
:10460000AA50B3E742F001036B60AA50AEE7142B47
:1046100014D803F15B046000B5E74A68A4100120D8
:10462000A04002434A601A46BCE742F001034D61D4
:104630000D61EC60AC606B60AA5097E7542B04D816
:10464000130B03F16E0460009DE7B3F5AA7F04D855
:10465000D30B03F17704600095E740F25450834296
:1046600004D8930C03F17C0460008CE7FC207E24CA
:1046700089E700BF880507209005072090090720DB
:10468000340A07209368002B00F0B1802DE9F04F29
:10469000B1F80CE083B01EF0080F0C4681461646B8
:1046A00028D00B6933B30EF002081FFA88F0356882
:1046B00080B34FF0000BD846DFF8E4A2B8F1000F4A
:1046C00000F08F80D0454346484628BF5346E169F5
:1046D0005A46676AB847002840F3A880B368834405
:1046E0001B1AC0EB0808B360002BE7D1002003B011
:1046F000BDE8F08F48462146FFF76AFC002840F0ED
:104700004681B4F80CE035680EF002081FFA88F014
:104710000028CED11EF0010B40F09180D846B8F1B0
:10472000000F58D01EF4007FA76862D0B845BA4683
:10473000C0F0C2801EF4906F00F0C08067692169EC
:10474000236807EB47075B1A07EBD777581C7F10E6
:10475000404487423A463CBF07463A461EF4806FC3
:10476000009300F0FB801146484600F0C5F9009B1D
:104770008246002800F00E811A462169009300F05D
:104780008BFCA289009B22F4906242F08002A281FD
:104790000AEB0300C4F810A0FB1A6761C246474643
:1047A0002060A3605246594600F0ECFCA0682268E5
:1047B000C01BA060404602EB0A032360B368834439
:1047C0001B1AC0EB0808B360002B8FD0B4F80CE0C4
:1047D000B8F1000FA6D1D5F800B0D5F8048008359F
:1047E0009DE7D5F800B0D5F80480083566E70020CD
:1047F000704720682369984203D86269904580F029
:104800008580474528BF474659463A4600F0BAFCDE
:10481000A3682268DB1B3A44A3602260002B49D1C5
:1048200048462146FFF7EAFC002843D0A38943F01D
:1048300040034FF0FF30A38103B0BDE8F08F804606
:10484000834682460090BAF1000F2BD0009B002BCC
:104850004FD0D045434628BF5346206821691F46A4
:104860008842D4F808E0626903D90EEB020C634574
:104870005EDC934224DB1346676A4846E1695A4688
:10488000B847071ED2DDB8EB070829D0B368BB4490
:10489000DB1BC7EB0A0AB360002B3FF427AFBAF16A
:1048A000000FD3D10023D5F800B0D5F804A00093B1
:1048B0000835C8E7384681E74746C246206871E7B1
:1048C0001A465946019300F05DFCA2682168019BDD
:1048D000B8EB0708A2EB03020B44A2602360D5D11A
:1048E00048462146FFF78AFC00289FD1CDF800807A
:1048F000CCE758460A21524600F084FB002841D0FC
:1049000001300123CBEB00080093A2E76FF00043D6
:10491000434528BF434693FBF2F3676A03FB02F368
:104920004846E1695A46B84700283FF747AF7DE758
:1049300062465946CDF804C000F024FC2368DDF837
:1049400004C04846634423602146FFF757FCDDF866
:1049500004C000287FF46AAF674694E7484600F039
:1049600079FC009B824600287FF412AF48462169FB
:10497000FFF7B0FDA3890C2223F080039BB2C9F896
:10498000002054E701230AF10108009361E74FF08A
:10499000FF30ACE60C23C9F80030A38947E700BF1D
:1049A00000FCFF7F2DE9F84310F538761ED08846CD
:1049B00007464FF000097568B468013D10D4A3891B
:1049C000013D012B08D9B4F90E30013304D038462B
:1049D0002146C04749EA00096B1C04F16804EED186
:1049E0003668002EE7D14846BDE8F883B146484610
:1049F000BDE8F8830048704764050720014B18683C
:104A0000704700BF840507208B899AB212F0020F0D
:104A10003CD1F0B50C46B1F90E1091B00029054615
:104A200019DB01AA00F0A0FF002812DB029B03F4AF
:104A30007043A3F50057B7FA87F7B3F5004F4FEA75
:104A400057172AD0A3894FF4806643F40063A381EB
:104A50000BE0A3899AB212F0800F43F40063A381A4
:104A60000CBF4FF48066402600272846314600F0F0
:104A700043F8A38940B31A4A43F08003EA63A38151
:104A80002060206166619FB911B0F0BD01F1430360
:104A900001220B600B614A617047124BA26A9A4275
:104AA000D0D1A3894FF480663343A381E664DCE769
:104AB0002846B4F90E1000F06BFF0028E4D0A3895B
:104AC00043F00103A381DFE79A05DDD404F143023B
:104AD00043F002030121A381226022616161D3E7D7
:104AE00029420800B5560800024B0146186800F03C
:104AF00003B800BF600507202DE9F04F01F10B0559
:104B0000162D83B0064627D935F0070500F1B6808B
:104B1000A94200F2B38000F099FBB5F5FC7F22D2E8
:104B2000BC4FE80807EBC003DC689C4200F0BC8186
:104B30006368E16823F0030323445A68A56842F0E0
:104B40000102E96030468D605A6000F081FB083454
:104B5000204603B0BDE8F08F102900F28F8000F0EE
:104B600075FB1025DCE7680A00F08F80042800F24E
:104B70004781A80938304100A64F07EB8101CC6876
:104B8000A14206D10CE0002A80F28280E468A142B2
:104B900006D0636823F003035A1B0F2AF3DD0138A4
:104BA00001309C493C6901F1080E744500F07181A7
:104BB000636823F003035A1B0F2A00F35781002A6E
:104BC000C1F814E0C1F810E066DAB3F5007F80F0B8
:104BD0002D81DB0801EBC3084FEAA30C4A680123CF
:104BE00003FA0CF3D8F808C01343C4F808C0C4F89B
:104BF0000C804B60C8F80840CCF80C4082100124AF
:104C000094409C4255D8234206D120F00300640012
:104C1000234200F10400FAD007EBC008C4468146E5
:104C2000DCF80C309C4507D135E1002980F2458144
:104C3000DB689C4500F02F815A6822F00302511B6B
:104C40000F29F2DD1C46DA6854F808CF45F0010957
:104C500041F001081D44C3F804903046CCF80C2004
:104C6000C2F808C07D613D61C5F80CE0C5F808E0F8
:104C7000C5F80480695000F0EBFA69E7002420468B
:104C80000C23336003B0BDE8F08F7E213F2073E733
:104C900023445A68E16851E723445A68304642F099
:104CA00001025A60083400F0D3FA204603B0BDE890
:104CB000F08FBC68636823F00308454504D8C5EB52
:104CC00008030F2B00F38C80534BDFF85CA11A68AC
:104CD000DAF800302A44013304EB080B00F051816C
:104CE00002F580520F3222F47F6222F00F02114649
:104CF0003046019200F09EFCB0F1FF3F8146019AE0
:104D000000F04881834500F2EF80444BCB451968A1
:104D10001144196000F04381DAF80000DFF808E17F
:104D200001301BBFCBEB090B5944CEF80090196042
:104D300019F0070100F00881C1F10800C1F58051A8
:104D4000814408314A44C2F30B02C2EB010A5146C6
:104D50003046019300F06EFC431C019B00F02D8156
:104D6000C9EB0002524442F001021968BC425144AE
:104D7000C7F808901960C9F80420DFF8A0A016D081
:104D8000B8F10F0F40F2EF806268A8F10C0323F036
:104D9000070302F00102E0184FF0050E1A430F2B33
:104DA0006260C0F804E0C0F808E000F20A811C4B21
:104DB000BC681A68914288BF19601A4B1A68914200
:104DC000626888BF196022F003029542A2EB0503D6
:104DD00001D80F2B04DC304600F03AFA0024B7E685
:104DE00045F0010243F00103254462603046BD6096
:104DF00008346B6000F02CFA204603B0BDE8F08F59
:104E0000142869D9542800F29880280B6E3041008C
:104E1000B2E600BF88050720340A0720380A0720B9
:104E2000300A07202C0A0720940907205A0A042A6E
:104E300055D9142A00F2A7805B324FEA420C07EBE7
:104E40008C0CDCF80810DFF8B88161457FD04A6827
:104E500022F00302934202D289688C45F7D1CA68D6
:104E60007B68E260A1609460CC60C7E645F0010712
:104E700042F001032544676030464D610D61C5F87D
:104E80000CE0C5F808E06B60AA50083400F0E0F9C7
:104E90005EE64B68B2E609F1010919F0030F0CF167
:104EA000080C7FF4BDAE2CE004F108036469A34252
:104EB00008BF02303FF475AE3AE61C461A4451680A
:104EC000DB6854F8085F41F0010151603046EB6047
:104ED0009D6000F0BDF93BE65B3041004CE69A096D
:104EE00038324FEA420CAAE7BC42454B3FF40DAFC3
:104EF0009C68626822F0030267E7D8F80080984552
:104F00007CD110F0030FA8F1080300F1FF30F4D1B9
:104F10007B6823EA04037B6064009C423FF6C9AED1
:104F2000002C3FF4C6AE234248467FF475AE6400C1
:104F3000234200F10400FAD06EE6B0F5AA7F18D83B
:104F4000E80B7730410017E64FF48051FAE6D8F8C5
:104F5000043092104FF0010C0CFA02F21343C8F81F
:104F600004300A467DE70123C9F804304C4600228C
:104F70002BE740F2545398421CD8A80C7C304100D7
:104F8000FAE51032B3E6542A23D81A0B6E324FEAF0
:104F9000420C54E7BC68626822F0030215E7CBF3C9
:104FA0000B0000287FF4B8AE4244BB6842F0010217
:104FB0005A60FCE6FC217E20DEE501224FF0000A6B
:104FC000D3E604F108013046FFF784FADAF800105E
:104FD000EDE6B2F5AA7F04D8DA0B77324FEA420C3D
:104FE0002DE740F254518A4204D89A0C7C324FEAA1
:104FF000420C24E74FF0FC0C7E2220E77B688BE715
:1050000088050720830770B4C9B240D0541E002A17
:105010003FD003788B4218BF431C05D11CE0ECB194
:105020000278013C8A4217D013F0030F184603F1AF
:105030000103F4D1032C14D884B103788B420BD034
:105040000519431C02E002788A4205D0AB4218469B
:1050500003F10103F7D1002070BC7047204670BCFB
:105060007047024641EA012646EA064613681046A2
:105070007340A3F1013525EA030313F0803F02F1E9
:105080000402D9D1043C032C1046EFD8D4E71446CF
:10509000D0E71046E0E700BF844641EA000313F082
:1050A000030349D1403A23D30B6803604B68436044
:1050B0008B688360CB68C3600B6903614B69436194
:1050C0008B698361CB69C3610B6A03624B6A43627C
:1050D0008B6A8362CB6AC3620B6B03634B6B436364
:1050E0008B6B8363CB6BC36340304031403ADBD280
:1050F00030320BD30B6803604B6843608B6883606E
:10510000CB68C36010301031103AF3D20C3205D3A3
:1051100051F8043B40F8043B043AF9D2043208D079
:10512000D2071CBF11F8013B00F8013B01D30B88EB
:1051300003806046704700BF082A13D38B07B1D0A5
:1051400010F00303AED0C3F10403D21ADB071CBF77
:1051500011F8013B00F8013BA4D331F8023B20F8E1
:10516000023B9FE7043AD9D3013A11F8013B00F81A
:10517000013BF9D20B7803704B7843708B788370C6
:10518000604670478842F0B50DD98B1898420AD214
:105190008118002A54D09A1A13F8014D934201F84D
:1051A000014DF9D1F0BD0F2A48D940EA01039B0710
:1051B00047D1154600F1100401F1100353F8106CAB
:1051C000103D44F8106C53F80C6C0F2D44F80C6C27
:1051D00053F8086C04F1100444F8186C53F8046C8C
:1051E00003F1100344F8146CE8D8A2F1100323F083
:1051F0000F0302F00F0E1033BEF1030F19440344E6
:1052000021D90E4674461D1F56F8047B043C032C1E
:1052100045F8047FF8D8AEF1040424F00304043404
:105220002344214402F0030252B1013B0A4411F825
:10523000014B914203F8014FF9D1F0BD0346F3E76A
:10524000F0BD0346F1E77246EEE700BF704700BFCE
:10525000704700BF2DE9F04F174683B00D46002977
:1052600000F0E280814607F10B04FFF7EFFF55F8ED
:10527000043C162C23F00306A5F108084BD8102295
:105280001446A7424CD8964251DADFF8A4B308EB93
:105290000601DBF80800884200F0D380486820F05F
:1052A000010E8E44DEF804E01EF0010F54D120F010
:1052B00003003044904280F2BD80DB0700F1908013
:1052C00055F8083CC3EB080ADAF8043023F003036E
:1052D00000EB030E964549DB5746CB688968321FC1
:1052E000CB60996057F8081FDAF80C30242ACB609D
:1052F000996000F23381132A40F2FA802B681B2A4E
:10530000CAF808306B68CAF80C3000F23B810835E7
:105310000AF11003EDE024F00704002C2246B0DA75
:105320000C230020C9F8003003B0BDE8F08F2F46F1
:10533000321B0F2A03F0010340D83343C8F804306E
:105340004644736843F0010373604846FFF780FFEB
:10535000384603B0BDE8F08FD90741D455F8083C72
:10536000C3EB080ADAF8043023F003033344934212
:1053700036DB5746DAF80C1057F8080F321F242A8C
:10538000C160886000F2F580132A40F2F08029683D
:105390001B2ACAF808106968CAF80C1000F20781C5
:1053A00008350AF1100229681E4611606968D04666
:1053B0005160AB689360DAF80430B9E708EB040198
:1053C000234342F00100C8F804300A44486053689F
:1053D000083143F0010353604846FFF77BF8B4E718
:1053E00039464846FFF788FB07460028ADD055F8F8
:1053F000043CA0F1080123F001024244914200F074
:10540000A680321F242A00F29380132A65D803460F
:105410002A46116819605168596092689A60294655
:105420004846FFF757F890E7114603B0BDE8F04F44
:10543000FFF762BBCA6889682F46CA60064691605A
:1054400076E7416804F1100021F003013144814204
:105450005ADADB07C4D455F8083CC3EB080ADAF87B
:10546000043023F0030301EB030C60453FF77EAFEC
:105470005746DAF80C3057F8081F321F242ACB6041
:10548000996000F2B680132A40F2A7802B681B2A8D
:10549000CAF808306B68CAF80C3000F2B3800835DF
:1054A0000AF110032A681A606A685A60AA689A604A
:1054B000C4EB0C030AEB040243F00103CBF8082011
:1054C0005360DAF80430484603F001031C43CAF87D
:1054D0000440FFF7BDFE38463BE72B681B2A0360FC
:1054E0006B68436028D800F1080305F1080290E7D3
:1054F0003B462A6876461A606A68D0465A60AA68AF
:105500009A60DAF8043013E70B1B08EB040243F04F
:105510000103CBF80820536055F8043C484603F0DB
:1055200001031C4345F8044CFFF792FE284610E7A0
:105530002946FFF727FE72E7AB68242A8360EB68F1
:10554000C3602BD000F1100305F1100261E750F8A1
:10555000042C2F4622F003021644E9E62946384679
:105560007646D046FFF70EFEDAF80430E0E63A461B
:1055700019E7294638461E46D046FFF703FEDAF8FB
:105580000430D5E6AB68242ACAF81030EB68CAF8B4
:10559000143018D010350AF11803AAE72A6900F16F
:1055A00018030261696905F11802416131E7A968D0
:1055B000242ACAF81010E968CAF814100FD0103560
:1055C0000AF11802EFE62A690AF12003CAF8182046
:1055D0006A691835CAF81C208BE73B4662E72969DF
:1055E0000AF12002CAF8181069691835CAF81C10A7
:1055F000D9E629463846CDF804C0FFF7C3FDDDF8EB
:1056000004C055E7AB68242ACAF81030EB68CAF822
:10561000143003D010350AF1180343E72A690AF160
:105620002003CAF818206A691835CAF81C2039E71F
:105630008805072038B5074C002305460846236037
:10564000FBF766F9431C00D038BD2368002BFBD064
:105650002B6038BD6C0A072010B50C46B1F90E104E
:1056600000F0BCF9002803DB236D0344236510BD63
:10567000A38923F48053A38110BD00BF2DE9F0411D
:105680000C4689891D46CB051646074606D5B4F952
:105690000E100022022300F08DF9A18921F480511F
:1056A000A1813846B4F90E1032462B46BDE8F041D0
:1056B00000F0A0B810B50C46B1F90E1000F07AF960
:1056C000A389421C0EBF23F4805343F4805320650A
:1056D000A38110BDB1F90E1000F0F2B870B50D46FF
:1056E0001446064610B1836B002B48D0A289A369EB
:1056F00091B20807A36038D52369002B35D08904FF
:10570000EDB215D522686169D31A8B421CDA0133D8
:10571000A168501C0139A1602060157062699A422D
:105720001AD0A389DB0701D50A2D15D0284670BDF4
:10573000616E42F4005221F40051A2812268616638
:105740006169D31A8B42E2DB30462146FEF756FDF3
:1057500040B922680123DBE730462146FEF74EFDC3
:105760000028E3D04FF0FF3070BD30462146FEF7F1
:105770002FFC0028F6D1A289236991B2BFE7FEF77A
:10578000D1FDB3E72DE9F041054686B01E460C4633
:10579000A1B1104B1746D3F80080FFF72BF9009604
:1057A000034621463A462846C047431C03D10022FF
:1057B0008A2332602B6006B0BDE8F081054B1F687C
:1057C000FFF718F9009603462246284603A9B84772
:1057D000EBE700BF9809072021B1FF2A04D80A701F
:1057E00001207047084670478A2303604FF0FF305E
:1057F000704700BF70B5084C0646002508461146A4
:105800001A462560FAF7F4FC431C00D070BD2368EB
:10581000002BFBD0336070BD6C0A07202DE9F047E8
:10582000254C064625688846D5F848419246994653
:10583000C4B360681F2817DC411C76B104EB8003F9
:10584000C3F888A0D4F88851012282401543022E63
:10585000C4F88851C3F808911ED0831C61600020F1
:1058600044F82380BDE8F087144B03B34FF4C870AD
:10587000FFF73AF90446D0B1D5F84831002784E85B
:1058800088003846C5F848410121C4F88871C4F839
:105890008C71002EE1D0D1E7D4F88C311A43C4F8D2
:1058A0008C21DAE705F5A674C5F84841C1E74FF049
:1058B000FF30BDE8F08700BF84600800E94A0800B7
:1058C00038B5074C0023054608462360FBF73AF835
:1058D000431C00D038BD2368002BFBD02B6038BDA3
:1058E0006C0A072000293DD070B505460C4608B16A
:1058F000836B7BB3B4F90C300BB9002070BD284624
:105900002146FEF7D7FBE36A064633B12846E16934
:1059100098470028B8BF4FF0FF36A3891B061CD458
:10592000216B41B104F14003994202D02846FEF7B1
:10593000D1FD00232363616C21B12846FEF7CAFD27
:1059400000236364FEF7F4FC0023A381FEF7F2FC5E
:10595000304670BDFEF7E6FCCCE728462169FEF72D
:10596000B9FDDDE70020704738B5084C0023054637
:10597000084611462360FAF7E9FF431C00D038BD02
:105980002368002BFBD02B6038BD00BF6C0A0720BA
:1059900038B5074C0023054608462360FAF7DCFFBC
:1059A000431C00D038BD2368002BFBD02B6038BDD2
:1059B0006C0A072070B5084C0646002508461146BB
:1059C0001A462560FAF7CAFF431C00D070BD236851
:1059D000002BFBD0336070BD6C0A072070B5084CFB
:1059E00006460025084611461A462560FAF7E2FBEE
:1059F000431C00D070BD2368002BFBD0336070BD0A
:105A00006C0A072053B94AB9002908BF00281CBFF7
:105A10004FF0FF314FF0FF3000F03CB882B0EC4661
:105A20002DE9005000F01EF8DDF804E002B00CBCD7
:105A3000704700BF2DE9F041069C904606460F4690
:105A40001D4600F029F808FB01FCA8FB002300FB21
:105A500005C5B21A2B4467EB03038646C4E900234D
:105A6000BDE8F0812DE9F843089E17468046894637
:105A70001D4600F067F900FB05F3A0FB074507FB97
:105A80000137B8EB04043D4469EB0505C6E9004560
:105A9000BDE8F883704700BF00292DE9F043C0F24C
:105AA000A8800026002BC0F29E8081468E4690463C
:105AB0009C46174604460D46002B3DD18A4259D9D3
:105AC000B2FA82F33BB1C3F120029D4020FA02F208
:105AD0009F4015439C40390CB5FBF1F01FFA87FE3F
