S0140000456E636F646572496E7075742E7372656340
S214080000382A0720B9070800B5070800B50708000A
S214080010B5070800B5070800B50708000000000087
S214080020000000000000000000000000B5070800FF
S214080030B507080000000000B5070800B507080067
S214080040B5070800B5070800B5070800B507080093
S214080050B5070800B5070800B5070800B507080083
S214080060B5070800B507080000000000E505080009
S214080070F90508000D060800210608000000000023
S21408008000000000B5070800B5070800B507080017
S214080090B5070800B5070800B5070800B507080043
S2140800A0B507080000000000B5070800B5070800F7
S2140800B0B5070800B5070800B5070800B507080023
S2140800C0B5070800B5070800B5070800B507080013
S2140800D0B5070800B5070800B5070800B507080003
S2140800E0B5070800B5070800B5070800B5070800F3
S2140800F0B507080010B5054C237833B9044B13B17F
S2140801000448AFF300800123237010BD5C09072064
S21408011000000000A83B0800084B10B51BB10848B3
S2140801200849AFF300800848036803B910BD074BB9
S214080130002BFBD0BDE81040184700BF00000000A9
S214080140A83B080060090720A83B0800000000003C
S21408015070B50E46144670B91546611B002D31441D
S21408016006DD064B013D1868054B1B689847F4E703
S21408017024EAE47070BD4FF0FF3070BD2C0A0720EB
S214080180240A072043699B0743BFC1F30801C161DE
S2140801900020012070474369DB0741BF83690020C0
S2140801A0C3F308030B6058BF0120704701380228C4
S2140801B070B50E460ED80C468D18AC42A4EB060059
S2140801C00BD0064B14F8011B1868054B1B6898479C
S2140801D00028F2DA4FF0FF3070BD70BD2C0A0720F9
S2140801E0280A0720AC2310B503604A680B68B3FBDF
S2140801F0F2F34FF6FE721B095C1E94429FBF036221
S2140802008B68436040F202239FBFC0F8203150231A
S2140802100360002088BF012010BD43699B0746BFC6
S214080220C1610020012070474369DB0743BF83692B
S21408023000200B700120704710B50E480E4CA047E2
S21408024000203E210D4B98470D4B98470028FBD0C1
S2140802500C4B98470C4A0D4B9A620D4B9847002852
S214080260FBD00C4B102098470B4B98470148A047EB
S21408027010BD00BF00BD010589000720FD06080067
S2140802804907080059070800013F0D2000060E40E0
S21408029069070800B906080039080800174B4FF424
S2140802A0004210B50B205A60154CA0470C20A047FA
S2140802B00D20A0470E20A047124C4FF060513B205F
S2140802C0A0474FF060515520A0474FF06051562088
S2140802D0A0470D496820A0470C495C20A0470C4A57
S2140802E00C4B4FF440710C4898474FF000612B2098
S2140802F0A0474FF000612A20A04710BD501A0E40B4
S21408030079070800FD030800790000280100002886
S21408031001000008C1040800000E0E4052004FF409
S2140803200043B3FBF2F2013AC2F30D02C0F88410A0
S214080330C0F88C207047B1F1805F426414D009D8A9
S214080340B1B1B1F1006F12D1036F016F0B4023EA10
S21408035002030BE0B1F1405F0AD0B1F1605F07D04D
S214080360B1F1205F03D17047036F13430367426000
S2140803707047D30741644CBF4166016612F00A0F06
S21408038014BF01624162930702D5C0F8801003E0EB
S214080390130748BFC0F8841041610160704710B564
S2140803A0029C41640CB1416600E001660BB1016530
S2140803B000E041650AB1016300E041630161016044
S2140803C010BDD3060ED59306C0F8B0104CBFC0F8C3
S2140803D0D410C0F8D01053064CBFC0F8C010C0F8F0
S2140803E0C4107047C0F8B4107047C36C01647047F7
S2140803F041647047C06C7047806C7047F7B5450914
S2140804000E4605F5001501F0F04105F20775B1F145
S214080410205F4FEA45252BD014D8B1F1006F18D0CD
S214080420B1F1805F42D100F01F02012000FA02F30A
S2140804306B642A6F1A432A67F2076B604CBF6B66B9
S2140804402B6634E0B1F1405F1CD0B1F1605F19D083
S2140804502CE000F01F00012404FA00F73A4628466C
S214080460144B9847F1074CBF6F662F6620461EE070
S21408047000F01F02012404FA02F1284632460E4B09
S2140804809847F3E7012406F0605206EA040300934F
S21408049002F148435A4200F01F015A41284604FA1E
S2140804A001F1C6F38003054DA847DFE7002003B037
S2140804B0F0BD00BF37030800730308009F03080059
S2140804C002F0F043B3F1205F73B505460C461646B6
S2140804D01CD00BD8B3F1006F0FD0B3F1805F29D1D1
S2140804E06964036F0B43036769600AE0B3F1405F12
S2140804F010D0B3F1605F0DD01CE0194622460F4BB2
S2140805009847F2074CBF6C662C6601E00C4B984780
S214080510012010E006F0605206F00103009302F195
S21408052048435A4221465A412846C6F38003054C9A
S214080530A047EDE7002002B070BD00BF37030800F3
S214080540730308009F030800F8B5134B04460F46CC
S2140805509847124B05462046984705401BD0104C36
S21408056004F1600654F80C3CBB4210D154F8081C41
S21408057029420CD023683846984754F8083CB442B9
S21408058025EA030507D01034002DEBD1F8BDB44298
S21408059001D01034E6E7F8BDF5030800F9030800B3
S2140805A088090720F8B50C4E3468062C12D8DFF8F0
S2140805B030E027014EF8071006990EEB07056A602B
S2140805C0AB60E960013411461A46044B346098471C
S2140805D00020F8BD0120F8BD78090720C3030800ED
S2140805E07C09072008B502480B21024B984708BD2E
S2140805F0000E0E404905080008B502480C21024BBB
S214080600984708BD00100E404905080008B502487E
S2140806100D21024B984708BD00120E4049050800F8
S21408062008B502480E21024B984708BD00140E4034
S21408063049050800F8B51B4B0C460646154698476C
S21408064007464FF0FF313046174B98473046174B52
S2140806509847E0B200F01F03012199406309002C77
S2140806604FEA83034FEA0512ACBF04F16044104C0E
S21408067003F1604303F56143B9BF00F00F00D2B23F
S214080680D2B204F56144C3F88010C3F88011B4BF31
S214080690225484F80023304619603946054B98479B
S2140806A0F8BD00BFF9030800F1030800F5030800C9
S2140806B014ED00E0EB0308000F4B1A6B22F07002F3
S2140806C0104340F601021863986E0B49000703D4DE
S2140806D0013AF9D1012070470A6B22F0030242F072
S2140806E002020A6340F60102996E090702D4013A2B
S2140806F0FAD1EFE70020704700060E400F4A136A4B
S21408070028B10F4919400F4B0B431362704723F467
S2140807105C1323F0030343F45C13090243F001035C
S21408072089B20B431362936E0449DB07FBD50B6A49
S21408073043F09B7343F480330B62704700060E4009
S214080740FCFFC8FE02003701024B986E00F48030AA
S214080750704700BF00060E40024B4FF000529A62E8
S214080760704700BF00060E40024B986E00F002006D
S214080770704700BF00060E402C2815D81F280C4AC4
S2140807804FF0010306D891698340194099420DD06D
S21408079013610BE0D2F808112038834019409942BB
S2140807A004D0C2F8003101E00120704700207047ED
S2140807B000060E40FEE7000008B5164A164B9A4299
S2140807C001D0043A01E0154B07E015498B42FAD2EE
S2140807D052F8041F43F8041BF7E7124A934203D261
S2140807E0002243F8042BF8E70F4B104A23F0604129
S2140807F021F07F0103F16043B3F5801F91603EBF8F
S214080800936843F000539360094B9847094B984701
S214080810FEE700BFA83B0800000007205C09072089
S2140808205C090720340A07200000080000ED00E0F5
S2140808309D0B0800B10A080010B52C4A136B03F08C
S2140808400303012B2A4B0DD003D3116ACC011AD50A
S21408085025E02849496908064CBF4FF400414FF483
S214080860FA4130E0116AC9010BD423491960116AAC
S21408087001F07001102902D0202902D024E01F4977
S21408088021E01F491FE01C491960116A01F0700138
S214080890102902D0202902D003E0184900E01849A0
S2140808A01960116B114801F00301022901BF816A22
S2140808B0806AC1F30A44196803BFC0B204FB011179
S2140808C0B1FBF0F10F491960126B02F07002702A42
S2140808D003BF1A680321B2FBF1F2044A1FBF116B6B
S2140808E01A68C1F30211CA401A6010BD00060E400D
S2140808F0EC000720101A0E4000093D0000127A008E
S214080900001BB700001C4E0E074B1A680AB9074AA8
S2140809101A601B68064A18449042DDBF024A1060F7
S21408092018464FF0FF307047EC090720382A072092
S214080930FC7F08204FF0FF3070474FF400534B60A1
S214080940002070470120704700207047F7B50E4614
S2140809500A490B4C0B68074601330B602046094BC7
S2140809609847094B054620469847084C0090394654
S21408097032462B460648A04703B0F0BDF0000720D5
S214080980000E0E40F5030800F9030800ED0B0800FA
S214080990FC3A080013B5002301931B4B0C469842FB
S2140809A006D119482146194B98470028F9D128E05E
S2140809B0174B984206D1164801A9164B98470028A7
S2140809C0F9D11CE0144B984206D1134801A9114BE3
S2140809D098470028F9D112E0104B984206D10F48E4
S2140809E001A90C4B98470028F9D108E00C4B98420F
S2140809F007D10B4801A9074B98470028F9D1019B56
S214080A00237002B010BD00BF00080E40290208007F
S214080A10008009409701080000C0094000000A400D
S214080A2000400A401B4B10B598420C4607D119489F
S214080A302146194B98470028F9D1012010BD174BBD
S214080A40984206D115482146154B98470028F9D1F3
S214080A50F3E7144B984206D112482146104B9847A4
S214080A600028F9D1E9E7104B984206D10E482146EE
S214080A700B4B98470028F9D1DFE70C4B984206D174
S214080A800A482146064B98470028F9D1D5E70020A2
S214080A9010BD00BF00080E401B0208000080094079
S214080AA08501080000C0094000000A4000400A40CE
S214080AB0F0B5254B87B09847244B9847244E254BCE
S214080AC0254A1E60254B264D1A60264A264B4FF4AB
S214080AD000641A60254B264F039308204FF4E13331
S214080AE004930594A847304603A9224B98473B68C9
S214080AF000219868204EB0473B6800215868B047E8
S214080B000B20A8471D484FF4803101221C4B9847FC
S214080B101A484FF480310A221A4B98471A4B0B2171
S214080B2000934FF4803240231448184DA847184BBA
S214080B3012481C600B21174B002298470F484FF4A9
S214080B408031154B9847FEE7390208009D020800D9
S214080B5000080E402C0A0720250A0800280A072045
S214080B607907080095090800240A072000BD010532
S214080B7020050720E5010800B10C0800000E0E400D
S214080B80730308001D0308004D090800A5050800A2
S214080B9000E100E035060800EB03080070B50F4ECC
S214080BA00F4D761BB61018BF002405D0013455F833
S214080BB0043B9847A642F9D10A4E0B4D02F0DEFFD9
S214080BC0761BB61018BF002406D0013455F8043B2F
S214080BD09847A642F9D170BD70BD00BF883B080093
S214080BE0883B0800903B0800883B08000FB410B507
S214080BF0074B82B004AC54F8042B18682346816867
S214080C00019400F015F902B0BDE8104004B0704732
S214080C102005072070B4840746D0541E002A41D009
S214080C20CDB2034602E0621EE4B3144603F8015B45
S214080C309A07F8D1032C2ED9CDB245EA05250F2CF4
S214080C4045EA054519D9264603F11002103E0F2E2F
S214080C5042F8105C42F80C5C42F8085C42F8045C07
S214080C6002F11002F2D8A4F1100222F00F0204F0EA
S214080C700F041032032C13440DD91E462246043A9C
S214080C80032A46F8045BFAD8221F22F0030204322D
S214080C90134404F003042CB1C9B21C4403F8011B26
S214080CA0A342FBD170BC704714460346C2E700BF98
S214080CB000290CBF022200224FF4806300F000B81F
S214080CC02DE9F0413A4D04462E6890460D461F46DB
S214080CD016B1B36B002B3CD0B8F1020F2FD8002FFB
S214080CE02DDB2146304600F0FFFFA1890023636014
S214080CF0A3610B0627D421F0830189B2B8F1020F4D
S214080D00A1812AD0002D36D0B8F1010F11D089B2B2
S214080D1001F00800274B80B2F36325602561676100
S214080D2078B111F0030F18BF00270020A760BDE8B0
S214080D30F08141F001017B42A181A361E7E74FF012
S214080D40FF30BDE8F0812169304601F039F9A18904
S214080D50D1E7304601F05CF8BEE7002004F1430313
S214080D6041F0020100250122A181A56023602361CC
S214080D706261BDE8F081002F08BF4FF480673846EF
S214080D8001F028FC054628B1A18941F0800189B206
S214080D90A181B9E74FF4806001F01CFC054618B93C
S214080DA0A1894FF0FF30D9E74FF48067ECE700BF22
S214080DB020050720151D08004B6E2DE9F0479C04FA
S214080DC00F4692462BD59368126833B3804602F1D5
S214080DD0080919E96000B60817D0043D002401E0A8
S214080DE0A64210D0404655F8041F3A4601F088F847
S214080DF0431C04F10104F3D10023CAF80830CAF8EA
S214080E000430BDE8F087DAF80830A3EB8603CAF8A2
S214080E10083009F10809002BDBD10020ECE701F0C7
S214080E20A7F90023CAF80830CAF80430BDE8F087E6
S214080E302DE9F04FABB01C46009193460493019001
S214080E4018B1836B002B00F0E380009B99898AB267
S214080E50900408D418465B6E41F4005223F40053FD
S214080E608281436692B2110740F1B280009B1B69EB
S214080E70002B00F0AD8002F01A020A2A00F0B480B7
S214080E800DF1680A54460023099302930F930E93B4
S214080E90CDF834A09BF80030002B00F0A384252B57
S214080EA000F0A0845A4601E0252B03D012F8013F33
S214080EB0002BF9D1CBEB0206154696B10E9B0F9A7E
S214080EC001333244072BC4F800B066600F920E93C5
S214080ED079DD002A40F0AD845446029B0E923344D6
S214080EE002932B78002B00F05F834FF0000300215D
S214080EF04FF0FF3C8DF82F30681C6B7888460D46FF
S214080F00664600F1010BA3F12002582A00F2AA82D5
S214080F10DFE812F09A02A802A802A202A802A80213
S214080F20A802A802A802A80254026002A8020D019C
S214080F306C02A80229012F012F012F012F012F0172
S214080F402F012F012F012F01A802A802A802A8022C
S214080F50A802A802A802A802A802A8023D01A802A0
S214080F60A802A802A802A802A802A802A802A80224
S214080F70A8027401A802A802A802A802A8028B0167
S214080F80A802A802A301A802A802A802A802A8020A
S214080F90A802A802A802A802A802C701DA01A802A5
S214080FA0A802A8022301DA01A802A8024B02A80296
S214080FB088021301F4010702A8020D02A8028100A4
S214080FC0A802A80232020834029B3344029388E738
S214080FD00198009900F072FDA8B9009B9A8902F062
S214080FE01A020A2A7FF44CAF009BB3F90E30002B86
S214080FF0FFF646AF019800995A46234600F020FDB2
S2140810002BB0BDE8F08F4FF0FF302BB0BDE8F08F67
S21408101000F0FEFE19E718F0200F0395B44600F01E
S2140810200C81049B073323F0070303F10802D3E976
S2140810300067049201234FF00002E1468DF82F2046
S2140810400025BCF1000FA8BF28F0800856EA070262
S21408105040F0C480BCF1000F00F08083012B00F044
S214081060C580022B00F086835146F20842EA477292
S214081070F80806F0070307461646303356EA07020E
S21408108001F8013DF1D118F0010F079140F0FA83FD
S214081090C1EB0A09E1454E46B8BF664605B10136BA
S2140810A018F00203059318BF023618F08403069357
S2140810B040F0F981039B9D1B002D40F3F481102D11
S2140810C040F38A842046DDF838E064460F9AC44F19
S2140810D010237146844607E001F1020E01460CF122
S2140810E0080C103D102D13DD481C103207280F92EF
S2140810F0CCF80070CCF804300E90EDDD002A40F0F5
S214081100C281103D102D11464FF0010ED446EBDC7F
S21408111063467146A4461C462A4407290F92276050
S21408112065600E9100F346830834481CBEE15846B5
S21408113048F004089BF80030E3E618F0200303950F
S214081140B44662D0049B073323F0070303F1080272
S214081150D3E90067049200236DE748F040089BF83F
S21408116000305846CDE648F080089BF800305846D0
S214081170C7E6A3F1300200251BF8013B05EB850501
S21408118002EB4505A3F13002092AF5D9BBE648F07B
S214081190100818F0200F0395B4468DF82F1000F0AD
S2140811A09B800499073121F00701D1E900231646F0
S2140811B01F4608310491002A73F10003C0F2A48385
S2140811C0BCF1000FA8BF28F0800856EA07029DF871
S2140811D02F50E1464FF001033FF43CAF012B7FF45C
S2140811E040AF002F08BF0A2E80F032832AAB303675
S2140811F003F8416DC3EB0A0907934BE748F010085C
S21408120018F020030395B4469CD118F0100240F05D
S214081210F78218F0400300F0F382049913460A4652
S21408122004320E880027049205E748F0100818F0E4
S214081230200F0395B4467FF4F4AE049A18F0100F06
S214081240134640F0E48218F0400F00F0E08216885B
S2140812500432002701230492EDE6624A18F0200FB4
S2140812600395B4468DF82F10099200F08F80049AE3
S214081270073222F0070202F108010491D2E900675A
S21408128018F0010F00F08F8256EA070200F08B82F2
S21408129030228DF8313048F002088DF830200223CD
S2140812A0C9E6049A012613684FF000018DF840300D
S2140812B01346B1460433049310AB03958DF82F10EC
S2140812C007934FF0000CEBE618F0200F0395B44692
S2140812D08DF82F107FF465AF049A18F0100F134698
S2140812E040F0A08218F0400F00F09C82B2F900602F
S2140812F00433F717049332463B465CE70499782391
S2140813008DF83130384BB44630220E6804310993D4
S214081310039548F00208049100278DF83020022330
S21408132089E648F020089BF800305846E9E54FF073
S2140813300001049A03951368B44607938DF82F1096
S214081340151D002B00F04E83002EC0F22983079E41
S214081350624630460021CDF810C001F0C9FBDDF822
S21408136010C0002800F04E830495C6EB00099DF8CF
S2140813702F504FF0000C8DE61B4A18F0200F0395EF
S214081380B44609928DF82F107FF471AF049918F0BF
S214081390100F0A4640F0418218F0400F00F03D82D8
S2140813A004320E88002704926AE79BF800306C2BFC
S2140813B000F0E98248F010085846A2E5049A134659
S2140813C015680433002DC0F2E68204939BF80030BB
S2140813D0584696E59BF8003058462B2191E500BF05
S2140813E06C3B08003C3B0800503B08009BF800306C
S2140813F00BF101002A2B00F00F83A3F13002092A13
S21408140083464FF000063FF67EAD1BF8013B06EB21
S214081410860602EB4606A3F13002092AF5D946EA03
S214081420E67670E518F0200F8DF82F1000F083820E
S214081430049A134604330493029B1168DF171A466E
S2140814403B46C1E9002325E558469BF800300029AD
S2140814507FF457AD202154E548F0010858469BF81C
S21408146000304EE503958DF82F10002B00F09C8079
S2140814708DF840304FF0000301268DF82F3010AB62
S214081480B14607931DE7019800990DAA0893FFF740
S21408149093FC002840F08F800E99D4460F9A01F1ED
S2140814A0010E089B1DE60E990F9A481C9DF82F30D2
S2140814B06BB101320DF12F03012107280F920E9010
S2140814C02360616000F33481014608340130059BCF
S2140814D063B102320CA9022307280F920E9084E803
S2140814E00A0000F33481014608340130069B802B3D
S2140814F000F0D480C9EB0C07002F2BDD102FAB4D66
S2140815001FDDA6461023019C07E001F1020C0146E8
S2140815100EF1080E103F102F11DD481C1032072858
S2140815200F92CEF80050CEF804300E90EDDD6ABB70
S214081530103F102F4FF0010C1146D646EDDC7446CE
S21408154060463A4407280F9284E8A0000E903BDCD9
S2140815500834013002EB0903079A07280F9384E83A
S21408156004020E903DDD002B40F03F8118F0040F7A
S2140815700E9340F03081029B039A9642ACBF9B19AB
S2140815809B18029300230E93544683E42046009942
S2140815900DAA0593FFF710FC68B90E99D6460F9A60
S2140815A001F1010C059BB5E70F9B23B10198009943
S2140815B00DAAFFF701FC009B9B895B063FF523AD50
S2140815C002982BB0BDE8F08F002A40F090814B4679
S2140815D0544607990122CDF86C90CDF83C901A91A4
S2140815E00E9204F1080218F0040F39D003998D1BE7
S2140815F0002D35DD102D40F300820E986C4F102418
S214081600DDF80480DDF8009006E000F1020E0846DA
S2140816100832103D102D10DD411C103307290F939A
S214081620176054600E91F0DD002B2AD1103D102D66
S2140816304FF0010E18465246EEDC2B44BEF1070F5B
S2140816400F9317605560CDF838E009DD002B92D06F
S214081650019800990DAAFFF7AFFB0028ABD10F9BA6
S214081660029A03998E42ACBF921952180292002B26
S21408167088D0019800990DAAFFF79EFB002881D014
S21408168099E7404649460DAAFFF796FB002892D1EF
S2140816900E9852460F9B00F1010EBAE7039B9F1B5C
S2140816A0002F7FF727AF102F40F3B38120463F4D1A
S2140816B064461023844607E001F1020E01460CF149
S2140816C0080C103F102F11DD481C103207280F9207
S2140816D0CCF80050CCF804300E90EDDDC2B9103FBF
S2140816E0102F4FF0010E1146D446EDDC6346A44693
S2140816F01C463A44BEF1070F0F9284E8A000CDF8C6
S21408170038E000F3EE8008340EF101007146F1E689
S214081710019800990DAA0593FFF74EFB00287FF461
S2140817204AAF0E99D4460F9A01F1010E059BC8E7F9
S214081730002A40F0C580059B002B00F085800CAA87
S21408174002231A9208461B931A465446CBE6002AEA
S21408175040F0A580012011465446C7E603BB18F0A2
S214081760010F1DD02AAB302203F8412DC3EB0A091E
S21408177007938FE4D1460998330943EA0773390972
S21408178006F00F020F461E46835C09F8013D56EA2E
S2140817900703F1D14B46CDF81C90C3EB0A0979E450
S2140817A0CDF81CA076E4022345E400BF2C3B0800D5
S2140817B06C3B0800002A40F0D5809DF82F30002B9F
S2140817C000F0AC8001230DF12F0118461B931A4632
S2140817D01A91544678E6039A951B002D52463FF711
S2140817E009AFC8E65D46FFF77CBB019800990DAACD
S2140817F0FFF7E2FA00287FF4DEAE52460F9BF2E6C9
S214081800049900270A4604320E68049213E4043248
S2140818101E680027012304920DE416680432049219
S21408182000272DE51E680433F717049332463B4617
S214081830C1E4019800990DAAFFF7BEFA00287FF4C4
S214081840BAAE5446FFF7C0BB0846544611464DE6A6
S214081850D146CDF814C0304639460A22002301F096
S21408186075FE30323046394609F8012D00230A2223
S21408187001F06CFE06460F4656EA0703EBD1DDF884
S21408188014C087E7302B079B87D0013B1A4607937F
S2140818903023C2EB0A0901F8013CFFF7FBBB0198AD
S2140818A000990DAACDF814C0FFF786FA00287FF431
S2140818B082AE0E9954460F9A481CDDF814C015E6F9
S2140818C0019800990DAACDF820C0FFF775FA0028F0
S2140818D07FF471AE0E9954460F9A481CDDF820C066
S2140818E0F5E5002A67D101201146544602E601981C
S2140818F000990DAAFFF760FA00287FF45CAE0E98F0
S21408190054460F9A013025E62D25764267EB4707A1
S2140819108DF82F50E1460123FFF793BB059B114630
S21408192001205446002B3FF4E5AD0CAA02238AE8B2
S2140819300C001A46D7E518F0100F0BD118F0400F18
S21408194008D0049A136804320492BDF808201A8056
S214081950FFF7A0BA049A136804320492029A1A602F
S214081960FFF798BA019800990DAACDF820C0FFF79E
S21408197023FA00287FF41FAE0E9954460F9A481C87
S214081980DDF820C092E548F020080BF101009BF82E
S2140819900130FFF7B6BA6D4204935846FFF7C8BB46
S2140819A00798049501F010FC9DF82F5081464FF0DB
S2140819B0000CFFF76FBB019800990DAACDF814C06C
S2140819C0FFF7FAF900287FF4F6AD0E9954460F9AF9
S2140819D0481CDDF814C08DE50E990F9A0131154F95
S2140819E0FFF79ABB062E144B28BF4FF0060CE146AD
S2140819F004952CEAEC76079363E40E990D4F01F1F3
S214081A00010E1AE6E146049584469DF82F50FFF726
S214081A1041BB8646094D6CE6049A9BF80130166869
S214081A200432002E0492BFF66CAA4FF0FF36FFF77A
S214081A3068BA00BF6C3B0800643B08002C3B0800F3
S214081A402DE9F04588464F6EADF26C4D1997D8F8DB
S214081A501C70B1F80CE0B1F80EA00797D8F82470FF
S214081A601AAC4FF480652EF0020E002669460094E4
S214081A70049402950595ADF80CE0ADF80EA009970C
S214081A8006960546FFF7D4F9041E07DB284669467E
S214081A9000F02AF9B04218BF4FF0FF34BDF80C30FA
S214081AA05B0605D5B8F80C3043F04003A8F80C30B0
S214081AB020460DF26C4DBDE8F08500BF38B52F4BBB
S214081AC0054618680C4610B1836B002B36D0A289E1
S214081AD093B218070CD52069A8B113F001021ED0DE
S214081AE0636900225B42A361A260F0B1002038BDA2
S214081AF0D9063AD5580724D4206942F00803A381AA
S214081B009BB20028E9D103F42072B2F5007FE4D036
S214081B102846214600F0EEFCA3892069DDE79907F0
S214081B2058BF6269A2600028E0D1A3891A06DED5EC
S214081B3043F04003A3814FF0FF3038BD00F068F94A
S214081B40C5E7216B49B104F14003994203D0284602
S214081B5000F036FAA28900232363206922F02402C3
S214081B60002392B284E80900C7E742F0400209233E
S214081B702B604FF0FF30A28138BD00BF200507203C
S214081B80024B13B1024800F005B870470000000089
S214081B90251E0800014600200246034601F0E2BB67
S214081BA08B892DE9F0419AB20D46110780463CD440
S214081BB06A6843F40063002AAB8165DDAE6A002ECE
S214081BC04BD09BB203F48052002192B2D8F8004062
S214081BD0C8F80010002A5BD02A6D5F0705D569682B
S214081BE02B6B521A0BB1EB6BD21A4046E9690023ED
S214081BF0B047461C56D0AB892A6923F400639BB2CB
S214081C0000212A60DA04AB8169603BD4296BC8F8E6
S214081C10004011B305F14003994202D0404600F057
S214081C20CFF900202863BDE8F0812E69AEB1910790
S214081C302C680CBF6B6900232E60A41BAB600AE0FF
S214081C40324623466F6A4046E969B8470028A4EB3F
S214081C500004064404DD002CF2DC0020BDE8F08118
S214081C60AB894FF0FF3043F04003AB81BDE8F0810D
S214081C70AB892A6923F400639BB2AB81DB046960F5
S214081C802A60C3D52865C1E7EA6B002A96DCE4E734
S214081C9001234046E969B047431C024619D0AB8980
S214081CA0AE6A9AE7D8F800100029E1D01D2907D0B7
S214081CB0162905D0AB8943F04003AB81BDE8F08117
S214081CC0AB89296923F400630022AB8185E8060006
S214081CD09CE7D8F80030002BE1D01D2B01D0162B3E
S214081CE0BED1C8F80040B8E710B5044682B008B1BF
S214081CF0836B53B1B1F90C0008B902B010BD204689
S214081D0002B0BDE81040FFF74BBF019100F080F825
S214081D100199EFE7014900F0BBBB00BF2D3408006E
S214081D202DE9F04F074635487D68002407F53B72D5
S214081D3004230321F863C7F8E412C7F8E822C7F8B3
S214081D40E04283B02C606C60AC606C66EC812C6101
S214081D506C61AC61AB81214605F15C000822FEF798
S214081D6059FFDFF89CB0BE68DFF898A0DFF89890B7
S214081D70DFF8988001230922C5F820B0C5F824A00A
S214081D80C5F82890C5F82C80ED612146F381B2810C
S214081D9006F15C0034607460B46074663461746123
S214081DA0B46108220193FEF735FFFD68122002226F
S214081DB0F661C6F820B0C6F824A0C6F82890C6F87B
S214081DC02C802146A881EA812C606C60AC606C6629
S214081DD02C616C61AC6105F15C000822FEF71AFF05
S214081DE0019BED61C5F820B0C5F824A0C5F8289079
S214081DF0C5F82C80BB6303B0BDE8F08F151D08003E
S214081E004531080069310800A1310800C1310800D1
S214081E10836B03B17047FFF783BF00BF704700BFEF
S214081E20704700BF38B5084B084DED1AAC1018BF00
S214081E30ED1805D0013C55F8043D9847002CF9D11B
S214081E40BDE8384001F0A4BE9C3B0800A03B080053
S214081E502DE9F04182B007460E46144600F044FBD2
S214081E60012840D0384601A9324604F15C0301F047
S214081E702DFAB0F1FF3F80462ED000283BD09DF8C3
S214081E800410002509E023681970236801332360CD
S214081E900135A8452FD901AB595DA368013B002B36
S214081EA0A360F0DAA269934206DB236819702368F8
S214081EB0197801330A29EAD13846224601F0B2F9E0
S214081EC0A0F1FF30B0FA80F040090028E0D04FF0CB
S214081ED0FF3002B0BDE8F081A38943F04003A38138
S214081EE002B0BDE8F081731EFE2BBBD8F1B2804667
S214081EF08DF80410C5E7304602B0BDE8F08100BF93
S214081F00938913F4005F0BD110B4546E43F4005356
S214081F1044F40054546693815DF8044BFFF798BF69
S214081F20FFF796BFF8B50C46224F064600F004FFAA
S214081F30BB685D6825F00305291B01F6EF7121F4DF
S214081F407F6121F00F01A1F58054B4F5805F07DBAF
S214081F503046002101F0E4F8BB682B44984204D0D0
S214081F60304600F0EBFE0020F8BD3046614201F036
S214081F70D7F801300DD0104BBA6819682D1B45F0FC
S214081F8001053046091B5560196000F0D7FE012090
S214081F90F8BD3046002101F0C3F8BA68831A0F2B43
S214081FA0DEDD064C0449246843F00103001B536039
S214081FB00860D5E748050720FC09072054090720CC
S214081FC000294ED02DE9F0410C46804600F0B4FEBC
S214081FD054F8047C6249A4F1080527F00102AB18FE
S214081FE08E6858689E4220F003005AD0FE07586054
S214081FF00BD454F8087C01F1080EED1BAC683A4483
S214082000744567D0EF68E760BC601C186468E4072E
S2140820100CD4544F9C680244BC427CD0D86842F02A
S2140820200103E06084606B60AA5003E042F001039D
S2140820306B60AA50B2F5007F14D2D20801EBC20337
S21408204001244868921004FA02F29C681043AC60B7
S214082050EB6048609D60E5604046BDE8F04100F0F2
S2140820606DBE7047530A042B47D8930903F138040A
S214082070600001EB800083683949834243D0596881
S21408208021F00301914202D99B689842F7D1DA6899
S214082090EA60AB6040469560DD60BDE8F04100F060
S2140820A04DBEFF07024407D454F8084C2D1BEB68B6
S2140820B0A8682244C36098602B4B42F001001B6856
S2140820C068609A428D60C7D3284B40461968FFF768
S2140820D029FFC1E719184968C90709D4D96802440D
S2140820E09B6842F00100D9608B606860AA50B3E72D
S2140820F042F001036B60AA50AEE7142B14D803F124
S2140821005B046000B5E74A68A4100120A0400243BB
S2140821104A601A46BCE742F001034D610D61EC6067
S214082120AC606B60AA5097E7542B04D8130B03F1E6
S2140821306E0460009DE7B3F5AA7F04D8D30B03F1BD
S2140821407704600095E740F25450834204D8930C15
S21408215003F17C0460008CE7FC207E2489E700BF3E
S214082160480507205005072050090720F8090720CA
S2140821709368002B00F0B1802DE9F04FB1F80CE021
S21408218083B01EF0080F0C468146164628D00B6909
S21408219033B30EF002081FFA88F0356880B34FF0A4
S2140821A0000BD846DFF8E4A2B8F1000F00F08F80E5
S2140821B0D0454346484628BF5346E1695A46676AAB
S2140821C0B847002840F3A880B36883441B1AC0EBBE
S2140821D00808B360002BE7D1002003B0BDE8F08FF5
S2140821E048462146FFF76AFC002840F04681B4F8C6
S2140821F00CE035680EF002081FFA88F00028CED1E9
S2140822001EF0010B40F09180D846B8F1000F58D068
S2140822101EF4007FA76862D0B845BA46C0F0C280F0
S2140822201EF4906F00F0C08067692169236807EB89
S21408223047075B1A07EBD777581C7F10404487423E
S2140822403A463CBF07463A461EF4806F009300F0B5
S214082250FB801146484600F0C5F9009B82460028D8
S21408226000F00E811A462169009300F08BFCA289C3
S214082270009B22F4906242F08002A2810AEB0300DF
S214082280C4F810A0FB1A6761C24647462060A360E0
S2140822905246594600F0ECFCA0682268C01BA060B5
S2140822A0404602EB0A032360B36883441B1AC0EB5C
S2140822B00808B360002B8FD0B4F80CE0B8F1000F14
S2140822C0A6D1D5F800B0D5F8048008359DE7D5F82E
S2140822D000B0D5F80480083566E700207047206807
S2140822E02369984203D86269904580F085804745FF
S2140822F028BF474659463A4600F0BAFCA368226803
S214082300DB1B3A44A3602260002B49D1484621468D
S214082310FFF7EAFC002843D0A38943F040034FF0B8
S214082320FF30A38103B0BDE8F08F8046834682461F
S2140823300090BAF1000F2BD0009B002B4FD0D04551
S214082340434628BF5346206821691F468842D4F86A
S21408235008E0626903D90EEB020C63455EDC934223
S21408236024DB1346676A4846E1695A46B847071E9B
S214082370D2DDB8EB070829D0B368BB44DB1BC7EB34
S2140823800A0AB360002B3FF427AFBAF1000FD3D187
S2140823900023D5F800B0D5F804A000930835C8E7A0
S2140823A0384681E74746C246206871E71A465946C6
S2140823B0019300F05DFCA2682168019BB8EB070852
S2140823C0A2EB03020B44A2602360D5D148462146FF
S2140823D0FFF78AFC00289FD1CDF80080CCE7584646
S2140823E00A21524600F084FB002841D00130012320
S2140823F0CBEB00080093A2E76FF00043434528BFE5
S214082400434693FBF2F3676A03FB02F34846E16927
S2140824105A46B84700283FF747AF7DE76246594611
S214082420CDF804C000F024FC2368DDF804C0484654
S214082430634423602146FFF757FCDDF804C00028F4
S2140824407FF46AAF674694E7484600F079FC009B3D
S214082450824600287FF412AF48462169FFF7B0FD90
S214082460A3890C2223F080039BB2C9F8002054E706
S21408247001230AF10108009361E74FF0FF30ACE64C
S2140824800C23C9F80030A38947E700BF00FCFF7F8C
S2140824902DE9F84310F538761ED0884607464FF0E3
S2140824A000097568B468013D10D4A389013D012B65
S2140824B008D9B4F90E30013304D038462146C0474F
S2140824C049EA00096B1C04F16804EED13668002E50
S2140824D0E7D14846BDE8F883B1464846BDE8F883E4
S2140824E00048704724050720014B1868704700BF4E
S2140824F0440507208B899AB212F0020F3CD1F0B53A
S2140825000C46B1F90E1091B00029054619DB01AA50
S21408251000F0CEFF002812DB029B03F47043A3F5FD
S2140825200057B7FA87F7B3F5004F4FEA57172AD080
S214082530A3894FF4806643F40063A3810BE0A38964
S2140825409AB212F0800F43F40063A3810CBF4FF4D5
S2140825508066402600272846314600F043F8A389BF
S21408256040B31A4A43F08003EA63A38120602061DF
S21408257066619FB911B0F0BD01F1430301220B60FB
S2140825800B614A617047124BA26A9A42D0D1A3895E
S2140825904FF480663343A381E664DCE72846B4F943
S2140825A00E1000F099FF0028E4D0A38943F0010339
S2140825B0A381DFE79A05DDD404F1430243F0020362
S2140825C00121A381226022616161D3E7151D0800FD
S2140825D0A1310800024B0146186800F003B800BF96
S2140825E0200507202DE9F04F01F10B05162D83B0C5
S2140825F0064627D935F0070500F1B680A94200F24D
S214082600B38000F099FBB5F5FC7F22D2BC4FE808F2
S21408261007EBC003DC689C4200F0BC816368E16895
S21408262023F0030323445A68A56842F00102E960D0
S21408263030468D605A6000F081FB0834204603B0AF
S214082640BDE8F08F102900F28F8000F075FB10258A
S214082650DCE7680A00F08F80042800F24781A809A2
S21408266038304100A64F07EB8101CC68A14206D15D
S2140826700CE0002A80F28280E468A14206D06368F3
S21408268023F003035A1B0F2AF3DD013801309C4957
S2140826903C6901F1080E744500F07181636823F007
S2140826A003035A1B0F2A00F35781002AC1F814E0C7
S2140826B0C1F810E066DAB3F5007F80F02D81DB08FC
S2140826C001EBC3084FEAA30C4A68012303FA0CF38C
S2140826D0D8F808C01343C4F808C0C4F80C804B6088
S2140826E0C8F80840CCF80C408210012494409C425C
S2140826F055D8234206D120F003006400234200F197
S2140827000400FAD007EBC008C4468146DCF80C3053
S2140827109C4507D135E1002980F24581DB689C4558
S21408272000F02F815A6822F00302511B0F29F2DDB0
S2140827301C46DA6854F808CF45F0010941F001084C
S2140827401D44C3F804903046CCF80C20C2F808C0E4
S2140827507D613D61C5F80CE0C5F808E0C5F8048061
S214082760695000F0EBFA69E7002420460C23336032
S21408277003B0BDE8F08F7E213F2073E723445A68F4
S214082780E16851E723445A68304642F001025A602D
S214082790083400F0D3FA204603B0BDE8F08FBC68D2
S2140827A0636823F00308454504D8C5EB08030F2BD8
S2140827B000F38C80534BDFF85CA11A68DAF8003017
S2140827C02A44013304EB080B00F0518102F58052CD
S2140827D00F3222F47F6222F00F0211463046019231
S2140827E000F09EFCB0F1FF3F8146019A00F0488158
S2140827F0834500F2EF80444BCB45196811441960B5
S21408280000F04381DAF80000DFF808E101301BBF6A
S214082810CBEB090B5944CEF80090196019F0070164
S21408282000F00881C1F10800C1F5805181440831E3
S2140828304A44C2F30B02C2EB010A514630460193E2
S21408284000F06EFC431C019B00F02D81C9EB0002D2
S214082850524442F001021968BC425144C7F8089035
S2140828601960C9F80420DFF8A0A016D0B8F10F0F39
S21408287040F2EF806268A8F10C0323F0070302F029
S2140828800102E0184FF0050E1A430F2B6260C0F8DD
S21408289004E0C0F808E000F20A811C4BBC681A681D
S2140828A0914288BF19601A4B1A689142626888BFBD
S2140828B0196022F003029542A2EB050301D80F2BFC
S2140828C004DC304600F03AFA0024B7E645F0010288
S2140828D043F00103254462603046BD6008346B60EF
S2140828E000F02CFA204603B0BDE8F08F142869D90A
S2140828F0542800F29880280B6E304100B2E600BFDC
S21408290048050720F8090720FC090720F4090720CE
S214082910F0090720540907205A0A042A55D9142A08
S21408292000F2A7805B324FEA420C07EB8C0CDCF80F
S2140829300810DFF8B88161457FD04A6822F00302A4
S214082940934202D289688C45F7D1CA687B68E260F0
S214082950A1609460CC60C7E645F0010742F0010329
S2140829602544676030464D610D61C5F80CE0C5F832
S21408297008E06B60AA50083400F0E0F95EE64B68A1
S214082980B2E609F1010919F0030F0CF1080C7FF4FF
S214082990BDAE2CE004F108036469A34208BF023008
S2140829A03FF475AE3AE61C461A445168DB6854F89C
S2140829B0085F41F0010151603046EB609D6000F011
S2140829C0BDF93BE65B3041004CE69A0938324FEADF
S2140829D0420CAAE7BC42454B3FF40DAF9C686268C0
S2140829E022F0030267E7D8F8008098457CD110F0FB
S2140829F0030FA8F1080300F1FF30F4D17B6823EA3F
S214082A0004037B6064009C423FF6C9AE002C3FF48A
S214082A10C6AE234248467FF475AE6400234200F1F2
S214082A200400FAD06EE6B0F5AA7F18D8E80B77301F
S214082A30410017E64FF48051FAE6D8F804309210B1
S214082A404FF0010C0CFA02F21343C8F804300A4699
S214082A507DE70123C9F804304C4600222BE740F2F4
S214082A60545398421CD8A80C7C304100FAE5103222
S214082A70B3E6542A23D81A0B6E324FEA420C54E7B0
S214082A80BC68626822F0030215E7CBF30B00002847
S214082A907FF4B8AE4244BB6842F001025A60FCE6D6
S214082AA0FC217E20DEE501224FF0000AD3E604F181
S214082AB008013046FFF784FADAF80010EDE6B2F5BA
S214082AC0AA7F04D8DA0B77324FEA420C2DE740F299
S214082AD054518A4204D89A0C7C324FEA420C24E7B6
S214082AE04FF0FC0C7E2220E77B688BE74805072022
S214082AF0830770B4C9B240D0541E002A3FD003786A
S214082B008B4218BF431C05D11CE0ECB10278013C8F
S214082B108A4217D013F0030F184603F10103F4D1C5
S214082B20032C14D884B103788B420BD00519431CA8
S214082B3002E002788A4205D0AB42184603F1010348
S214082B40F7D1002070BC7047204670BC704702461C
S214082B5041EA012646EA0646136810467340A3F182
S214082B60013525EA030313F0803F02F10402D9D1A8
S214082B70043C032C1046EFD8D4E71446D0E710469A
S214082B80E0E700BF844641EA000313F0030349D197
S214082B90403A23D30B6803604B6843608B688360B6
S214082BA0CB68C3600B6903614B6943618B698361BA
S214082BB0CB69C3610B6A03624B6A43628B6A8362A2
S214082BC0CB6AC3620B6B03634B6B43638B6B83638A
S214082BD0CB6BC36340304031403ADBD230320BD344
S214082BE00B6803604B6843608B688360CB68C36080
S214082BF010301031103AF3D20C3205D351F8043B9A
S214082C0040F8043B043AF9D2043208D0D2071CBF75
S214082C1011F8013B00F8013B01D30B88038060469E
S214082C20704700BF082A13D38B07B1D010F00303F0
S214082C30AED0C3F10403D21ADB071CBF11F8013B60
S214082C4000F8013BA4D331F8023B20F8023B9FE78B
S214082C50043AD9D3013A11F8013B00F8013BF9D2FE
S214082C600B7803704B7843708B7883706046704798
S214082C708842F0B50DD98B1898420AD28118002AD6
S214082C8054D09A1A13F8014D934201F8014DF9D120
S214082C90F0BD0F2A48D940EA01039B0747D11546DD
S214082CA000F1100401F1100353F8106C103D44F8BD
S214082CB0106C53F80C6C0F2D44F80C6C53F8086C19
S214082CC004F1100444F8186C53F8046C03F110036C
S214082CD044F8146CE8D8A2F1100323F00F0302F0AE
S214082CE00F0E1033BEF1030F1944034421D90E46C4
S214082CF074461D1F56F8047B043C032C45F8047FD5
S214082D00F8D8AEF1040424F0030404342344214420
S214082D1002F0030252B1013B0A4411F8014B9142FA
S214082D2003F8014FF9D1F0BD0346F3E7F0BD0346BB
S214082D30F1E77246EEE700BF704700BF704700BF76
S214082D402DE9F04F174683B00D46002900F0E280C3
S214082D50814607F10B04FFF7EFFF55F8043C162CE5
S214082D6023F00306A5F108084BD810221446A742FC
S214082D704CD8964251DADFF8A4B308EB0601DBF824
S214082D800800884200F0D380486820F0010E8E4480
S214082D90DEF804E01EF0010F54D120F003003044A2
S214082DA0904280F2BD80DB0700F1908055F8083C21
S214082DB0C3EB080ADAF8043023F0030300EB030E2B
S214082DC0964549DB5746CB688968321FCB609960C1
S214082DD057F8081FDAF80C30242ACB60996000F2FE
S214082DE03381132A40F2FA802B681B2ACAF8083067
S214082DF06B68CAF80C3000F23B8108350AF11003FC
S214082E00EDE024F00704002C2246B0DA0C2300205C
S214082E10C9F8003003B0BDE8F08F2F46321B0F2AE2
S214082E2003F0010340D83343C8F8043046447368B7
S214082E3043F0010373604846FFF780FF384603B047
S214082E40BDE8F08FD90741D455F8083CC3EB080A0B
S214082E50DAF8043023F003033344934236DB57464C
S214082E60DAF80C1057F8080F321F242AC160886059
S214082E7000F2F580132A40F2F08029681B2ACAF867
S214082E8008106968CAF80C1000F2078108350AF1BC
S214082E90100229681E4611606968D0465160AB6802
S214082EA09360DAF80430B9E708EB0401234342F0EC
S214082EB00100C8F804300A4448605368083143F0F3
S214082EC0010353604846FFF77BF8B4E7394648469F
S214082ED0FFF788FB07460028ADD055F8043CA0F15C
S214082EE0080123F001024244914200F0A680321FF6
S214082EF0242A00F29380132A65D803462A461168C6
S214082F0019605168596092689A6029464846FFF7E2
S214082F1057F890E7114603B0BDE8F04FFFF762BBDD
S214082F20CA6889682F46CA600646916076E741688F
S214082F3004F1100021F00301314481425ADADB071C
S214082F40C4D455F8083CC3EB080ADAF8043023F072
S214082F50030301EB030C60453FF77EAF5746DAF8EC
S214082F600C3057F8081F321F242ACB60996000F2ED
S214082F70B680132A40F2A7802B681B2ACAF80830A6
S214082F806B68CAF80C3000F2B38008350AF11003F3
S214082F902A681A606A685A60AA689A60C4EB0C03C2
S214082FA00AEB040243F00103CBF808205360DAF872
S214082FB00430484603F001031C43CAF80440FFF7F0
S214082FC0BDFE38463BE72B681B2A03606B684360E8
S214082FD028D800F1080305F1080290E73B462A685E
S214082FE076461A606A68D0465A60AA689A60DAF81E
S214082FF0043013E70B1B08EB040243F00103CBF87D
S2140830000820536055F8043C484603F001031C4367
S21408301045F8044CFFF792FE284610E72946FFF7C6
S21408302027FE72E7AB68242A8360EB68C3602BD060
S21408303000F1100305F1100261E750F8042C2F4642
S21408304022F003021644E9E6294638467646D04674
S214083050FFF70EFEDAF80430E0E63A4619E72946A6
S21408306038461E46D046FFF703FEDAF80430D5E6A3
S214083070AB68242ACAF81030EB68CAF8143018D09F
S21408308010350AF11803AAE72A6900F11803026145
S214083090696905F11802416131E7A968242ACAF866
S2140830A01010E968CAF814100FD010350AF1180283
S2140830B0EFE62A690AF12003CAF818206A69183563
S2140830C0CAF81C208BE73B4662E729690AF120020A
S2140830D0CAF8181069691835CAF81C10D9E62946BE
S2140830E03846CDF804C0FFF7C3FDDDF804C055E741
S2140830F0AB68242ACAF81030EB68CAF8143003D034
S21408310010350AF1180343E72A690AF12003CAF8BA
S21408311018206A691835CAF81C2039E748050720B8
S21408312038B5074C0023054608462360FDF7ECFB38
S214083130431C00D038BD2368002BFBD02B6038BD5D
S214083140300A072010B50C46B1F90E1000F0EAF95F
S214083150002803DB236D0344236510BDA38923F4ED
S2140831608053A38110BD00BF2DE9F0410C46898924
S2140831701D46CB051646074606D5B4F90E1000229E
S214083180022300F0BBF9A18921F48051A1813846B9
S214083190B4F90E1032462B46BDE8F04100F0CEB822
S2140831A010B50C46B1F90E1000F0A8F9A389421C18
S2140831B00EBF23F4805343F480532065A38110BDCB
S2140831C0B1F90E1000F020B920F0030110F003004A
S2140831D0C0F1000051F8043B00F1040C4FEACC0C97
S2140831E06FF000021CBF22FA0CF213434FF0010CDA
S2140831F04CEA0C2C4CEA0C4CA3EB0C0222EA030219
S21408320012EACC1204BF51F8043B0430F4D0C2F1E1
S214083210000102EA0102B2FA82F2C2F11F0200EBD2
S214083220D200704770B50D461446064610B1836B3B
S214083230002B48D0A289A36991B20807A36038D5A5
S2140832402369002B35D08904EDB215D5226861694B
S214083250D31A8B421CDA0133A168501C0139A160CD
S2140832602060157062699A421AD0A389DB0701D5D7
S2140832700A2D15D0284670BD616E42F4005221F41E
S2140832800051A281226861666169D31A8B42E2DB2B
S21408329030462146FEF728FD40B922680123DBE7C1
S2140832A030462146FEF720FD0028E3D04FF0FF30D9
S2140832B070BD30462146FEF701FC0028F6D1A289EB
S2140832C0236991B2BFE7FEF7A3FDB3E72DE9F04106
S2140832D0054686B01E460C46A1B1104B1746D3F8D5
S2140832E00080FFF7FDF80096034621463A46284632
S2140832F0C047431C03D100228A2332602B6006B0E5
S214083300BDE8F081054B1F68FFF7EAF8009603460C
S2140833102246284603A9B847EBE700BF5809072006
S21408332021B1FF2A04D80A70012070470846704762
S2140833308A2303604FF0FF30704700BF70B5084C13
S21408334006460025084611461A462560FCF72EFF55
S214083350431C00D070BD2368002BFBD0336070BDC3
S214083360300A07202DE9F047254C0646256888468A
S214083370D5F8484192469946C4B360681F2817DCBA
S214083380411C76B104EB8003C3F888A0D4F88851B2
S214083390012282401543022EC4F88851C3F80891CA
S2140833A01ED0831C6160002044F82380BDE8F087A7
S2140833B0144B03B34FF4C870FFF70CF90446D0B1AA
S2140833C0D5F84831002784E888003846C5F84841CB
S2140833D00121C4F88871C4F88C71002EE1D0D1E7B9
S2140833E0D4F88C311A43C4F88C21DAE705F5A674AC
S2140833F0C5F84841C1E74FF0FF30BDE8F08700BF89
S214083400283B0800D525080038B5074C0023054694
S21408341008462360FDF78EFA431C00D038BD2368A3
S214083420002BFBD02B6038BD300A072000293DD082
S21408343070B505460C4608B1836B7BB3B4F90C30FF
S2140834400BB9002070BD28462146FEF7A9FBE36AA3
S214083450064633B12846E16998470028B8BF4FF0BA
S214083460FF36A3891B061CD4216B41B104F1400327
S214083470994202D02846FEF7A3FD00232363616C19
S21408348021B12846FEF79CFD00236364FEF7C6FCC0
S2140834900023A381FEF7C4FC304670BDFEF7B8FCD7
S2140834A0CCE728462169FEF78BFDDDE7002070474C
S2140834B038B5084C00230546084611462360FDF734
S2140834C03CFA431C00D038BD2368002BFBD02B6089
S2140834D038BD00BF300A072038B5074C002305461C
S2140834E008462360FDF72EFA431C00D038BD236833
S2140834F0002BFBD02B6038BD300A072070B5084C6F
S21408350006460025084611461A462560FDF71CFAA9
S214083510431C00D070BD2368002BFBD0336070BD01
S214083520300A072070B5084C06460025084611469E
S2140835301A462560FCF70CFE431C00D070BD2368B5
S214083540002BFBD0336070BD300A072053B94AB948
S214083550002908BF00281CBF4FF0FF314FF0FF308E
S21408356000F03CB882B0EC462DE9005000F01EF89A
S214083570DDF804E002B00CBC704700BF2DE9F0414E
S214083580069C904606460F461D4600F029F808FB9E
S21408359001FCA8FB002300FB05C5B21A2B4467EB09
S2140835A003038646C4E90023BDE8F0812DE9F84305
S2140835B0089E1746804689461D4600F067F900FBB8
S2140835C005F3A0FB074507FB0137B8EB04043D44A9
S2140835D069EB0505C6E90045BDE8F883704700BFF6
S2140835E000292DE9F043C0F2A8800026002BC0F27F
S2140835F09E8081468E4690469C46174604460D4653
S214083600002B3DD18A4259D9B2FA82F33BB1C3F1B5
S21408361020029D4020FA02F29F4015439C40390C38
S214083620B5FBF1F01FFA87FE01FB10550EFB00F301
S214083630220C42EA0545AB4209D9ED1900F1FF32E2
S21408364080F00B81AB4240F2088102383D44ED1A07
S214083650B5FBF1F301FB13550EFB03FEA4B244EAD7
S2140836600545AE4508D9ED1903F1FF3280F0F7801D
S214083670AE4540F2F480023B43EA0043002203E0F2
S2140836808B420FD900221346341C18BF012460420F
S2140836904FF0000565EB4501584051400019694157
S2140836A0BDE8F083B3FA83F2002A40F089808B42A3
S2140836B002D3804500F2E2800123E5E712B9012330
S2140836C0B3FBF2F7B7FA87F8B8F1000F3BD1ED1B5A
S2140836D04FEA174C1FFA87FE0122B5FBFCF00CFBDD
S2140836E010550EFB00F3210C41EA0545AB4207D9FD
S2140836F0ED1900F1FF3102D2AB4200F2C380084652
S214083700ED1AB5FBFCF30CFB13550EFB03FEA4B237
S21408371044EA0545AE4507D9ED1903F1FF3102D253
S214083720AE4500F2AD800B4643EA0043ACE7524292
S2140837306FEA060663EB43035BE7404261EB410131
S2140837404FF0FF3652E707FA08F7C8F1200225FAC5
S21408375002F34FEA174CB3FBFCF11FFA87FE0CFB8B
S214083760113324FA02F205FA08F50EFB01F92A438A
S214083770100C40EA0343994504FA08F407D9DB1904
S21408378001F1FF3078D2994576D902393B44C9EB26
S2140837900303B3FBFCF00CFB10330EFB00F592B2F0
S2140837A042EA03439D4207D9DB1900F1FF325FD294
S2140837B09D425DD902383B445D1B40EA01428CE7D6
S2140837C0C2F1200328FA03F10CFA02FC41EA0C0CB9
S2140837D04FEA1C402EFA03F1B1FBF0F51FFA8CF7FE
S2140837E000FB151129FA03F30EFA02FE07FB05F98A
S2140837F043EA0E0E4FEA1E4343EA0141894508FA9A
S21408380002F808D911EB0C0105F1FF3332D28945CD
S21408381030D9023D6144C9EB0101B1FBF0F300FB6E
S214083820131107FB03F71FFA8EFE4EEA014E774583
S21408383008D91EEB0C0E03F1FF3117D2774515D9C0
S214083840023BE64443EA0543A3FB0889C7EB0E0E92
S214083850CE4509D305D0002216E71046F7E61346EC
S2140838600AE794404445F6D2013BF4E70B46E9E7FD
S2140838701046A1E71D46CEE7014688E7134603E74C
S214083880023B51E702383D443AE700BF2DE9F043D2
S214083890002B44D18A42154604464FD9B2FA82F71D
S2140838A00E464FB1C7F12003B94020FA03F602FAD4
S2140838B007F50E4300FA07F42F0CB6FBF7F01FFACD
S2140838C085FE07FB10620EFB00F1260C46EA024353
S2140838D0994209D95B1900F1FF3280F0EE809942CF
S2140838E040F2EB8002382B44591AB1FBF7F307FB7A
S2140838F013110EFB03FEA4B244EA01418E4508D913
S214083900491903F1FF3280F0DA808E4540F2D780FD
S214083910023B43EA004000263146BDE8F0838B426E
S21408392047D8B3FA83F6002E48D18B4202D3824298
S21408393000F2CF8001203146BDE8F08312B9012598
S214083940B5FBF2F5B5FA85FCBCF1000F78D1491B3A
S2140839502F0C1FFA85FE0126B1FBF7F007FB1011A6
S2140839600EFB00F2230C43EA01418A4207D94919A3
S21408397000F1FF3302D28A4200F2BC801846891A48
S214083980B1FBF7F307FB13110EFB03FEA4B244EAE0
S2140839900142964508D9521903F1FF3180F091800B
S2140839A0964540F28E80023B43EA00403146BDE829
S2140839B0F083002630463146BDE8F083C6F1200481
S2140839C022FA04F5B3402B4321FA04F74FEA1348CA
S2140839D0B7FBF8FC1FFA83F908FB1C7720FA04FEED
S2140839E001FA06F509FB0CF44EEA05054FEA154EF2
S2140839F04EEA0747BC4202FA06F204D9FF180CF151
S214083A00FF3168D38C463F1BB7FBF8F408FB1477E6
S214083A1009FB04F9ADB245EA0741894504D9C91836
S214083A2004F1FF355DD32C4644EA0C44A4FB02237C
S214083A30C9EB0101994249D345D0204600266BE7D9
S214083A40CCF1200405FA0CF521FA04F32A0CB3FB92
S214083A50F2F61FFA85FE02FB163820FA04F701FA7A
S214083A600CF10EFB06F90F433C0C44EA0843994553
S214083A7000FA0CF407D95B1906F1FF3138D29945DC
S214083A8036D9023E2B44C9EB0303B3FBF2F002FB24
S214083A9010330EFB00F1BFB247EA0343994207D939
S214083AA05B1900F1FF3721D299421FD902382B44FF
S214083AB01746591A40EA06464EE7104614E71346D4
S214083AC027E70B4670E7B0409042B6D2601E002645
S214083AD022E7304620E7BC4294D9ACF1020C1F44DA
S214083AE091E789459FD9023C19449DE73846DFE7A8
S214083AF00E46C8E70238294441E700BF69643D25F9
S214083B00693A3A6D61736B494E3D25693A3A737462
S214083B10617475733D25693A3A6D61736B3D256925
S214083B200000000043000000F80007203030303066
S214083B303030303030303030303030303031323372
S214083B40343536373839414243444546000000008C
S214083B5030313233343536373839616263646566F6
S214083B6000000000286E756C6C29000020202020BC
S214083B70202020202020202020202020F8B500BF4C
S214083B80F8BC08BC9E467047811B0800190108004F
S214083B90F8B500BFF8BC08BC9E467047F50008009C
S20C083BA040FAFF7F0100000057
S214083BA81A4A4FF480631360C2F80032184B1A6A30
S214083BB8D10102D5174A1A6205E0174A1A629A6EA0
S214083BC8D207FCD5F6E79A6E1149D003FBD50A6BDF
S214083BD822F0030242F001020A639A6E1207FCD525
S214083BE80E490B4A91629A6E9007FCD5084A11212D
S214083BF811639A6E1107FCD5054A122111639A6E4D
S214083C081207FCD5064A074B1A607047000A0E408A
S214083C1800060E400908370109083700013F0D203D
S214083C2800BD0105EC000720114B124A9842124BBA
S214083C3801D8002118E01149884202D84FF480714B
S214083C4812E00F49884202D84FF400710CE00D497B
S214083C58884202D84FF4407106E00B49884294BF60
S214083C684FF480614FF4A06111601960704700BF77
S214083C78BFEA2101000A0E40000C0E407FF0FA0247
S214083C88FF8FD003FFB3C4047F4A5D0500093D00D3
S214083C98010000000000000000000000E403072000
S214083CA84C040720B40407200000000000000000A9
S214083CB800000000000000000000000000000000EF
S214083CC8000000000000000000000000243B080078
S214083CD800000000000000000000000000000000CF
S214083CE800000000000000000000000000000000BF
S214083CF800000000000000000000000000000000AF
S214083D08000000000000000000000000000000009E
S214083D18000000000000000000000000000000008E
S214083D28000000000000000000000000000000007E
S214083D38000000000000000000000000000000006E
S214083D4801000000000000000E33CDAB34126DE60B
S214083D58ECDE05000B000000000000000000000074
S214083D68000000000000000000000000000000003E
S214083D78000000000000000000000000000000002E
S214083D88000000000000000000000000000000001E
S214083D98000000000000000000000000000000000E
S2140840C8F800072041534349490000000000000053
S2140840D800000000000000000000000000000000CB
S2140840E800000000010000000000000000000000BA
S2140840F848050720480507205005072050050720CB
S214084108580507205805072060050720600507207A
S214084118680507206805072070050720700507202A
S21408412878050720780507208005072080050720DA
S214084138880507208805072090050720900507208A
S2140841489805072098050720A0050720A00507203A
S214084158A8050720A8050720B0050720B0050720EA
S214084168B8050720B8050720C0050720C00507209A
S214084178C8050720C8050720D0050720D00507204A
S214084188D8050720D8050720E0050720E0050720FA
S214084198E8050720E8050720F0050720F0050720AA
S2140841A8F8050720F8050720000607200006072058
S2140841B80806072008060720100607201006072006
S2140841C818060720180607202006072020060720B6
S2140841D82806072028060720300607203006072066
S2140841E83806072038060720400607204006072016
S2140841F848060720480607205006072050060720C6
S2140842085806072058060720600607206006072075
S2140842186806072068060720700607207006072025
S21408422878060720780607208006072080060720D5
S2140842388806072088060720900607209006072085
S2140842489806072098060720A0060720A006072035
S214084258A8060720A8060720B0060720B0060720E5
S214084268B8060720B8060720C0060720C006072095
S214084278C8060720C8060720D0060720D006072045
S214084288D8060720D8060720E0060720E0060720F5
S214084298E8060720E8060720F0060720F0060720A5
S2140842A8F8060720F8060720000707200007072053
S2140842B80807072008070720100707201007072001
S2140842C818070720180707202007072020070720B1
S2140842D82807072028070720300707203007072061
S2140842E83807072038070720400707204007072011
S2140842F848070720480707205007072050070720C1
S2140843085807072058070720600707206007072070
S2140843186807072068070720700707207007072020
S21408432878070720780707208007072080070720D0
S2140843388807072088070720900707209007072080
S2140843489807072098070720A0070720A007072030
S214084358A8070720A8070720B0070720B0070720E0
S214084368B8070720B8070720C0070720C007072090
S214084378C8070720C8070720D0070720D007072040
S214084388D8070720D8070720E0070720E0070720F0
S214084398E8070720E8070720F0070720F0070720A0
S2140843A8F8070720F807072000080720000807204E
S2140843B808080720080807201008072010080720FC
S2140843C818080720180807202008072020080720AC
S2140843D8280807202808072030080720300807205C
S2140843E8380807203808072040080720400807200C
S2140843F848080720480807205008072050080720BC
S214084408580807205808072060080720600807206B
S214084418680807206808072070080720700807201B
S21408442878080720780807208008072080080720CB
S214084438880807208808072090080720900807207B
S2140844489808072098080720A0080720A00807202B
S214084458A8080720A8080720B0080720B0080720DB
S214084468B8080720B8080720C0080720C00807208B
S214084478C8080720C8080720D0080720D00807203B
S214084488D8080720D8080720E0080720E0080720EB
S214084498E8080720E8080720F0080720F00807209B
S2140844A8F8080720F8080720000907200009072049
S2140844B808090720080907201009072010090720F7
S2140844C818090720180907202009072020090720A7
S2140844D82809072028090720300907203009072057
S2140844E83809072038090720400907204009072007
S2100844F800000200FFFFFFFF2133080051
S8040807B933
