S01800004841505374696B5F41676772656761742E7372656317
S214080000B8240720E1040800DD040800DD04080021
S214080010DD040800DD040800DD0408000000000018
S214080020000000000000000000000000DD040800DA
S214080030DD04080000000000DD040800DD040800F8
S214080040DD040800DD040800DD040800DD040800FF
S214080050DD040800DD040800DD040800DD040800EF
S214080060DD040800DD04080000000000390408006C
S2140800704D0408006104080075040800000000002C
S21408008000000000DD040800DD040800DD040800A8
S214080090DD040800DD040800DD040800DD040800AF
S2140800A0DD04080000000000DD040800DD04080088
S2140800B0DD040800DD040800DD040800DD0408008F
S2140800C0DD040800DD040800DD040800DD0408007F
S2140800D0DD040800DD040800DD040800DD0408006F
S2140800E0DD040800DD040800DD040800DD0408005F
S2140800F0DD04080010B5054C237833B9044B13B15A
S2140801000448AFF300800123237010BD280407209D
S2140801100000000004070800084B10B51BB108498A
S2140801200848AFF300800848036803B910BD074BBA
S214080130002BFBD0BDE81040184700BF00000000A9
S2140801402C04072004070800040708000000000025
S21408015010B54FF40042164B5A600B20154CA047BA
S2140801600C20A0470D20A0470E20A0474FF0605156
S2140801703B20114CA0474FF060515520A0474FF048
S21408018060515620A0470D496820A0470C495C20BE
S214080190A0470C4A4FF440710B480C4B98474FF059
S2140801A000612B20A0474FF000612A20A04710BD11
S2140801B0501A0E40890408007502080079000028C5
S2140801C00100002801000008000E0E404903080040
S2140801D04264B1F1805F16D004D8C1B1B1F1006FA6
S2140801E00AD013E0B1F1405F11D0B1F1605F0ED0D4
S2140801F0B1F1205F0AD17047016F036F0B4023EA05
S2140802000203036702E0036F134303674260704705
S214080210416412F0010F14BF4166016612F00A0F1E
S21408022014BF0162416212F0020F02D0C0F88010BB
S21408023004E012F0080F18BFC0F88410416101608E
S214080240704700BF10B44164019C0CB1416600E0E1
S21408025001660BB1016500E041650AB1016300E083
S21408026041630161016010BC704700BFC06C7047F5
S214080270806C704770B582B00D46430903F50013CD
S21408028003F207735C0201F0F043B3F1205F30D04D
S21408029006D8B3F1006F0AD0B3F1805F18D049E0F2
S2140802A0B3F1405F30D0B3F1605F2DD042E000F08C
S2140802B01F000126864032464FF0006120461F4B3D
S2140802C0984715F0010F14BF66662666012032E0CF
S2140802D000F01F000126864032464FF08051204627
S2140802E0164B984715F0010F14BF66662666012060
S2140802F021E000F01F0101262A4606FA01F12046F1
S2140803000F4B9847304616E005F0605200F01F0184
S214080310012605EA06030093C5F38003B2F1605F81
S21408032014BF0022012206FA01F12046054CA04718
S214080330304600E0002002B070BD00BFD1010800C2
S214080340110208004502080070B582B005460E4640
S214080350144602F0F043B3F1205F26D006D8B3F176
S214080360006F0AD0B3F1805F13D034E0B3F1405F7A
S2140803701FD0B3F1605F1CD02DE00A464FF0006135
S214080380164B984714F0010F14BF6E662E660120B0
S21408039022E00A464FF08051104B984714F0010FA0
S2140803A014BF6E662E66012016E00D4B9847012096
S2140803B012E004F0605204F001030093C4F38003D3
S2140803C0B2F1605F14BF0022012231462846054C70
S2140803D0A047012000E0002002B070BDD10108004F
S2140803E011020800450208002DE9F0410446884637
S2140803F00E4B9847054620460D4B9847054013D0A8
S2140804000C4C04F160062368434508D1616829420C
S21408041005D0E36840469847636825EA0305B44272
S21408042002D01034002DEED1BDE8F0816D02080030
S214080430710208004404072008B50B210148024B46
S214080440984708BD000E0E40E903080008B50C21C1
S2140804500148024B984708BD00100E40E903080003
S21408046008B50D210148024B984708BD00120E40FA
S214080470E903080008B50E210148024B984708BD55
S21408048000140E40E90308002C281ED81F280CD894
S214080490114B9A6901238340934318D0012303FA2A
S2140804A000F00D4B18610020704720380A4BD3F82F
S2140804B008210123834093430BD0012303FA00F05D
S2140804C0054BC3F800010020704701207047002044
S2140804D070470020704700BF00060E40FEE700BFCA
S2140804E008B51E4B1E4A9A4203D01E4B1B4A9A4218
S2140804F004D31D4B1D4A9A420FD31AE017491C4BCA
S2140805005B1A23F003030433154A134452F8040B0A
S21408051041F8040B9A42F9D1EBE7164B164AD21A61
S21408052022F003021A44043B002143F8041B9342BA
S214080530FBD1124B23F0604222F07F0210498A60FA
S21408054003F16043B3F5801F03D28B6843F0005372
S2140805508B600C4B98470C4B9847FEE7000007202B
S2140805600407080028040720B404072028040720E6
S214080570270407202C040720B704072000000800DB
S21408058000ED00E09D0508008D05080008B5024B43
S2140805909847002008BD00BF5101080070B50F4EEF
S2140805A00F4D761BB61018BF002405D0013455F839
S2140805B0043B9847A642F9D10A4E0B4D00F090F836
S2140805C0761BB61018BF002406D0013455F8043B35
S2140805D09847A642F9D170BD70BD00BFEC0608006A
S2140805E0EC060800F4060800EC060800024B13B1F7
S2140805F0024800F005B87047000000000D06080025
S214080600002301461A46184600F014B838B5074DB8
S214080610074C2C1BA41005D0013C55F8043D984700
S214080620002CF9D1BDE8384000F064B8040708008B
S214080630000708002DE9F047254C06462568884639
S214080640D5F8484192469946C4B360681F2817DC17
S214080650411C76B104EB8003C3F888A0D4F888510F
S214080660012282401543022EC4F88851C3F8089127
S2140806701ED0831C6160002044F82380BDE8F08704
S214080680144B03B34FF4C870AFF300800446D0B1E0
S214080690D5F84831002784E888003846C5F8484128
S2140806A00121C4F88871C4F88C71002EE1D0D1E716
S2140806B0D4F88C311A43C4F88C21DAE705F5A67409
S2140806C0C5F84841C1E74FF0FF30BDE8F08700BFE6
S2140806D0DC060800000000004300000000000720B9
S2140806E0F8B500BFF8BC08BC9E467047ED05080084
S2140806F019010800F8B500BFF8BC08BC9E4670474C
S208080700F5000800EB
S21408070400000000EC02072054030720BC0307205F
S21408071400000000000000000000000000000000C8
S21408072400000000000000000000000000000000B8
S21408073400000000D80608000000000000000000C2
S2140807440000000000000000000000000000000098
S2140807540000000000000000000000000000000088
S2140807640000000000000000000000000000000078
S2140807740000000000000000000000000000000068
S2140807840000000000000000000000000000000058
S2140807940000000000000000000000000000000048
S2140807A40000000000000000010000000000000037
S2140807B40E33CDAB34126DE6ECDE05000B000000FC
S2140807C40000000000000000000000000000000018
S2140807D40000000000000000000000000000000008
S2140807E400000000000000000000000000000000F8
S2140807F400000000000000000000000000000000E8
S8040804E10E
